{
	"data": {
		"bytecode": {
			"linkReferences": {},
			"object": "608060405234801561001057600080fd5b50600080546001600160a01b03191633179055611751806100326000396000f3fe608060405234801561001057600080fd5b506004361061009e5760003560e01c8063aeea9eb111610066578063aeea9eb11461016c578063da424d8a14610195578063df472d67146101a8578063e258c02c146101c8578063fe0b7ede146101db57600080fd5b8063117a5b90146100a35780631552922c146100e05780633f19d043146100f55780634f72d12a1461012c5780636f75c3c61461014c575b600080fd5b6100b66100b136600461115e565b6101ee565b604080519384526001600160a01b0390921660208401521515908201526060015b60405180910390f35b6100f36100ee366004611177565b610230565b005b61011e6101033660046111ab565b6001600160a01b031660009081526003602052604090205490565b6040519081526020016100d7565b61013f61013a36600461115e565b61038a565b6040516100d791906111db565b61015f61015a36600461115e565b610447565b6040516100d79190611268565b61011e61017a3660046111ab565b6001600160a01b031660009081526005602052604090205490565b6100f36101a3366004611291565b6106d6565b6101bb6101b6366004611338565b6109a8565b6040516100d791906113ca565b6100f36101d636600461115e565b610c35565b6100f36101e9366004611177565b610e8d565b600181815481106101fe57600080fd5b60009182526020909120600790910201805460018201546006909201549092506001600160a01b039091169060ff1683565b6000600183815481106102455761024561147c565b60009182526020909120600790910201600681015490915060ff161561026a57600080fd5b600082600181111561027e5761027e611492565b14156102ce576004810160015b6020918282040191900681819054906101000a900460ff16809291906102b0906114be565b91906101000a81548160ff021916908360ff1602179055505061032e565b60018260018111156102e2576102e2611492565b141561032e576005810160015b6020918282040191900681819054906101000a900460ff1680929190610314906114be565b91906101000a81548160ff021916908360ff160217905550505b336000908152600360205260408120805491610349836114de565b91905055507f0a05181d857066c04504026d4bb187a8386f4e6d20b4437e50fabcdf106769e38160405161037d9190611534565b60405180910390a1505050565b610392610f11565b6000600183815481106103a7576103a761147c565b60009182526020822060079190910201600481015490925081906103d590600190610100900460ff16611679565b60048401546103e99060069060ff16611679565b6103f39190611698565b600584015490925061040f90600190610100900460ff16611679565b60058401546104239060069060ff16611679565b61042d9190611698565b604080518082019091529283526020830152509392505050565b606060006001838154811061045e5761045e61147c565b600091825260208083206040805160c08101825260079094029091018054845260018101546001600160a01b031692840192909252805180820182529293919290840191600280850191835b8282101561054d5783820180546104c0906114f9565b80601f01602080910402602001604051908101604052809291908181526020018280546104ec906114f9565b80156105395780601f1061050e57610100808354040283529160200191610539565b820191906000526020600020905b81548152906001019060200180831161051c57829003601f168201915b5050505050815260200190600101906104aa565b505050908252506040805180820191829052602090920191906004840190600290826000855b825461010083900a900460ff16815260206001928301818104948501949093039092029101808411610573575050509284525050604080518082019182905260209093019291506005840190600290826000855b825461010083900a900460ff168152602060019283018181049485019490930390920291018084116105c757905050505091835250506006919091015460ff16151560209091015260a081015190915060609015156001141561064c575060408051808201909152600b81526a46696e616c2053636f726560a81b602082015261066c565b506040805180820190915260078152664f6e676f696e6760c81b60208201525b60408281018051518251808401845260048152630103b39960e51b602080830191909152925183015184518086018652600281526101d160f51b8186015294516106be959394929391928791016116b0565b60405160208183030381529060405292505050919050565b600185815481106106e9576106e961147c565b600091825260208083206040805160c08101825260079094029091018054845260018101546001600160a01b031692840192909252805180820182529293919290840191600280850191835b828210156107d857838201805461074b906114f9565b80601f0160208091040260200160405190810160405280929190818152602001828054610777906114f9565b80156107c45780601f10610799576101008083540402835291602001916107c4565b820191906000526020600020905b8154815290600101906020018083116107a757829003601f168201915b505050505081526020019060010190610735565b505050908252506040805180820191829052602090920191906004840190600290826000855b825461010083900a900460ff168152602060019283018181049485019490930390920291018084116107fe575050509284525050604080518082019182905260209093019291506005840190600290826000855b825461010083900a900460ff1681526020600192830181810494850194909303909202910180841161085257905050505091835250506006919091015460ff1615156020918201528101516001600160a01b03163314806108bd57506000546001600160a01b031633145b6108c657600080fd5b6000600187815481106108db576108db61147c565b9060005260206000209060070201905060405180604001604052808760ff1660ff1681526020018660ff1660ff168152508160040190600261091e929190610f2f565b506040805180820190915260ff8086168252841660208201526109479060058301906002610f2f565b50336000908152600360205260408120805491610963836114de565b91905055507f0a05181d857066c04504026d4bb187a8386f4e6d20b4437e50fabcdf106769e3816040516109979190611534565b60405180910390a150505050505050565b6109b0610fc2565b6109b8610fc2565b60025481523360208083019190915260408051601f88018390048302810183019091528681529087908790819084018382808284376000920182905250604086015193509150610a059050565b602002018190525083838080601f0160208091040260200160405190810160405280939291908181526020018383808284376000920182905250604086810180516020908101979097528151808301835283815280880184905260608901528151808301909252828252818701839052608088019190915260a08701829052600180548082018255925286517fb10e2d527612073b26eecdfd717e6a320cf44b4afac2b0732d9fcbe2b7fa0cf66007909302928301908155958701517fb10e2d527612073b26eecdfd717e6a320cf44b4afac2b0732d9fcbe2b7fa0cf7830180546001600160a01b0319166001600160a01b039092169190911790555186959450610b3893507fb10e2d527612073b26eecdfd717e6a320cf44b4afac2b0732d9fcbe2b7fa0cf890910191506002611008565b506060820151610b4e9060048301906002610f2f565b506080820151610b649060058301906002610f2f565b5060a091909101516006909101805460ff191691151591909117905560028054906000610b90836114de565b90915550508051600090815260046020908152604080832080546001600160a01b03191633908117909155835260059091528120805491610bd0836114de565b9091555050336000908152600360205260408120805491610bf0836114de565b91905055507f81f7bb6ac8c26bf3590ed3b94651a1e68b4e42da27bc4971c2f62617da8b631a81604051610c2491906113ca565b60405180910390a195945050505050565b60018181548110610c4857610c4861147c565b600091825260208083206040805160c08101825260079094029091018054845260018101546001600160a01b031692840192909252805180820182529293919290840191600280850191835b82821015610d37578382018054610caa906114f9565b80601f0160208091040260200160405190810160405280929190818152602001828054610cd6906114f9565b8015610d235780601f10610cf857610100808354040283529160200191610d23565b820191906000526020600020905b815481529060010190602001808311610d0657829003601f168201915b505050505081526020019060010190610c94565b505050908252506040805180820191829052602090920191906004840190600290826000855b825461010083900a900460ff16815260206001928301818104948501949093039092029101808411610d5d575050509284525050604080518082019182905260209093019291506005840190600290826000855b825461010083900a900460ff16815260206001928301818104948501949093039092029101808411610db157905050505091835250506006919091015460ff1615156020918201528101516001600160a01b0316331480610e1c57506000546001600160a01b031633145b610e2557600080fd5b600060018381548110610e3a57610e3a61147c565b600091825260209091206006600790920201908101805460ff191660011790556040519091507f83828e89cd2d7bf8161b52806aff7eb377e41d7fd8c1a5f9b960601207b850809061037d908390611534565b600060018381548110610ea257610ea261147c565b60009182526020909120600790910201600681015490915060ff1615610ec757600080fd5b6000826001811115610edb57610edb611492565b1415610eec5760048101600061028b565b6001826001811115610f0057610f00611492565b141561032e576005810160006102ef565b60405180604001604052806002906020820280368337509192915050565b600183019183908215610fb25791602002820160005b83821115610f8357835183826101000a81548160ff021916908360ff1602179055509260200192600101602081600001049283019260010302610f45565b8015610fb05782816101000a81549060ff0219169055600101602081600001049283019260010302610f83565b505b50610fbe929150611054565b5090565b6040805160c08101825260008082526020820152908101610fe1611069565b8152602001610fee610f11565b8152602001610ffb610f11565b8152600060209091015290565b8260028101928215611048579160200282015b828111156110485782518051611038918491602090910190611090565b509160200191906001019061101b565b50610fbe929150611104565b5b80821115610fbe5760008155600101611055565b60405180604001604052806002905b60608152602001906001900390816110785790505090565b82805461109c906114f9565b90600052602060002090601f0160209004810192826110be5760008555610fb2565b82601f106110d757805160ff1916838001178555610fb2565b82800160010185558215610fb2579182015b82811115610fb25782518255916020019190600101906110e9565b80821115610fbe5760006111188282611121565b50600101611104565b50805461112d906114f9565b6000825580601f1061113d575050565b601f01602090049060005260206000209081019061115b9190611054565b50565b60006020828403121561117057600080fd5b5035919050565b6000806040838503121561118a57600080fd5b823591506020830135600281106111a057600080fd5b809150509250929050565b6000602082840312156111bd57600080fd5b81356001600160a01b03811681146111d457600080fd5b9392505050565b60408101818360005b60028110156112035781518352602092830192909101906001016111e4565b50505092915050565b60005b8381101561122757818101518382015260200161120f565b83811115611236576000848401525b50505050565b6000815180845261125481602086016020860161120c565b601f01601f19169290920160200192915050565b6020815260006111d4602083018461123c565b803560ff8116811461128c57600080fd5b919050565b600080600080600060a086880312156112a957600080fd5b853594506112b96020870161127b565b93506112c76040870161127b565b92506112d56060870161127b565b91506112e36080870161127b565b90509295509295909350565b60008083601f84011261130157600080fd5b50813567ffffffffffffffff81111561131957600080fd5b60208301915083602082850101111561133157600080fd5b9250929050565b6000806000806040858703121561134e57600080fd5b843567ffffffffffffffff8082111561136657600080fd5b611372888389016112ef565b9096509450602087013591508082111561138b57600080fd5b50611398878288016112ef565b95989497509550505050565b8060005b600281101561123657815160ff168452602093840193909101906001016113a8565b6020808252825182820152828101516001600160a01b031660408084019190915283015161010060608401819052600092916101608501916101208601855b60028110156114395761011f1988860301825261142785855161123c565b94509285019290850190600101611409565b50506060870151935061144f60808701856113a4565b6080870151935061146360c08701856113a4565b60a0870151801515878301529350509095945050505050565b634e487b7160e01b600052603260045260246000fd5b634e487b7160e01b600052602160045260246000fd5b634e487b7160e01b600052601160045260246000fd5b600060ff821660ff8114156114d5576114d56114a8565b60010192915050565b60006000198214156114f2576114f26114a8565b5060010190565b600181811c9082168061150d57607f821691505b6020821081141561152e57634e487b7160e01b600052602260045260246000fd5b50919050565b60208082528254828201526001808401546001600160a01b0316604084015261010060608401819052600092916101608501916002906101208701828901875b848110156116295789870361011f19018352815460009080881c8882168061159d57607f821691505b8b82108114156115bb57634e487b7160e01b84526022600452602484fd5b818b5260208b018180156115d657600181146115e757611612565b60ff19851682528d82019550611612565b60008881526020902060005b8581101561160c57815484820152908d01908f016115f3565b83019650505b50939a505050938901935050908501908501611574565b505050600488015460ff80821660808a0152600891821c811660a08a015260058a015480821660c08b015290911c811660e089015260069098015490971615159690950195909552949350505050565b6000816000190483118215151615611693576116936114a8565b500290565b600082198211156116ab576116ab6114a8565b500190565b600086516116c2818460208b0161120c565b8651908301906116d6818360208b0161120c565b86519101906116e9818360208a0161120c565b85519101906116fc81836020890161120c565b845191019061170f81836020880161120c565b0197965050505050505056fea2646970667358221220b76af6ea366d56b5d00e6f74490158c50dd1ae742b48b2a010e34bfb0ea907ab64736f6c63430008090033",
			"opcodes": "PUSH1 0x80 PUSH1 0x40 MSTORE CALLVALUE DUP1 ISZERO PUSH2 0x10 JUMPI PUSH1 0x0 DUP1 REVERT JUMPDEST POP PUSH1 0x0 DUP1 SLOAD PUSH1 0x1 PUSH1 0x1 PUSH1 0xA0 SHL SUB NOT AND CALLER OR SWAP1 SSTORE PUSH2 0x1751 DUP1 PUSH2 0x32 PUSH1 0x0 CODECOPY PUSH1 0x0 RETURN INVALID PUSH1 0x80 PUSH1 0x40 MSTORE CALLVALUE DUP1 ISZERO PUSH2 0x10 JUMPI PUSH1 0x0 DUP1 REVERT JUMPDEST POP PUSH1 0x4 CALLDATASIZE LT PUSH2 0x9E JUMPI PUSH1 0x0 CALLDATALOAD PUSH1 0xE0 SHR DUP1 PUSH4 0xAEEA9EB1 GT PUSH2 0x66 JUMPI DUP1 PUSH4 0xAEEA9EB1 EQ PUSH2 0x16C JUMPI DUP1 PUSH4 0xDA424D8A EQ PUSH2 0x195 JUMPI DUP1 PUSH4 0xDF472D67 EQ PUSH2 0x1A8 JUMPI DUP1 PUSH4 0xE258C02C EQ PUSH2 0x1C8 JUMPI DUP1 PUSH4 0xFE0B7EDE EQ PUSH2 0x1DB JUMPI PUSH1 0x0 DUP1 REVERT JUMPDEST DUP1 PUSH4 0x117A5B90 EQ PUSH2 0xA3 JUMPI DUP1 PUSH4 0x1552922C EQ PUSH2 0xE0 JUMPI DUP1 PUSH4 0x3F19D043 EQ PUSH2 0xF5 JUMPI DUP1 PUSH4 0x4F72D12A EQ PUSH2 0x12C JUMPI DUP1 PUSH4 0x6F75C3C6 EQ PUSH2 0x14C JUMPI JUMPDEST PUSH1 0x0 DUP1 REVERT JUMPDEST PUSH2 0xB6 PUSH2 0xB1 CALLDATASIZE PUSH1 0x4 PUSH2 0x115E JUMP JUMPDEST PUSH2 0x1EE JUMP JUMPDEST PUSH1 0x40 DUP1 MLOAD SWAP4 DUP5 MSTORE PUSH1 0x1 PUSH1 0x1 PUSH1 0xA0 SHL SUB SWAP1 SWAP3 AND PUSH1 0x20 DUP5 ADD MSTORE ISZERO ISZERO SWAP1 DUP3 ADD MSTORE PUSH1 0x60 ADD JUMPDEST PUSH1 0x40 MLOAD DUP1 SWAP2 SUB SWAP1 RETURN JUMPDEST PUSH2 0xF3 PUSH2 0xEE CALLDATASIZE PUSH1 0x4 PUSH2 0x1177 JUMP JUMPDEST PUSH2 0x230 JUMP JUMPDEST STOP JUMPDEST PUSH2 0x11E PUSH2 0x103 CALLDATASIZE PUSH1 0x4 PUSH2 0x11AB JUMP JUMPDEST PUSH1 0x1 PUSH1 0x1 PUSH1 0xA0 SHL SUB AND PUSH1 0x0 SWAP1 DUP2 MSTORE PUSH1 0x3 PUSH1 0x20 MSTORE PUSH1 0x40 SWAP1 KECCAK256 SLOAD SWAP1 JUMP JUMPDEST PUSH1 0x40 MLOAD SWAP1 DUP2 MSTORE PUSH1 0x20 ADD PUSH2 0xD7 JUMP JUMPDEST PUSH2 0x13F PUSH2 0x13A CALLDATASIZE PUSH1 0x4 PUSH2 0x115E JUMP JUMPDEST PUSH2 0x38A JUMP JUMPDEST PUSH1 0x40 MLOAD PUSH2 0xD7 SWAP2 SWAP1 PUSH2 0x11DB JUMP JUMPDEST PUSH2 0x15F PUSH2 0x15A CALLDATASIZE PUSH1 0x4 PUSH2 0x115E JUMP JUMPDEST PUSH2 0x447 JUMP JUMPDEST PUSH1 0x40 MLOAD PUSH2 0xD7 SWAP2 SWAP1 PUSH2 0x1268 JUMP JUMPDEST PUSH2 0x11E PUSH2 0x17A CALLDATASIZE PUSH1 0x4 PUSH2 0x11AB JUMP JUMPDEST PUSH1 0x1 PUSH1 0x1 PUSH1 0xA0 SHL SUB AND PUSH1 0x0 SWAP1 DUP2 MSTORE PUSH1 0x5 PUSH1 0x20 MSTORE PUSH1 0x40 SWAP1 KECCAK256 SLOAD SWAP1 JUMP JUMPDEST PUSH2 0xF3 PUSH2 0x1A3 CALLDATASIZE PUSH1 0x4 PUSH2 0x1291 JUMP JUMPDEST PUSH2 0x6D6 JUMP JUMPDEST PUSH2 0x1BB PUSH2 0x1B6 CALLDATASIZE PUSH1 0x4 PUSH2 0x1338 JUMP JUMPDEST PUSH2 0x9A8 JUMP JUMPDEST PUSH1 0x40 MLOAD PUSH2 0xD7 SWAP2 SWAP1 PUSH2 0x13CA JUMP JUMPDEST PUSH2 0xF3 PUSH2 0x1D6 CALLDATASIZE PUSH1 0x4 PUSH2 0x115E JUMP JUMPDEST PUSH2 0xC35 JUMP JUMPDEST PUSH2 0xF3 PUSH2 0x1E9 CALLDATASIZE PUSH1 0x4 PUSH2 0x1177 JUMP JUMPDEST PUSH2 0xE8D JUMP JUMPDEST PUSH1 0x1 DUP2 DUP2 SLOAD DUP2 LT PUSH2 0x1FE JUMPI PUSH1 0x0 DUP1 REVERT JUMPDEST PUSH1 0x0 SWAP2 DUP3 MSTORE PUSH1 0x20 SWAP1 SWAP2 KECCAK256 PUSH1 0x7 SWAP1 SWAP2 MUL ADD DUP1 SLOAD PUSH1 0x1 DUP3 ADD SLOAD PUSH1 0x6 SWAP1 SWAP3 ADD SLOAD SWAP1 SWAP3 POP PUSH1 0x1 PUSH1 0x1 PUSH1 0xA0 SHL SUB SWAP1 SWAP2 AND SWAP1 PUSH1 0xFF AND DUP4 JUMP JUMPDEST PUSH1 0x0 PUSH1 0x1 DUP4 DUP2 SLOAD DUP2 LT PUSH2 0x245 JUMPI PUSH2 0x245 PUSH2 0x147C JUMP JUMPDEST PUSH1 0x0 SWAP2 DUP3 MSTORE PUSH1 0x20 SWAP1 SWAP2 KECCAK256 PUSH1 0x7 SWAP1 SWAP2 MUL ADD PUSH1 0x6 DUP2 ADD SLOAD SWAP1 SWAP2 POP PUSH1 0xFF AND ISZERO PUSH2 0x26A JUMPI PUSH1 0x0 DUP1 REVERT JUMPDEST PUSH1 0x0 DUP3 PUSH1 0x1 DUP2 GT ISZERO PUSH2 0x27E JUMPI PUSH2 0x27E PUSH2 0x1492 JUMP JUMPDEST EQ ISZERO PUSH2 0x2CE JUMPI PUSH1 0x4 DUP2 ADD PUSH1 0x1 JUMPDEST PUSH1 0x20 SWAP2 DUP3 DUP3 DIV ADD SWAP2 SWAP1 MOD DUP2 DUP2 SWAP1 SLOAD SWAP1 PUSH2 0x100 EXP SWAP1 DIV PUSH1 0xFF AND DUP1 SWAP3 SWAP2 SWAP1 PUSH2 0x2B0 SWAP1 PUSH2 0x14BE JUMP JUMPDEST SWAP2 SWAP1 PUSH2 0x100 EXP DUP2 SLOAD DUP2 PUSH1 0xFF MUL NOT AND SWAP1 DUP4 PUSH1 0xFF AND MUL OR SWAP1 SSTORE POP POP PUSH2 0x32E JUMP JUMPDEST PUSH1 0x1 DUP3 PUSH1 0x1 DUP2 GT ISZERO PUSH2 0x2E2 JUMPI PUSH2 0x2E2 PUSH2 0x1492 JUMP JUMPDEST EQ ISZERO PUSH2 0x32E JUMPI PUSH1 0x5 DUP2 ADD PUSH1 0x1 JUMPDEST PUSH1 0x20 SWAP2 DUP3 DUP3 DIV ADD SWAP2 SWAP1 MOD DUP2 DUP2 SWAP1 SLOAD SWAP1 PUSH2 0x100 EXP SWAP1 DIV PUSH1 0xFF AND DUP1 SWAP3 SWAP2 SWAP1 PUSH2 0x314 SWAP1 PUSH2 0x14BE JUMP JUMPDEST SWAP2 SWAP1 PUSH2 0x100 EXP DUP2 SLOAD DUP2 PUSH1 0xFF MUL NOT AND SWAP1 DUP4 PUSH1 0xFF AND MUL OR SWAP1 SSTORE POP POP JUMPDEST CALLER PUSH1 0x0 SWAP1 DUP2 MSTORE PUSH1 0x3 PUSH1 0x20 MSTORE PUSH1 0x40 DUP2 KECCAK256 DUP1 SLOAD SWAP2 PUSH2 0x349 DUP4 PUSH2 0x14DE JUMP JUMPDEST SWAP2 SWAP1 POP SSTORE POP PUSH32 0xA05181D857066C04504026D4BB187A8386F4E6D20B4437E50FABCDF106769E3 DUP2 PUSH1 0x40 MLOAD PUSH2 0x37D SWAP2 SWAP1 PUSH2 0x1534 JUMP JUMPDEST PUSH1 0x40 MLOAD DUP1 SWAP2 SUB SWAP1 LOG1 POP POP POP JUMP JUMPDEST PUSH2 0x392 PUSH2 0xF11 JUMP JUMPDEST PUSH1 0x0 PUSH1 0x1 DUP4 DUP2 SLOAD DUP2 LT PUSH2 0x3A7 JUMPI PUSH2 0x3A7 PUSH2 0x147C JUMP JUMPDEST PUSH1 0x0 SWAP2 DUP3 MSTORE PUSH1 0x20 DUP3 KECCAK256 PUSH1 0x7 SWAP2 SWAP1 SWAP2 MUL ADD PUSH1 0x4 DUP2 ADD SLOAD SWAP1 SWAP3 POP DUP2 SWAP1 PUSH2 0x3D5 SWAP1 PUSH1 0x1 SWAP1 PUSH2 0x100 SWAP1 DIV PUSH1 0xFF AND PUSH2 0x1679 JUMP JUMPDEST PUSH1 0x4 DUP5 ADD SLOAD PUSH2 0x3E9 SWAP1 PUSH1 0x6 SWAP1 PUSH1 0xFF AND PUSH2 0x1679 JUMP JUMPDEST PUSH2 0x3F3 SWAP2 SWAP1 PUSH2 0x1698 JUMP JUMPDEST PUSH1 0x5 DUP5 ADD SLOAD SWAP1 SWAP3 POP PUSH2 0x40F SWAP1 PUSH1 0x1 SWAP1 PUSH2 0x100 SWAP1 DIV PUSH1 0xFF AND PUSH2 0x1679 JUMP JUMPDEST PUSH1 0x5 DUP5 ADD SLOAD PUSH2 0x423 SWAP1 PUSH1 0x6 SWAP1 PUSH1 0xFF AND PUSH2 0x1679 JUMP JUMPDEST PUSH2 0x42D SWAP2 SWAP1 PUSH2 0x1698 JUMP JUMPDEST PUSH1 0x40 DUP1 MLOAD DUP1 DUP3 ADD SWAP1 SWAP2 MSTORE SWAP3 DUP4 MSTORE PUSH1 0x20 DUP4 ADD MSTORE POP SWAP4 SWAP3 POP POP POP JUMP JUMPDEST PUSH1 0x60 PUSH1 0x0 PUSH1 0x1 DUP4 DUP2 SLOAD DUP2 LT PUSH2 0x45E JUMPI PUSH2 0x45E PUSH2 0x147C JUMP JUMPDEST PUSH1 0x0 SWAP2 DUP3 MSTORE PUSH1 0x20 DUP1 DUP4 KECCAK256 PUSH1 0x40 DUP1 MLOAD PUSH1 0xC0 DUP2 ADD DUP3 MSTORE PUSH1 0x7 SWAP1 SWAP5 MUL SWAP1 SWAP2 ADD DUP1 SLOAD DUP5 MSTORE PUSH1 0x1 DUP2 ADD SLOAD PUSH1 0x1 PUSH1 0x1 PUSH1 0xA0 SHL SUB AND SWAP3 DUP5 ADD SWAP3 SWAP1 SWAP3 MSTORE DUP1 MLOAD DUP1 DUP3 ADD DUP3 MSTORE SWAP3 SWAP4 SWAP2 SWAP3 SWAP1 DUP5 ADD SWAP2 PUSH1 0x2 DUP1 DUP6 ADD SWAP2 DUP4 JUMPDEST DUP3 DUP3 LT ISZERO PUSH2 0x54D JUMPI DUP4 DUP3 ADD DUP1 SLOAD PUSH2 0x4C0 SWAP1 PUSH2 0x14F9 JUMP JUMPDEST DUP1 PUSH1 0x1F ADD PUSH1 0x20 DUP1 SWAP2 DIV MUL PUSH1 0x20 ADD PUSH1 0x40 MLOAD SWAP1 DUP2 ADD PUSH1 0x40 MSTORE DUP1 SWAP3 SWAP2 SWAP1 DUP2 DUP2 MSTORE PUSH1 0x20 ADD DUP3 DUP1 SLOAD PUSH2 0x4EC SWAP1 PUSH2 0x14F9 JUMP JUMPDEST DUP1 ISZERO PUSH2 0x539 JUMPI DUP1 PUSH1 0x1F LT PUSH2 0x50E JUMPI PUSH2 0x100 DUP1 DUP4 SLOAD DIV MUL DUP4 MSTORE SWAP2 PUSH1 0x20 ADD SWAP2 PUSH2 0x539 JUMP JUMPDEST DUP3 ADD SWAP2 SWAP1 PUSH1 0x0 MSTORE PUSH1 0x20 PUSH1 0x0 KECCAK256 SWAP1 JUMPDEST DUP2 SLOAD DUP2 MSTORE SWAP1 PUSH1 0x1 ADD SWAP1 PUSH1 0x20 ADD DUP1 DUP4 GT PUSH2 0x51C JUMPI DUP3 SWAP1 SUB PUSH1 0x1F AND DUP3 ADD SWAP2 JUMPDEST POP POP POP POP POP DUP2 MSTORE PUSH1 0x20 ADD SWAP1 PUSH1 0x1 ADD SWAP1 PUSH2 0x4AA JUMP JUMPDEST POP POP POP SWAP1 DUP3 MSTORE POP PUSH1 0x40 DUP1 MLOAD DUP1 DUP3 ADD SWAP2 DUP3 SWAP1 MSTORE PUSH1 0x20 SWAP1 SWAP3 ADD SWAP2 SWAP1 PUSH1 0x4 DUP5 ADD SWAP1 PUSH1 0x2 SWAP1 DUP3 PUSH1 0x0 DUP6 JUMPDEST DUP3 SLOAD PUSH2 0x100 DUP4 SWAP1 EXP SWAP1 DIV PUSH1 0xFF AND DUP2 MSTORE PUSH1 0x20 PUSH1 0x1 SWAP3 DUP4 ADD DUP2 DUP2 DIV SWAP5 DUP6 ADD SWAP5 SWAP1 SWAP4 SUB SWAP1 SWAP3 MUL SWAP2 ADD DUP1 DUP5 GT PUSH2 0x573 JUMPI POP POP POP SWAP3 DUP5 MSTORE POP POP PUSH1 0x40 DUP1 MLOAD DUP1 DUP3 ADD SWAP2 DUP3 SWAP1 MSTORE PUSH1 0x20 SWAP1 SWAP4 ADD SWAP3 SWAP2 POP PUSH1 0x5 DUP5 ADD SWAP1 PUSH1 0x2 SWAP1 DUP3 PUSH1 0x0 DUP6 JUMPDEST DUP3 SLOAD PUSH2 0x100 DUP4 SWAP1 EXP SWAP1 DIV PUSH1 0xFF AND DUP2 MSTORE PUSH1 0x20 PUSH1 0x1 SWAP3 DUP4 ADD DUP2 DUP2 DIV SWAP5 DUP6 ADD SWAP5 SWAP1 SWAP4 SUB SWAP1 SWAP3 MUL SWAP2 ADD DUP1 DUP5 GT PUSH2 0x5C7 JUMPI SWAP1 POP POP POP POP SWAP2 DUP4 MSTORE POP POP PUSH1 0x6 SWAP2 SWAP1 SWAP2 ADD SLOAD PUSH1 0xFF AND ISZERO ISZERO PUSH1 0x20 SWAP1 SWAP2 ADD MSTORE PUSH1 0xA0 DUP2 ADD MLOAD SWAP1 SWAP2 POP PUSH1 0x60 SWAP1 ISZERO ISZERO PUSH1 0x1 EQ ISZERO PUSH2 0x64C JUMPI POP PUSH1 0x40 DUP1 MLOAD DUP1 DUP3 ADD SWAP1 SWAP2 MSTORE PUSH1 0xB DUP2 MSTORE PUSH11 0x46696E616C2053636F7265 PUSH1 0xA8 SHL PUSH1 0x20 DUP3 ADD MSTORE PUSH2 0x66C JUMP JUMPDEST POP PUSH1 0x40 DUP1 MLOAD DUP1 DUP3 ADD SWAP1 SWAP2 MSTORE PUSH1 0x7 DUP2 MSTORE PUSH7 0x4F6E676F696E67 PUSH1 0xC8 SHL PUSH1 0x20 DUP3 ADD MSTORE JUMPDEST PUSH1 0x40 DUP3 DUP2 ADD DUP1 MLOAD MLOAD DUP3 MLOAD DUP1 DUP5 ADD DUP5 MSTORE PUSH1 0x4 DUP2 MSTORE PUSH4 0x103B399 PUSH1 0xE5 SHL PUSH1 0x20 DUP1 DUP4 ADD SWAP2 SWAP1 SWAP2 MSTORE SWAP3 MLOAD DUP4 ADD MLOAD DUP5 MLOAD DUP1 DUP7 ADD DUP7 MSTORE PUSH1 0x2 DUP2 MSTORE PUSH2 0x1D1 PUSH1 0xF5 SHL DUP2 DUP7 ADD MSTORE SWAP5 MLOAD PUSH2 0x6BE SWAP6 SWAP4 SWAP5 SWAP3 SWAP4 SWAP2 SWAP3 DUP8 SWAP2 ADD PUSH2 0x16B0 JUMP JUMPDEST PUSH1 0x40 MLOAD PUSH1 0x20 DUP2 DUP4 SUB SUB DUP2 MSTORE SWAP1 PUSH1 0x40 MSTORE SWAP3 POP POP POP SWAP2 SWAP1 POP JUMP JUMPDEST PUSH1 0x1 DUP6 DUP2 SLOAD DUP2 LT PUSH2 0x6E9 JUMPI PUSH2 0x6E9 PUSH2 0x147C JUMP JUMPDEST PUSH1 0x0 SWAP2 DUP3 MSTORE PUSH1 0x20 DUP1 DUP4 KECCAK256 PUSH1 0x40 DUP1 MLOAD PUSH1 0xC0 DUP2 ADD DUP3 MSTORE PUSH1 0x7 SWAP1 SWAP5 MUL SWAP1 SWAP2 ADD DUP1 SLOAD DUP5 MSTORE PUSH1 0x1 DUP2 ADD SLOAD PUSH1 0x1 PUSH1 0x1 PUSH1 0xA0 SHL SUB AND SWAP3 DUP5 ADD SWAP3 SWAP1 SWAP3 MSTORE DUP1 MLOAD DUP1 DUP3 ADD DUP3 MSTORE SWAP3 SWAP4 SWAP2 SWAP3 SWAP1 DUP5 ADD SWAP2 PUSH1 0x2 DUP1 DUP6 ADD SWAP2 DUP4 JUMPDEST DUP3 DUP3 LT ISZERO PUSH2 0x7D8 JUMPI DUP4 DUP3 ADD DUP1 SLOAD PUSH2 0x74B SWAP1 PUSH2 0x14F9 JUMP JUMPDEST DUP1 PUSH1 0x1F ADD PUSH1 0x20 DUP1 SWAP2 DIV MUL PUSH1 0x20 ADD PUSH1 0x40 MLOAD SWAP1 DUP2 ADD PUSH1 0x40 MSTORE DUP1 SWAP3 SWAP2 SWAP1 DUP2 DUP2 MSTORE PUSH1 0x20 ADD DUP3 DUP1 SLOAD PUSH2 0x777 SWAP1 PUSH2 0x14F9 JUMP JUMPDEST DUP1 ISZERO PUSH2 0x7C4 JUMPI DUP1 PUSH1 0x1F LT PUSH2 0x799 JUMPI PUSH2 0x100 DUP1 DUP4 SLOAD DIV MUL DUP4 MSTORE SWAP2 PUSH1 0x20 ADD SWAP2 PUSH2 0x7C4 JUMP JUMPDEST DUP3 ADD SWAP2 SWAP1 PUSH1 0x0 MSTORE PUSH1 0x20 PUSH1 0x0 KECCAK256 SWAP1 JUMPDEST DUP2 SLOAD DUP2 MSTORE SWAP1 PUSH1 0x1 ADD SWAP1 PUSH1 0x20 ADD DUP1 DUP4 GT PUSH2 0x7A7 JUMPI DUP3 SWAP1 SUB PUSH1 0x1F AND DUP3 ADD SWAP2 JUMPDEST POP POP POP POP POP DUP2 MSTORE PUSH1 0x20 ADD SWAP1 PUSH1 0x1 ADD SWAP1 PUSH2 0x735 JUMP JUMPDEST POP POP POP SWAP1 DUP3 MSTORE POP PUSH1 0x40 DUP1 MLOAD DUP1 DUP3 ADD SWAP2 DUP3 SWAP1 MSTORE PUSH1 0x20 SWAP1 SWAP3 ADD SWAP2 SWAP1 PUSH1 0x4 DUP5 ADD SWAP1 PUSH1 0x2 SWAP1 DUP3 PUSH1 0x0 DUP6 JUMPDEST DUP3 SLOAD PUSH2 0x100 DUP4 SWAP1 EXP SWAP1 DIV PUSH1 0xFF AND DUP2 MSTORE PUSH1 0x20 PUSH1 0x1 SWAP3 DUP4 ADD DUP2 DUP2 DIV SWAP5 DUP6 ADD SWAP5 SWAP1 SWAP4 SUB SWAP1 SWAP3 MUL SWAP2 ADD DUP1 DUP5 GT PUSH2 0x7FE JUMPI POP POP POP SWAP3 DUP5 MSTORE POP POP PUSH1 0x40 DUP1 MLOAD DUP1 DUP3 ADD SWAP2 DUP3 SWAP1 MSTORE PUSH1 0x20 SWAP1 SWAP4 ADD SWAP3 SWAP2 POP PUSH1 0x5 DUP5 ADD SWAP1 PUSH1 0x2 SWAP1 DUP3 PUSH1 0x0 DUP6 JUMPDEST DUP3 SLOAD PUSH2 0x100 DUP4 SWAP1 EXP SWAP1 DIV PUSH1 0xFF AND DUP2 MSTORE PUSH1 0x20 PUSH1 0x1 SWAP3 DUP4 ADD DUP2 DUP2 DIV SWAP5 DUP6 ADD SWAP5 SWAP1 SWAP4 SUB SWAP1 SWAP3 MUL SWAP2 ADD DUP1 DUP5 GT PUSH2 0x852 JUMPI SWAP1 POP POP POP POP SWAP2 DUP4 MSTORE POP POP PUSH1 0x6 SWAP2 SWAP1 SWAP2 ADD SLOAD PUSH1 0xFF AND ISZERO ISZERO PUSH1 0x20 SWAP2 DUP3 ADD MSTORE DUP2 ADD MLOAD PUSH1 0x1 PUSH1 0x1 PUSH1 0xA0 SHL SUB AND CALLER EQ DUP1 PUSH2 0x8BD JUMPI POP PUSH1 0x0 SLOAD PUSH1 0x1 PUSH1 0x1 PUSH1 0xA0 SHL SUB AND CALLER EQ JUMPDEST PUSH2 0x8C6 JUMPI PUSH1 0x0 DUP1 REVERT JUMPDEST PUSH1 0x0 PUSH1 0x1 DUP8 DUP2 SLOAD DUP2 LT PUSH2 0x8DB JUMPI PUSH2 0x8DB PUSH2 0x147C JUMP JUMPDEST SWAP1 PUSH1 0x0 MSTORE PUSH1 0x20 PUSH1 0x0 KECCAK256 SWAP1 PUSH1 0x7 MUL ADD SWAP1 POP PUSH1 0x40 MLOAD DUP1 PUSH1 0x40 ADD PUSH1 0x40 MSTORE DUP1 DUP8 PUSH1 0xFF AND PUSH1 0xFF AND DUP2 MSTORE PUSH1 0x20 ADD DUP7 PUSH1 0xFF AND PUSH1 0xFF AND DUP2 MSTORE POP DUP2 PUSH1 0x4 ADD SWAP1 PUSH1 0x2 PUSH2 0x91E SWAP3 SWAP2 SWAP1 PUSH2 0xF2F JUMP JUMPDEST POP PUSH1 0x40 DUP1 MLOAD DUP1 DUP3 ADD SWAP1 SWAP2 MSTORE PUSH1 0xFF DUP1 DUP7 AND DUP3 MSTORE DUP5 AND PUSH1 0x20 DUP3 ADD MSTORE PUSH2 0x947 SWAP1 PUSH1 0x5 DUP4 ADD SWAP1 PUSH1 0x2 PUSH2 0xF2F JUMP JUMPDEST POP CALLER PUSH1 0x0 SWAP1 DUP2 MSTORE PUSH1 0x3 PUSH1 0x20 MSTORE PUSH1 0x40 DUP2 KECCAK256 DUP1 SLOAD SWAP2 PUSH2 0x963 DUP4 PUSH2 0x14DE JUMP JUMPDEST SWAP2 SWAP1 POP SSTORE POP PUSH32 0xA05181D857066C04504026D4BB187A8386F4E6D20B4437E50FABCDF106769E3 DUP2 PUSH1 0x40 MLOAD PUSH2 0x997 SWAP2 SWAP1 PUSH2 0x1534 JUMP JUMPDEST PUSH1 0x40 MLOAD DUP1 SWAP2 SUB SWAP1 LOG1 POP POP POP POP POP POP POP JUMP JUMPDEST PUSH2 0x9B0 PUSH2 0xFC2 JUMP JUMPDEST PUSH2 0x9B8 PUSH2 0xFC2 JUMP JUMPDEST PUSH1 0x2 SLOAD DUP2 MSTORE CALLER PUSH1 0x20 DUP1 DUP4 ADD SWAP2 SWAP1 SWAP2 MSTORE PUSH1 0x40 DUP1 MLOAD PUSH1 0x1F DUP9 ADD DUP4 SWAP1 DIV DUP4 MUL DUP2 ADD DUP4 ADD SWAP1 SWAP2 MSTORE DUP7 DUP2 MSTORE SWAP1 DUP8 SWAP1 DUP8 SWAP1 DUP2 SWAP1 DUP5 ADD DUP4 DUP3 DUP1 DUP3 DUP5 CALLDATACOPY PUSH1 0x0 SWAP3 ADD DUP3 SWAP1 MSTORE POP PUSH1 0x40 DUP7 ADD MLOAD SWAP4 POP SWAP2 POP PUSH2 0xA05 SWAP1 POP JUMP JUMPDEST PUSH1 0x20 MUL ADD DUP2 SWAP1 MSTORE POP DUP4 DUP4 DUP1 DUP1 PUSH1 0x1F ADD PUSH1 0x20 DUP1 SWAP2 DIV MUL PUSH1 0x20 ADD PUSH1 0x40 MLOAD SWAP1 DUP2 ADD PUSH1 0x40 MSTORE DUP1 SWAP4 SWAP3 SWAP2 SWAP1 DUP2 DUP2 MSTORE PUSH1 0x20 ADD DUP4 DUP4 DUP1 DUP3 DUP5 CALLDATACOPY PUSH1 0x0 SWAP3 ADD DUP3 SWAP1 MSTORE POP PUSH1 0x40 DUP7 DUP2 ADD DUP1 MLOAD PUSH1 0x20 SWAP1 DUP2 ADD SWAP8 SWAP1 SWAP8 MSTORE DUP2 MLOAD DUP1 DUP4 ADD DUP4 MSTORE DUP4 DUP2 MSTORE DUP1 DUP9 ADD DUP5 SWAP1 MSTORE PUSH1 0x60 DUP10 ADD MSTORE DUP2 MLOAD DUP1 DUP4 ADD SWAP1 SWAP3 MSTORE DUP3 DUP3 MSTORE DUP2 DUP8 ADD DUP4 SWAP1 MSTORE PUSH1 0x80 DUP9 ADD SWAP2 SWAP1 SWAP2 MSTORE PUSH1 0xA0 DUP8 ADD DUP3 SWAP1 MSTORE PUSH1 0x1 DUP1 SLOAD DUP1 DUP3 ADD DUP3 SSTORE SWAP3 MSTORE DUP7 MLOAD PUSH32 0xB10E2D527612073B26EECDFD717E6A320CF44B4AFAC2B0732D9FCBE2B7FA0CF6 PUSH1 0x7 SWAP1 SWAP4 MUL SWAP3 DUP4 ADD SWAP1 DUP2 SSTORE SWAP6 DUP8 ADD MLOAD PUSH32 0xB10E2D527612073B26EECDFD717E6A320CF44B4AFAC2B0732D9FCBE2B7FA0CF7 DUP4 ADD DUP1 SLOAD PUSH1 0x1 PUSH1 0x1 PUSH1 0xA0 SHL SUB NOT AND PUSH1 0x1 PUSH1 0x1 PUSH1 0xA0 SHL SUB SWAP1 SWAP3 AND SWAP2 SWAP1 SWAP2 OR SWAP1 SSTORE MLOAD DUP7 SWAP6 SWAP5 POP PUSH2 0xB38 SWAP4 POP PUSH32 0xB10E2D527612073B26EECDFD717E6A320CF44B4AFAC2B0732D9FCBE2B7FA0CF8 SWAP1 SWAP2 ADD SWAP2 POP PUSH1 0x2 PUSH2 0x1008 JUMP JUMPDEST POP PUSH1 0x60 DUP3 ADD MLOAD PUSH2 0xB4E SWAP1 PUSH1 0x4 DUP4 ADD SWAP1 PUSH1 0x2 PUSH2 0xF2F JUMP JUMPDEST POP PUSH1 0x80 DUP3 ADD MLOAD PUSH2 0xB64 SWAP1 PUSH1 0x5 DUP4 ADD SWAP1 PUSH1 0x2 PUSH2 0xF2F JUMP JUMPDEST POP PUSH1 0xA0 SWAP2 SWAP1 SWAP2 ADD MLOAD PUSH1 0x6 SWAP1 SWAP2 ADD DUP1 SLOAD PUSH1 0xFF NOT AND SWAP2 ISZERO ISZERO SWAP2 SWAP1 SWAP2 OR SWAP1 SSTORE PUSH1 0x2 DUP1 SLOAD SWAP1 PUSH1 0x0 PUSH2 0xB90 DUP4 PUSH2 0x14DE JUMP JUMPDEST SWAP1 SWAP2 SSTORE POP POP DUP1 MLOAD PUSH1 0x0 SWAP1 DUP2 MSTORE PUSH1 0x4 PUSH1 0x20 SWAP1 DUP2 MSTORE PUSH1 0x40 DUP1 DUP4 KECCAK256 DUP1 SLOAD PUSH1 0x1 PUSH1 0x1 PUSH1 0xA0 SHL SUB NOT AND CALLER SWAP1 DUP2 OR SWAP1 SWAP2 SSTORE DUP4 MSTORE PUSH1 0x5 SWAP1 SWAP2 MSTORE DUP2 KECCAK256 DUP1 SLOAD SWAP2 PUSH2 0xBD0 DUP4 PUSH2 0x14DE JUMP JUMPDEST SWAP1 SWAP2 SSTORE POP POP CALLER PUSH1 0x0 SWAP1 DUP2 MSTORE PUSH1 0x3 PUSH1 0x20 MSTORE PUSH1 0x40 DUP2 KECCAK256 DUP1 SLOAD SWAP2 PUSH2 0xBF0 DUP4 PUSH2 0x14DE JUMP JUMPDEST SWAP2 SWAP1 POP SSTORE POP PUSH32 0x81F7BB6AC8C26BF3590ED3B94651A1E68B4E42DA27BC4971C2F62617DA8B631A DUP2 PUSH1 0x40 MLOAD PUSH2 0xC24 SWAP2 SWAP1 PUSH2 0x13CA JUMP JUMPDEST PUSH1 0x40 MLOAD DUP1 SWAP2 SUB SWAP1 LOG1 SWAP6 SWAP5 POP POP POP POP POP JUMP JUMPDEST PUSH1 0x1 DUP2 DUP2 SLOAD DUP2 LT PUSH2 0xC48 JUMPI PUSH2 0xC48 PUSH2 0x147C JUMP JUMPDEST PUSH1 0x0 SWAP2 DUP3 MSTORE PUSH1 0x20 DUP1 DUP4 KECCAK256 PUSH1 0x40 DUP1 MLOAD PUSH1 0xC0 DUP2 ADD DUP3 MSTORE PUSH1 0x7 SWAP1 SWAP5 MUL SWAP1 SWAP2 ADD DUP1 SLOAD DUP5 MSTORE PUSH1 0x1 DUP2 ADD SLOAD PUSH1 0x1 PUSH1 0x1 PUSH1 0xA0 SHL SUB AND SWAP3 DUP5 ADD SWAP3 SWAP1 SWAP3 MSTORE DUP1 MLOAD DUP1 DUP3 ADD DUP3 MSTORE SWAP3 SWAP4 SWAP2 SWAP3 SWAP1 DUP5 ADD SWAP2 PUSH1 0x2 DUP1 DUP6 ADD SWAP2 DUP4 JUMPDEST DUP3 DUP3 LT ISZERO PUSH2 0xD37 JUMPI DUP4 DUP3 ADD DUP1 SLOAD PUSH2 0xCAA SWAP1 PUSH2 0x14F9 JUMP JUMPDEST DUP1 PUSH1 0x1F ADD PUSH1 0x20 DUP1 SWAP2 DIV MUL PUSH1 0x20 ADD PUSH1 0x40 MLOAD SWAP1 DUP2 ADD PUSH1 0x40 MSTORE DUP1 SWAP3 SWAP2 SWAP1 DUP2 DUP2 MSTORE PUSH1 0x20 ADD DUP3 DUP1 SLOAD PUSH2 0xCD6 SWAP1 PUSH2 0x14F9 JUMP JUMPDEST DUP1 ISZERO PUSH2 0xD23 JUMPI DUP1 PUSH1 0x1F LT PUSH2 0xCF8 JUMPI PUSH2 0x100 DUP1 DUP4 SLOAD DIV MUL DUP4 MSTORE SWAP2 PUSH1 0x20 ADD SWAP2 PUSH2 0xD23 JUMP JUMPDEST DUP3 ADD SWAP2 SWAP1 PUSH1 0x0 MSTORE PUSH1 0x20 PUSH1 0x0 KECCAK256 SWAP1 JUMPDEST DUP2 SLOAD DUP2 MSTORE SWAP1 PUSH1 0x1 ADD SWAP1 PUSH1 0x20 ADD DUP1 DUP4 GT PUSH2 0xD06 JUMPI DUP3 SWAP1 SUB PUSH1 0x1F AND DUP3 ADD SWAP2 JUMPDEST POP POP POP POP POP DUP2 MSTORE PUSH1 0x20 ADD SWAP1 PUSH1 0x1 ADD SWAP1 PUSH2 0xC94 JUMP JUMPDEST POP POP POP SWAP1 DUP3 MSTORE POP PUSH1 0x40 DUP1 MLOAD DUP1 DUP3 ADD SWAP2 DUP3 SWAP1 MSTORE PUSH1 0x20 SWAP1 SWAP3 ADD SWAP2 SWAP1 PUSH1 0x4 DUP5 ADD SWAP1 PUSH1 0x2 SWAP1 DUP3 PUSH1 0x0 DUP6 JUMPDEST DUP3 SLOAD PUSH2 0x100 DUP4 SWAP1 EXP SWAP1 DIV PUSH1 0xFF AND DUP2 MSTORE PUSH1 0x20 PUSH1 0x1 SWAP3 DUP4 ADD DUP2 DUP2 DIV SWAP5 DUP6 ADD SWAP5 SWAP1 SWAP4 SUB SWAP1 SWAP3 MUL SWAP2 ADD DUP1 DUP5 GT PUSH2 0xD5D JUMPI POP POP POP SWAP3 DUP5 MSTORE POP POP PUSH1 0x40 DUP1 MLOAD DUP1 DUP3 ADD SWAP2 DUP3 SWAP1 MSTORE PUSH1 0x20 SWAP1 SWAP4 ADD SWAP3 SWAP2 POP PUSH1 0x5 DUP5 ADD SWAP1 PUSH1 0x2 SWAP1 DUP3 PUSH1 0x0 DUP6 JUMPDEST DUP3 SLOAD PUSH2 0x100 DUP4 SWAP1 EXP SWAP1 DIV PUSH1 0xFF AND DUP2 MSTORE PUSH1 0x20 PUSH1 0x1 SWAP3 DUP4 ADD DUP2 DUP2 DIV SWAP5 DUP6 ADD SWAP5 SWAP1 SWAP4 SUB SWAP1 SWAP3 MUL SWAP2 ADD DUP1 DUP5 GT PUSH2 0xDB1 JUMPI SWAP1 POP POP POP POP SWAP2 DUP4 MSTORE POP POP PUSH1 0x6 SWAP2 SWAP1 SWAP2 ADD SLOAD PUSH1 0xFF AND ISZERO ISZERO PUSH1 0x20 SWAP2 DUP3 ADD MSTORE DUP2 ADD MLOAD PUSH1 0x1 PUSH1 0x1 PUSH1 0xA0 SHL SUB AND CALLER EQ DUP1 PUSH2 0xE1C JUMPI POP PUSH1 0x0 SLOAD PUSH1 0x1 PUSH1 0x1 PUSH1 0xA0 SHL SUB AND CALLER EQ JUMPDEST PUSH2 0xE25 JUMPI PUSH1 0x0 DUP1 REVERT JUMPDEST PUSH1 0x0 PUSH1 0x1 DUP4 DUP2 SLOAD DUP2 LT PUSH2 0xE3A JUMPI PUSH2 0xE3A PUSH2 0x147C JUMP JUMPDEST PUSH1 0x0 SWAP2 DUP3 MSTORE PUSH1 0x20 SWAP1 SWAP2 KECCAK256 PUSH1 0x6 PUSH1 0x7 SWAP1 SWAP3 MUL ADD SWAP1 DUP2 ADD DUP1 SLOAD PUSH1 0xFF NOT AND PUSH1 0x1 OR SWAP1 SSTORE PUSH1 0x40 MLOAD SWAP1 SWAP2 POP PUSH32 0x83828E89CD2D7BF8161B52806AFF7EB377E41D7FD8C1A5F9B960601207B85080 SWAP1 PUSH2 0x37D SWAP1 DUP4 SWAP1 PUSH2 0x1534 JUMP JUMPDEST PUSH1 0x0 PUSH1 0x1 DUP4 DUP2 SLOAD DUP2 LT PUSH2 0xEA2 JUMPI PUSH2 0xEA2 PUSH2 0x147C JUMP JUMPDEST PUSH1 0x0 SWAP2 DUP3 MSTORE PUSH1 0x20 SWAP1 SWAP2 KECCAK256 PUSH1 0x7 SWAP1 SWAP2 MUL ADD PUSH1 0x6 DUP2 ADD SLOAD SWAP1 SWAP2 POP PUSH1 0xFF AND ISZERO PUSH2 0xEC7 JUMPI PUSH1 0x0 DUP1 REVERT JUMPDEST PUSH1 0x0 DUP3 PUSH1 0x1 DUP2 GT ISZERO PUSH2 0xEDB JUMPI PUSH2 0xEDB PUSH2 0x1492 JUMP JUMPDEST EQ ISZERO PUSH2 0xEEC JUMPI PUSH1 0x4 DUP2 ADD PUSH1 0x0 PUSH2 0x28B JUMP JUMPDEST PUSH1 0x1 DUP3 PUSH1 0x1 DUP2 GT ISZERO PUSH2 0xF00 JUMPI PUSH2 0xF00 PUSH2 0x1492 JUMP JUMPDEST EQ ISZERO PUSH2 0x32E JUMPI PUSH1 0x5 DUP2 ADD PUSH1 0x0 PUSH2 0x2EF JUMP JUMPDEST PUSH1 0x40 MLOAD DUP1 PUSH1 0x40 ADD PUSH1 0x40 MSTORE DUP1 PUSH1 0x2 SWAP1 PUSH1 0x20 DUP3 MUL DUP1 CALLDATASIZE DUP4 CALLDATACOPY POP SWAP2 SWAP3 SWAP2 POP POP JUMP JUMPDEST PUSH1 0x1 DUP4 ADD SWAP2 DUP4 SWAP1 DUP3 ISZERO PUSH2 0xFB2 JUMPI SWAP2 PUSH1 0x20 MUL DUP3 ADD PUSH1 0x0 JUMPDEST DUP4 DUP3 GT ISZERO PUSH2 0xF83 JUMPI DUP4 MLOAD DUP4 DUP3 PUSH2 0x100 EXP DUP2 SLOAD DUP2 PUSH1 0xFF MUL NOT AND SWAP1 DUP4 PUSH1 0xFF AND MUL OR SWAP1 SSTORE POP SWAP3 PUSH1 0x20 ADD SWAP3 PUSH1 0x1 ADD PUSH1 0x20 DUP2 PUSH1 0x0 ADD DIV SWAP3 DUP4 ADD SWAP3 PUSH1 0x1 SUB MUL PUSH2 0xF45 JUMP JUMPDEST DUP1 ISZERO PUSH2 0xFB0 JUMPI DUP3 DUP2 PUSH2 0x100 EXP DUP2 SLOAD SWAP1 PUSH1 0xFF MUL NOT AND SWAP1 SSTORE PUSH1 0x1 ADD PUSH1 0x20 DUP2 PUSH1 0x0 ADD DIV SWAP3 DUP4 ADD SWAP3 PUSH1 0x1 SUB MUL PUSH2 0xF83 JUMP JUMPDEST POP JUMPDEST POP PUSH2 0xFBE SWAP3 SWAP2 POP PUSH2 0x1054 JUMP JUMPDEST POP SWAP1 JUMP JUMPDEST PUSH1 0x40 DUP1 MLOAD PUSH1 0xC0 DUP2 ADD DUP3 MSTORE PUSH1 0x0 DUP1 DUP3 MSTORE PUSH1 0x20 DUP3 ADD MSTORE SWAP1 DUP2 ADD PUSH2 0xFE1 PUSH2 0x1069 JUMP JUMPDEST DUP2 MSTORE PUSH1 0x20 ADD PUSH2 0xFEE PUSH2 0xF11 JUMP JUMPDEST DUP2 MSTORE PUSH1 0x20 ADD PUSH2 0xFFB PUSH2 0xF11 JUMP JUMPDEST DUP2 MSTORE PUSH1 0x0 PUSH1 0x20 SWAP1 SWAP2 ADD MSTORE SWAP1 JUMP JUMPDEST DUP3 PUSH1 0x2 DUP2 ADD SWAP3 DUP3 ISZERO PUSH2 0x1048 JUMPI SWAP2 PUSH1 0x20 MUL DUP3 ADD JUMPDEST DUP3 DUP2 GT ISZERO PUSH2 0x1048 JUMPI DUP3 MLOAD DUP1 MLOAD PUSH2 0x1038 SWAP2 DUP5 SWAP2 PUSH1 0x20 SWAP1 SWAP2 ADD SWAP1 PUSH2 0x1090 JUMP JUMPDEST POP SWAP2 PUSH1 0x20 ADD SWAP2 SWAP1 PUSH1 0x1 ADD SWAP1 PUSH2 0x101B JUMP JUMPDEST POP PUSH2 0xFBE SWAP3 SWAP2 POP PUSH2 0x1104 JUMP JUMPDEST JUMPDEST DUP1 DUP3 GT ISZERO PUSH2 0xFBE JUMPI PUSH1 0x0 DUP2 SSTORE PUSH1 0x1 ADD PUSH2 0x1055 JUMP JUMPDEST PUSH1 0x40 MLOAD DUP1 PUSH1 0x40 ADD PUSH1 0x40 MSTORE DUP1 PUSH1 0x2 SWAP1 JUMPDEST PUSH1 0x60 DUP2 MSTORE PUSH1 0x20 ADD SWAP1 PUSH1 0x1 SWAP1 SUB SWAP1 DUP2 PUSH2 0x1078 JUMPI SWAP1 POP POP SWAP1 JUMP JUMPDEST DUP3 DUP1 SLOAD PUSH2 0x109C SWAP1 PUSH2 0x14F9 JUMP JUMPDEST SWAP1 PUSH1 0x0 MSTORE PUSH1 0x20 PUSH1 0x0 KECCAK256 SWAP1 PUSH1 0x1F ADD PUSH1 0x20 SWAP1 DIV DUP2 ADD SWAP3 DUP3 PUSH2 0x10BE JUMPI PUSH1 0x0 DUP6 SSTORE PUSH2 0xFB2 JUMP JUMPDEST DUP3 PUSH1 0x1F LT PUSH2 0x10D7 JUMPI DUP1 MLOAD PUSH1 0xFF NOT AND DUP4 DUP1 ADD OR DUP6 SSTORE PUSH2 0xFB2 JUMP JUMPDEST DUP3 DUP1 ADD PUSH1 0x1 ADD DUP6 SSTORE DUP3 ISZERO PUSH2 0xFB2 JUMPI SWAP2 DUP3 ADD JUMPDEST DUP3 DUP2 GT ISZERO PUSH2 0xFB2 JUMPI DUP3 MLOAD DUP3 SSTORE SWAP2 PUSH1 0x20 ADD SWAP2 SWAP1 PUSH1 0x1 ADD SWAP1 PUSH2 0x10E9 JUMP JUMPDEST DUP1 DUP3 GT ISZERO PUSH2 0xFBE JUMPI PUSH1 0x0 PUSH2 0x1118 DUP3 DUP3 PUSH2 0x1121 JUMP JUMPDEST POP PUSH1 0x1 ADD PUSH2 0x1104 JUMP JUMPDEST POP DUP1 SLOAD PUSH2 0x112D SWAP1 PUSH2 0x14F9 JUMP JUMPDEST PUSH1 0x0 DUP3 SSTORE DUP1 PUSH1 0x1F LT PUSH2 0x113D JUMPI POP POP JUMP JUMPDEST PUSH1 0x1F ADD PUSH1 0x20 SWAP1 DIV SWAP1 PUSH1 0x0 MSTORE PUSH1 0x20 PUSH1 0x0 KECCAK256 SWAP1 DUP2 ADD SWAP1 PUSH2 0x115B SWAP2 SWAP1 PUSH2 0x1054 JUMP JUMPDEST POP JUMP JUMPDEST PUSH1 0x0 PUSH1 0x20 DUP3 DUP5 SUB SLT ISZERO PUSH2 0x1170 JUMPI PUSH1 0x0 DUP1 REVERT JUMPDEST POP CALLDATALOAD SWAP2 SWAP1 POP JUMP JUMPDEST PUSH1 0x0 DUP1 PUSH1 0x40 DUP4 DUP6 SUB SLT ISZERO PUSH2 0x118A JUMPI PUSH1 0x0 DUP1 REVERT JUMPDEST DUP3 CALLDATALOAD SWAP2 POP PUSH1 0x20 DUP4 ADD CALLDATALOAD PUSH1 0x2 DUP2 LT PUSH2 0x11A0 JUMPI PUSH1 0x0 DUP1 REVERT JUMPDEST DUP1 SWAP2 POP POP SWAP3 POP SWAP3 SWAP1 POP JUMP JUMPDEST PUSH1 0x0 PUSH1 0x20 DUP3 DUP5 SUB SLT ISZERO PUSH2 0x11BD JUMPI PUSH1 0x0 DUP1 REVERT JUMPDEST DUP2 CALLDATALOAD PUSH1 0x1 PUSH1 0x1 PUSH1 0xA0 SHL SUB DUP2 AND DUP2 EQ PUSH2 0x11D4 JUMPI PUSH1 0x0 DUP1 REVERT JUMPDEST SWAP4 SWAP3 POP POP POP JUMP JUMPDEST PUSH1 0x40 DUP2 ADD DUP2 DUP4 PUSH1 0x0 JUMPDEST PUSH1 0x2 DUP2 LT ISZERO PUSH2 0x1203 JUMPI DUP2 MLOAD DUP4 MSTORE PUSH1 0x20 SWAP3 DUP4 ADD SWAP3 SWAP1 SWAP2 ADD SWAP1 PUSH1 0x1 ADD PUSH2 0x11E4 JUMP JUMPDEST POP POP POP SWAP3 SWAP2 POP POP JUMP JUMPDEST PUSH1 0x0 JUMPDEST DUP4 DUP2 LT ISZERO PUSH2 0x1227 JUMPI DUP2 DUP2 ADD MLOAD DUP4 DUP3 ADD MSTORE PUSH1 0x20 ADD PUSH2 0x120F JUMP JUMPDEST DUP4 DUP2 GT ISZERO PUSH2 0x1236 JUMPI PUSH1 0x0 DUP5 DUP5 ADD MSTORE JUMPDEST POP POP POP POP JUMP JUMPDEST PUSH1 0x0 DUP2 MLOAD DUP1 DUP5 MSTORE PUSH2 0x1254 DUP2 PUSH1 0x20 DUP7 ADD PUSH1 0x20 DUP7 ADD PUSH2 0x120C JUMP JUMPDEST PUSH1 0x1F ADD PUSH1 0x1F NOT AND SWAP3 SWAP1 SWAP3 ADD PUSH1 0x20 ADD SWAP3 SWAP2 POP POP JUMP JUMPDEST PUSH1 0x20 DUP2 MSTORE PUSH1 0x0 PUSH2 0x11D4 PUSH1 0x20 DUP4 ADD DUP5 PUSH2 0x123C JUMP JUMPDEST DUP1 CALLDATALOAD PUSH1 0xFF DUP2 AND DUP2 EQ PUSH2 0x128C JUMPI PUSH1 0x0 DUP1 REVERT JUMPDEST SWAP2 SWAP1 POP JUMP JUMPDEST PUSH1 0x0 DUP1 PUSH1 0x0 DUP1 PUSH1 0x0 PUSH1 0xA0 DUP7 DUP9 SUB SLT ISZERO PUSH2 0x12A9 JUMPI PUSH1 0x0 DUP1 REVERT JUMPDEST DUP6 CALLDATALOAD SWAP5 POP PUSH2 0x12B9 PUSH1 0x20 DUP8 ADD PUSH2 0x127B JUMP JUMPDEST SWAP4 POP PUSH2 0x12C7 PUSH1 0x40 DUP8 ADD PUSH2 0x127B JUMP JUMPDEST SWAP3 POP PUSH2 0x12D5 PUSH1 0x60 DUP8 ADD PUSH2 0x127B JUMP JUMPDEST SWAP2 POP PUSH2 0x12E3 PUSH1 0x80 DUP8 ADD PUSH2 0x127B JUMP JUMPDEST SWAP1 POP SWAP3 SWAP6 POP SWAP3 SWAP6 SWAP1 SWAP4 POP JUMP JUMPDEST PUSH1 0x0 DUP1 DUP4 PUSH1 0x1F DUP5 ADD SLT PUSH2 0x1301 JUMPI PUSH1 0x0 DUP1 REVERT JUMPDEST POP DUP2 CALLDATALOAD PUSH8 0xFFFFFFFFFFFFFFFF DUP2 GT ISZERO PUSH2 0x1319 JUMPI PUSH1 0x0 DUP1 REVERT JUMPDEST PUSH1 0x20 DUP4 ADD SWAP2 POP DUP4 PUSH1 0x20 DUP3 DUP6 ADD ADD GT ISZERO PUSH2 0x1331 JUMPI PUSH1 0x0 DUP1 REVERT JUMPDEST SWAP3 POP SWAP3 SWAP1 POP JUMP JUMPDEST PUSH1 0x0 DUP1 PUSH1 0x0 DUP1 PUSH1 0x40 DUP6 DUP8 SUB SLT ISZERO PUSH2 0x134E JUMPI PUSH1 0x0 DUP1 REVERT JUMPDEST DUP5 CALLDATALOAD PUSH8 0xFFFFFFFFFFFFFFFF DUP1 DUP3 GT ISZERO PUSH2 0x1366 JUMPI PUSH1 0x0 DUP1 REVERT JUMPDEST PUSH2 0x1372 DUP9 DUP4 DUP10 ADD PUSH2 0x12EF JUMP JUMPDEST SWAP1 SWAP7 POP SWAP5 POP PUSH1 0x20 DUP8 ADD CALLDATALOAD SWAP2 POP DUP1 DUP3 GT ISZERO PUSH2 0x138B JUMPI PUSH1 0x0 DUP1 REVERT JUMPDEST POP PUSH2 0x1398 DUP8 DUP3 DUP9 ADD PUSH2 0x12EF JUMP JUMPDEST SWAP6 SWAP9 SWAP5 SWAP8 POP SWAP6 POP POP POP POP JUMP JUMPDEST DUP1 PUSH1 0x0 JUMPDEST PUSH1 0x2 DUP2 LT ISZERO PUSH2 0x1236 JUMPI DUP2 MLOAD PUSH1 0xFF AND DUP5 MSTORE PUSH1 0x20 SWAP4 DUP5 ADD SWAP4 SWAP1 SWAP2 ADD SWAP1 PUSH1 0x1 ADD PUSH2 0x13A8 JUMP JUMPDEST PUSH1 0x20 DUP1 DUP3 MSTORE DUP3 MLOAD DUP3 DUP3 ADD MSTORE DUP3 DUP2 ADD MLOAD PUSH1 0x1 PUSH1 0x1 PUSH1 0xA0 SHL SUB AND PUSH1 0x40 DUP1 DUP5 ADD SWAP2 SWAP1 SWAP2 MSTORE DUP4 ADD MLOAD PUSH2 0x100 PUSH1 0x60 DUP5 ADD DUP2 SWAP1 MSTORE PUSH1 0x0 SWAP3 SWAP2 PUSH2 0x160 DUP6 ADD SWAP2 PUSH2 0x120 DUP7 ADD DUP6 JUMPDEST PUSH1 0x2 DUP2 LT ISZERO PUSH2 0x1439 JUMPI PUSH2 0x11F NOT DUP9 DUP7 SUB ADD DUP3 MSTORE PUSH2 0x1427 DUP6 DUP6 MLOAD PUSH2 0x123C JUMP JUMPDEST SWAP5 POP SWAP3 DUP6 ADD SWAP3 SWAP1 DUP6 ADD SWAP1 PUSH1 0x1 ADD PUSH2 0x1409 JUMP JUMPDEST POP POP PUSH1 0x60 DUP8 ADD MLOAD SWAP4 POP PUSH2 0x144F PUSH1 0x80 DUP8 ADD DUP6 PUSH2 0x13A4 JUMP JUMPDEST PUSH1 0x80 DUP8 ADD MLOAD SWAP4 POP PUSH2 0x1463 PUSH1 0xC0 DUP8 ADD DUP6 PUSH2 0x13A4 JUMP JUMPDEST PUSH1 0xA0 DUP8 ADD MLOAD DUP1 ISZERO ISZERO DUP8 DUP4 ADD MSTORE SWAP4 POP POP SWAP1 SWAP6 SWAP5 POP POP POP POP POP JUMP JUMPDEST PUSH4 0x4E487B71 PUSH1 0xE0 SHL PUSH1 0x0 MSTORE PUSH1 0x32 PUSH1 0x4 MSTORE PUSH1 0x24 PUSH1 0x0 REVERT JUMPDEST PUSH4 0x4E487B71 PUSH1 0xE0 SHL PUSH1 0x0 MSTORE PUSH1 0x21 PUSH1 0x4 MSTORE PUSH1 0x24 PUSH1 0x0 REVERT JUMPDEST PUSH4 0x4E487B71 PUSH1 0xE0 SHL PUSH1 0x0 MSTORE PUSH1 0x11 PUSH1 0x4 MSTORE PUSH1 0x24 PUSH1 0x0 REVERT JUMPDEST PUSH1 0x0 PUSH1 0xFF DUP3 AND PUSH1 0xFF DUP2 EQ ISZERO PUSH2 0x14D5 JUMPI PUSH2 0x14D5 PUSH2 0x14A8 JUMP JUMPDEST PUSH1 0x1 ADD SWAP3 SWAP2 POP POP JUMP JUMPDEST PUSH1 0x0 PUSH1 0x0 NOT DUP3 EQ ISZERO PUSH2 0x14F2 JUMPI PUSH2 0x14F2 PUSH2 0x14A8 JUMP JUMPDEST POP PUSH1 0x1 ADD SWAP1 JUMP JUMPDEST PUSH1 0x1 DUP2 DUP2 SHR SWAP1 DUP3 AND DUP1 PUSH2 0x150D JUMPI PUSH1 0x7F DUP3 AND SWAP2 POP JUMPDEST PUSH1 0x20 DUP3 LT DUP2 EQ ISZERO PUSH2 0x152E JUMPI PUSH4 0x4E487B71 PUSH1 0xE0 SHL PUSH1 0x0 MSTORE PUSH1 0x22 PUSH1 0x4 MSTORE PUSH1 0x24 PUSH1 0x0 REVERT JUMPDEST POP SWAP2 SWAP1 POP JUMP JUMPDEST PUSH1 0x20 DUP1 DUP3 MSTORE DUP3 SLOAD DUP3 DUP3 ADD MSTORE PUSH1 0x1 DUP1 DUP5 ADD SLOAD PUSH1 0x1 PUSH1 0x1 PUSH1 0xA0 SHL SUB AND PUSH1 0x40 DUP5 ADD MSTORE PUSH2 0x100 PUSH1 0x60 DUP5 ADD DUP2 SWAP1 MSTORE PUSH1 0x0 SWAP3 SWAP2 PUSH2 0x160 DUP6 ADD SWAP2 PUSH1 0x2 SWAP1 PUSH2 0x120 DUP8 ADD DUP3 DUP10 ADD DUP8 JUMPDEST DUP5 DUP2 LT ISZERO PUSH2 0x1629 JUMPI DUP10 DUP8 SUB PUSH2 0x11F NOT ADD DUP4 MSTORE DUP2 SLOAD PUSH1 0x0 SWAP1 DUP1 DUP9 SHR DUP9 DUP3 AND DUP1 PUSH2 0x159D JUMPI PUSH1 0x7F DUP3 AND SWAP2 POP JUMPDEST DUP12 DUP3 LT DUP2 EQ ISZERO PUSH2 0x15BB JUMPI PUSH4 0x4E487B71 PUSH1 0xE0 SHL DUP5 MSTORE PUSH1 0x22 PUSH1 0x4 MSTORE PUSH1 0x24 DUP5 REVERT JUMPDEST DUP2 DUP12 MSTORE PUSH1 0x20 DUP12 ADD DUP2 DUP1 ISZERO PUSH2 0x15D6 JUMPI PUSH1 0x1 DUP2 EQ PUSH2 0x15E7 JUMPI PUSH2 0x1612 JUMP JUMPDEST PUSH1 0xFF NOT DUP6 AND DUP3 MSTORE DUP14 DUP3 ADD SWAP6 POP PUSH2 0x1612 JUMP JUMPDEST PUSH1 0x0 DUP9 DUP2 MSTORE PUSH1 0x20 SWAP1 KECCAK256 PUSH1 0x0 JUMPDEST DUP6 DUP2 LT ISZERO PUSH2 0x160C JUMPI DUP2 SLOAD DUP5 DUP3 ADD MSTORE SWAP1 DUP14 ADD SWAP1 DUP16 ADD PUSH2 0x15F3 JUMP JUMPDEST DUP4 ADD SWAP7 POP POP JUMPDEST POP SWAP4 SWAP11 POP POP POP SWAP4 DUP10 ADD SWAP4 POP POP SWAP1 DUP6 ADD SWAP1 DUP6 ADD PUSH2 0x1574 JUMP JUMPDEST POP POP POP PUSH1 0x4 DUP9 ADD SLOAD PUSH1 0xFF DUP1 DUP3 AND PUSH1 0x80 DUP11 ADD MSTORE PUSH1 0x8 SWAP2 DUP3 SHR DUP2 AND PUSH1 0xA0 DUP11 ADD MSTORE PUSH1 0x5 DUP11 ADD SLOAD DUP1 DUP3 AND PUSH1 0xC0 DUP12 ADD MSTORE SWAP1 SWAP2 SHR DUP2 AND PUSH1 0xE0 DUP10 ADD MSTORE PUSH1 0x6 SWAP1 SWAP9 ADD SLOAD SWAP1 SWAP8 AND ISZERO ISZERO SWAP7 SWAP1 SWAP6 ADD SWAP6 SWAP1 SWAP6 MSTORE SWAP5 SWAP4 POP POP POP POP JUMP JUMPDEST PUSH1 0x0 DUP2 PUSH1 0x0 NOT DIV DUP4 GT DUP3 ISZERO ISZERO AND ISZERO PUSH2 0x1693 JUMPI PUSH2 0x1693 PUSH2 0x14A8 JUMP JUMPDEST POP MUL SWAP1 JUMP JUMPDEST PUSH1 0x0 DUP3 NOT DUP3 GT ISZERO PUSH2 0x16AB JUMPI PUSH2 0x16AB PUSH2 0x14A8 JUMP JUMPDEST POP ADD SWAP1 JUMP JUMPDEST PUSH1 0x0 DUP7 MLOAD PUSH2 0x16C2 DUP2 DUP5 PUSH1 0x20 DUP12 ADD PUSH2 0x120C JUMP JUMPDEST DUP7 MLOAD SWAP1 DUP4 ADD SWAP1 PUSH2 0x16D6 DUP2 DUP4 PUSH1 0x20 DUP12 ADD PUSH2 0x120C JUMP JUMPDEST DUP7 MLOAD SWAP2 ADD SWAP1 PUSH2 0x16E9 DUP2 DUP4 PUSH1 0x20 DUP11 ADD PUSH2 0x120C JUMP JUMPDEST DUP6 MLOAD SWAP2 ADD SWAP1 PUSH2 0x16FC DUP2 DUP4 PUSH1 0x20 DUP10 ADD PUSH2 0x120C JUMP JUMPDEST DUP5 MLOAD SWAP2 ADD SWAP1 PUSH2 0x170F DUP2 DUP4 PUSH1 0x20 DUP9 ADD PUSH2 0x120C JUMP JUMPDEST ADD SWAP8 SWAP7 POP POP POP POP POP POP POP JUMP INVALID LOG2 PUSH5 0x6970667358 0x22 SLT KECCAK256 0xB7 PUSH11 0xF6EA366D56B5D00E6F7449 ADD PC 0xC5 0xD 0xD1 0xAE PUSH21 0x2B48B2A010E34BFB0EA907AB64736F6C6343000809 STOP CALLER "
		},
		"gasEstimates": {
			"creation": {
				"codeDepositCost": "1193800",
				"executionCost": "25476",
				"totalCost": "1219276"
			},
			"external": {
				"createGame(string,string)": "infinite",
				"finaliseScore(uint256)": "infinite",
				"games(uint256)": "8902",
				"getContributions(address)": "2547",
				"getGameContext(uint256)": "infinite",
				"getGameScore(uint256)": "infinite",
				"getGamesDeployed(address)": "2502",
				"incrementBehind(uint256,uint8)": "infinite",
				"incrementGoal(uint256,uint8)": "infinite",
				"setScore(uint256,uint8,uint8,uint8,uint8)": "infinite"
			}
		},
		"methodIdentifiers": {
			"createGame(string,string)": "df472d67",
			"finaliseScore(uint256)": "e258c02c",
			"games(uint256)": "117a5b90",
			"getContributions(address)": "3f19d043",
			"getGameContext(uint256)": "6f75c3c6",
			"getGameScore(uint256)": "4f72d12a",
			"getGamesDeployed(address)": "aeea9eb1",
			"incrementBehind(uint256,uint8)": "1552922c",
			"incrementGoal(uint256,uint8)": "fe0b7ede",
			"setScore(uint256,uint8,uint8,uint8,uint8)": "da424d8a"
		}
	},
	"abi": [
		{
			"anonymous": false,
			"inputs": [
				{
					"components": [
						{
							"internalType": "uint256",
							"name": "gameID",
							"type": "uint256"
						},
						{
							"internalType": "address",
							"name": "gameOwner",
							"type": "address"
						},
						{
							"internalType": "string[2]",
							"name": "teams",
							"type": "string[2]"
						},
						{
							"internalType": "uint8[2]",
							"name": "team1Score",
							"type": "uint8[2]"
						},
						{
							"internalType": "uint8[2]",
							"name": "team2Score",
							"type": "uint8[2]"
						},
						{
							"internalType": "bool",
							"name": "scoreFinalised",
							"type": "bool"
						}
					],
					"indexed": false,
					"internalType": "struct AflScoreTracker.Game",
					"name": "",
					"type": "tuple"
				}
			],
			"name": "gameCreated",
			"type": "event"
		},
		{
			"anonymous": false,
			"inputs": [
				{
					"components": [
						{
							"internalType": "uint256",
							"name": "gameID",
							"type": "uint256"
						},
						{
							"internalType": "address",
							"name": "gameOwner",
							"type": "address"
						},
						{
							"internalType": "string[2]",
							"name": "teams",
							"type": "string[2]"
						},
						{
							"internalType": "uint8[2]",
							"name": "team1Score",
							"type": "uint8[2]"
						},
						{
							"internalType": "uint8[2]",
							"name": "team2Score",
							"type": "uint8[2]"
						},
						{
							"internalType": "bool",
							"name": "scoreFinalised",
							"type": "bool"
						}
					],
					"indexed": false,
					"internalType": "struct AflScoreTracker.Game",
					"name": "",
					"type": "tuple"
				}
			],
			"name": "gameScoreFinalised",
			"type": "event"
		},
		{
			"anonymous": false,
			"inputs": [
				{
					"components": [
						{
							"internalType": "uint256",
							"name": "gameID",
							"type": "uint256"
						},
						{
							"internalType": "address",
							"name": "gameOwner",
							"type": "address"
						},
						{
							"internalType": "string[2]",
							"name": "teams",
							"type": "string[2]"
						},
						{
							"internalType": "uint8[2]",
							"name": "team1Score",
							"type": "uint8[2]"
						},
						{
							"internalType": "uint8[2]",
							"name": "team2Score",
							"type": "uint8[2]"
						},
						{
							"internalType": "bool",
							"name": "scoreFinalised",
							"type": "bool"
						}
					],
					"indexed": false,
					"internalType": "struct AflScoreTracker.Game",
					"name": "",
					"type": "tuple"
				}
			],
			"name": "gameScoreUpdated",
			"type": "event"
		},
		{
			"inputs": [
				{
					"internalType": "string",
					"name": "_teamA",
					"type": "string"
				},
				{
					"internalType": "string",
					"name": "_teamB",
					"type": "string"
				}
			],
			"name": "createGame",
			"outputs": [
				{
					"components": [
						{
							"internalType": "uint256",
							"name": "gameID",
							"type": "uint256"
						},
						{
							"internalType": "address",
							"name": "gameOwner",
							"type": "address"
						},
						{
							"internalType": "string[2]",
							"name": "teams",
							"type": "string[2]"
						},
						{
							"internalType": "uint8[2]",
							"name": "team1Score",
							"type": "uint8[2]"
						},
						{
							"internalType": "uint8[2]",
							"name": "team2Score",
							"type": "uint8[2]"
						},
						{
							"internalType": "bool",
							"name": "scoreFinalised",
							"type": "bool"
						}
					],
					"internalType": "struct AflScoreTracker.Game",
					"name": "",
					"type": "tuple"
				}
			],
			"stateMutability": "nonpayable",
			"type": "function"
		},
		{
			"inputs": [
				{
					"internalType": "uint256",
					"name": "_gameID",
					"type": "uint256"
				}
			],
			"name": "finaliseScore",
			"outputs": [],
			"stateMutability": "nonpayable",
			"type": "function"
		},
		{
			"inputs": [
				{
					"internalType": "uint256",
					"name": "",
					"type": "uint256"
				}
			],
			"name": "games",
			"outputs": [
				{
					"internalType": "uint256",
					"name": "gameID",
					"type": "uint256"
				},
				{
					"internalType": "address",
					"name": "gameOwner",
					"type": "address"
				},
				{
					"internalType": "bool",
					"name": "scoreFinalised",
					"type": "bool"
				}
			],
			"stateMutability": "view",
			"type": "function"
		},
		{
			"inputs": [
				{
					"internalType": "address",
					"name": "_contributer",
					"type": "address"
				}
			],
			"name": "getContributions",
			"outputs": [
				{
					"internalType": "uint256",
					"name": "",
					"type": "uint256"
				}
			],
			"stateMutability": "view",
			"type": "function"
		},
		{
			"inputs": [
				{
					"internalType": "uint256",
					"name": "_gameID",
					"type": "uint256"
				}
			],
			"name": "getGameContext",
			"outputs": [
				{
					"internalType": "string",
					"name": "",
					"type": "string"
				}
			],
			"stateMutability": "view",
			"type": "function"
		},
		{
			"inputs": [
				{
					"internalType": "uint256",
					"name": "_gameID",
					"type": "uint256"
				}
			],
			"name": "getGameScore",
			"outputs": [
				{
					"internalType": "uint256[2]",
					"name": "",
					"type": "uint256[2]"
				}
			],
			"stateMutability": "view",
			"type": "function"
		},
		{
			"inputs": [
				{
					"internalType": "address",
					"name": "_gameDeployer",
					"type": "address"
				}
			],
			"name": "getGamesDeployed",
			"outputs": [
				{
					"internalType": "uint256",
					"name": "",
					"type": "uint256"
				}
			],
			"stateMutability": "view",
			"type": "function"
		},
		{
			"inputs": [
				{
					"internalType": "uint256",
					"name": "_gameID",
					"type": "uint256"
				},
				{
					"internalType": "enum AflScoreTracker.teamChoices",
					"name": "_team",
					"type": "uint8"
				}
			],
			"name": "incrementBehind",
			"outputs": [],
			"stateMutability": "nonpayable",
			"type": "function"
		},
		{
			"inputs": [
				{
					"internalType": "uint256",
					"name": "_gameID",
					"type": "uint256"
				},
				{
					"internalType": "enum AflScoreTracker.teamChoices",
					"name": "_team",
					"type": "uint8"
				}
			],
			"name": "incrementGoal",
			"outputs": [],
			"stateMutability": "nonpayable",
			"type": "function"
		},
		{
			"inputs": [
				{
					"internalType": "uint256",
					"name": "_gameID",
					"type": "uint256"
				},
				{
					"internalType": "uint8",
					"name": "_team1Goals",
					"type": "uint8"
				},
				{
					"internalType": "uint8",
					"name": "_team1Behinds",
					"type": "uint8"
				},
				{
					"internalType": "uint8",
					"name": "_team2Goals",
					"type": "uint8"
				},
				{
					"internalType": "uint8",
					"name": "_team2Behings",
					"type": "uint8"
				}
			],
			"name": "setScore",
			"outputs": [],
			"stateMutability": "nonpayable",
			"type": "function"
		}
	]
}