{
	"data": {
		"bytecode": {
			"linkReferences": {},
			"object": "608060405234801561001057600080fd5b50600080546001600160a01b0319163317905561130b806100326000396000f3fe608060405234801561001057600080fd5b50600436106100935760003560e01c80636f75c3c6116100665780636f75c3c614610139578063aeea9eb114610159578063da424d8a14610182578063df472d6714610195578063fe0b7ede146101b557600080fd5b8063117a5b90146100985780631552922c146100cd5780633f19d043146100e25780634f72d12a14610119575b600080fd5b6100ab6100a6366004610d2f565b6101c8565b604080519283526001600160a01b039091166020830152015b60405180910390f35b6100e06100db366004610d5e565b6101ff565b005b61010b6100f0366004610d8a565b6001600160a01b031660009081526003602052604090205490565b6040519081526020016100c4565b61012c610127366004610d2f565b610328565b6040516100c49190610dba565b61014c610147366004610d2f565b6103c5565b6040516100c49190610e47565b61010b610167366004610d8a565b6001600160a01b031660009081526005602052604090205490565b6100e0610190366004610e5a565b6105b8565b6101a86101a3366004610f5b565b61087c565b6040516100c49190610fe5565b6100e06101c3366004610d5e565b610a6b565b600181815481106101d857600080fd5b6000918252602090912060069091020180546001909101549091506001600160a01b031682565b6000600183815481106102145761021461107b565b906000526020600020906006020190508160ff166000141561027a576004810160015b6020918282040191900681819054906101000a900460ff168092919061025c906110a7565b91906101000a81548160ff021916908360ff160217905550506102cc565b8160ff16600114156102cc576005810160015b6020918282040191900681819054906101000a900460ff16809291906102b2906110a7565b91906101000a81548160ff021916908360ff160217905550505b3360009081526003602052604081208054916102e7836110c7565b91905055507f21a46e0192d8c6d79a56be322844d8ee53f2c9f6468af54f4c3263925ef5962a8160405161031b919061111d565b60405180910390a1505050565b610330610aea565b6000600183815481106103455761034561107b565b6000918252602082206006918202016004810154909350829160ff610100830481169261037492911690611248565b61037e9190611271565b600584015460ff9182169350610100810482169161039e91166006611248565b6103a89190611271565b6040805180820190915292835260ff166020830152509392505050565b60606000600183815481106103dc576103dc61107b565b600091825260208083206040805160a08101825260069094029091018054845260018101546001600160a01b031692840192909252805180820182529293919290840191600280850191835b828210156104cb57838201805461043e906110e2565b80601f016020809104026020016040519081016040528092919081815260200182805461046a906110e2565b80156104b75780601f1061048c576101008083540402835291602001916104b7565b820191906000526020600020905b81548152906001019060200180831161049a57829003601f168201915b505050505081526020019060010190610428565b505050908252506040805180820191829052602090920191906004840190600290826000855b825461010083900a900460ff168152602060019283018181049485019490930390920291018084116104f1575050509284525050604080518082019182905260209093019291506005840190600290826000855b825461010083900a900460ff16815260206001928301818104948501949093039092029101808411610545579050505050505081525050905060006105b0826040015160006002811061059a5761059a61107b565b6020020151604084015160016020020151610abe565b949350505050565b600185815481106105cb576105cb61107b565b600091825260208083206040805160a08101825260069094029091018054845260018101546001600160a01b031692840192909252805180820182529293919290840191600280850191835b828210156106ba57838201805461062d906110e2565b80601f0160208091040260200160405190810160405280929190818152602001828054610659906110e2565b80156106a65780601f1061067b576101008083540402835291602001916106a6565b820191906000526020600020905b81548152906001019060200180831161068957829003601f168201915b505050505081526020019060010190610617565b505050908252506040805180820191829052602090920191906004840190600290826000855b825461010083900a900460ff168152602060019283018181049485019490930390920291018084116106e0575050509284525050604080518082019182905260209093019291506005840190600290826000855b825461010083900a900460ff168152602060019283018181049485019490930390920291018084116107345790505050509190925250505060208101516001600160a01b031633148061079157506000546001600160a01b031633145b61079a57600080fd5b6000600187815481106107af576107af61107b565b9060005260206000209060060201905060405180604001604052808760ff1660ff1681526020018660ff1660ff16815250816004019060026107f2929190610b08565b506040805180820190915260ff80861682528416602082015261081b9060058301906002610b08565b50336000908152600360205260408120805491610837836110c7565b91905055507f21a46e0192d8c6d79a56be322844d8ee53f2c9f6468af54f4c3263925ef5962a8160405161086b919061111d565b60405180910390a150505050505050565b610884610b9b565b61088c610b9b565b6002805482523360208084019182526040808501805189905280518301889052815180830183526000808252818501819052606088019190915282518084019093528083529282018390526080860191909152600180548082018255925284517fb10e2d527612073b26eecdfd717e6a320cf44b4afac2b0732d9fcbe2b7fa0cf6600690930292830190815592517fb10e2d527612073b26eecdfd717e6a320cf44b4afac2b0732d9fcbe2b7fa0cf7830180546001600160a01b0319166001600160a01b0390921691909117905551849361098a927fb10e2d527612073b26eecdfd717e6a320cf44b4afac2b0732d9fcbe2b7fa0cf8019190610bd9565b5060608201516109a09060048301906002610b08565b5060808201516109b69060058301906002610b08565b505060028054915060006109c9836110c7565b90915550508051600090815260046020908152604080832080546001600160a01b03191633908117909155835260059091528120805491610a09836110c7565b9091555050336000908152600360205260408120805491610a29836110c7565b91905055507e16ce8410fb839c02e2459269e2d434c9c16610549246fa3f808953ce88e8ad81604051610a5c9190610fe5565b60405180910390a19392505050565b600060018381548110610a8057610a8061107b565b906000526020600020906006020190508160ff1660001415610aa757600481016000610237565b8160ff16600114156102cc5760058101600061028d565b60608282604051602001610ad3929190611296565b604051602081830303815290604052905092915050565b60405180604001604052806002906020820280368337509192915050565b600183019183908215610b8b5791602002820160005b83821115610b5c57835183826101000a81548160ff021916908360ff1602179055509260200192600101602081600001049283019260010302610b1e565b8015610b895782816101000a81549060ff0219169055600101602081600001049283019260010302610b5c565b505b50610b97929150610c25565b5090565b6040805160a08101825260008082526020820152908101610bba610c3a565b8152602001610bc7610aea565b8152602001610bd4610aea565b905290565b8260028101928215610c19579160200282015b82811115610c195782518051610c09918491602090910190610c61565b5091602001919060010190610bec565b50610b97929150610cd5565b5b80821115610b975760008155600101610c26565b60405180604001604052806002905b6060815260200190600190039081610c495790505090565b828054610c6d906110e2565b90600052602060002090601f016020900481019282610c8f5760008555610b8b565b82601f10610ca857805160ff1916838001178555610b8b565b82800160010185558215610b8b579182015b82811115610b8b578251825591602001919060010190610cba565b80821115610b97576000610ce98282610cf2565b50600101610cd5565b508054610cfe906110e2565b6000825580601f10610d0e575050565b601f016020900490600052602060002090810190610d2c9190610c25565b50565b600060208284031215610d4157600080fd5b5035919050565b803560ff81168114610d5957600080fd5b919050565b60008060408385031215610d7157600080fd5b82359150610d8160208401610d48565b90509250929050565b600060208284031215610d9c57600080fd5b81356001600160a01b0381168114610db357600080fd5b9392505050565b60408101818360005b6002811015610de2578151835260209283019290910190600101610dc3565b50505092915050565b60005b83811015610e06578181015183820152602001610dee565b83811115610e15576000848401525b50505050565b60008151808452610e33816020860160208601610deb565b601f01601f19169290920160200192915050565b602081526000610db36020830184610e1b565b600080600080600060a08688031215610e7257600080fd5b85359450610e8260208701610d48565b9350610e9060408701610d48565b9250610e9e60608701610d48565b9150610eac60808701610d48565b90509295509295909350565b634e487b7160e01b600052604160045260246000fd5b600082601f830112610edf57600080fd5b813567ffffffffffffffff80821115610efa57610efa610eb8565b604051601f8301601f19908116603f01168101908282118183101715610f2257610f22610eb8565b81604052838152866020858801011115610f3b57600080fd5b836020870160208301376000602085830101528094505050505092915050565b60008060408385031215610f6e57600080fd5b823567ffffffffffffffff80821115610f8657600080fd5b610f9286838701610ece565b93506020850135915080821115610fa857600080fd5b50610fb585828601610ece565b9150509250929050565b8060005b6002811015610e1557815160ff16845260209384019390910190600101610fc3565b6020808252825182820152828101516001600160a01b031660408084019190915283015160e06060840152600091906101408401906101008501845b60028110156110505760ff1987850301825261103e848451610e1b565b93509184019190840190600101611021565b505050606085015191506110676080850183610fbf565b608085015191506105b060c0850183610fbf565b634e487b7160e01b600052603260045260246000fd5b634e487b7160e01b600052601160045260246000fd5b600060ff821660ff8114156110be576110be611091565b60010192915050565b60006000198214156110db576110db611091565b5060010190565b600181811c908216806110f657607f821691505b6020821081141561111757634e487b7160e01b600052602260045260246000fd5b50919050565b60208082528254828201526001808401546001600160a01b0316604084015260e060608401526000919061014084019060026101008601818801865b8381101561120d5760ff1989870381018452825460009080881c8882168061118257607f821691505b8b82108114156111a057634e487b7160e01b84526022600452602484fd5b818b5260208b018180156111bb57600181146111ca576111f5565b86851682528d820195506111f5565b60008981526020902060005b858110156111ef57815484820152908d01908f016111d6565b83019650505b50939a50505094890194505050908401908401611159565b50505050600486015460ff8082166080880152600891821c811660a0880152600588015480821660c089015290911c1660e0860152506105b0565b600060ff821660ff84168160ff048111821515161561126957611269611091565b029392505050565b600060ff821660ff84168060ff0382111561128e5761128e611091565b019392505050565b600083516112a8818460208801610deb565b630103b39960e51b90830190815283516112c9816004840160208801610deb565b0160040194935050505056fea264697066735822122003fcd48928ae1c025c69d9ea3cbedb83b1ca13384836e0087627c6c34b746ced64736f6c63430008090033",
			"opcodes": "PUSH1 0x80 PUSH1 0x40 MSTORE CALLVALUE DUP1 ISZERO PUSH2 0x10 JUMPI PUSH1 0x0 DUP1 REVERT JUMPDEST POP PUSH1 0x0 DUP1 SLOAD PUSH1 0x1 PUSH1 0x1 PUSH1 0xA0 SHL SUB NOT AND CALLER OR SWAP1 SSTORE PUSH2 0x130B DUP1 PUSH2 0x32 PUSH1 0x0 CODECOPY PUSH1 0x0 RETURN INVALID PUSH1 0x80 PUSH1 0x40 MSTORE CALLVALUE DUP1 ISZERO PUSH2 0x10 JUMPI PUSH1 0x0 DUP1 REVERT JUMPDEST POP PUSH1 0x4 CALLDATASIZE LT PUSH2 0x93 JUMPI PUSH1 0x0 CALLDATALOAD PUSH1 0xE0 SHR DUP1 PUSH4 0x6F75C3C6 GT PUSH2 0x66 JUMPI DUP1 PUSH4 0x6F75C3C6 EQ PUSH2 0x139 JUMPI DUP1 PUSH4 0xAEEA9EB1 EQ PUSH2 0x159 JUMPI DUP1 PUSH4 0xDA424D8A EQ PUSH2 0x182 JUMPI DUP1 PUSH4 0xDF472D67 EQ PUSH2 0x195 JUMPI DUP1 PUSH4 0xFE0B7EDE EQ PUSH2 0x1B5 JUMPI PUSH1 0x0 DUP1 REVERT JUMPDEST DUP1 PUSH4 0x117A5B90 EQ PUSH2 0x98 JUMPI DUP1 PUSH4 0x1552922C EQ PUSH2 0xCD JUMPI DUP1 PUSH4 0x3F19D043 EQ PUSH2 0xE2 JUMPI DUP1 PUSH4 0x4F72D12A EQ PUSH2 0x119 JUMPI JUMPDEST PUSH1 0x0 DUP1 REVERT JUMPDEST PUSH2 0xAB PUSH2 0xA6 CALLDATASIZE PUSH1 0x4 PUSH2 0xD2F JUMP JUMPDEST PUSH2 0x1C8 JUMP JUMPDEST PUSH1 0x40 DUP1 MLOAD SWAP3 DUP4 MSTORE PUSH1 0x1 PUSH1 0x1 PUSH1 0xA0 SHL SUB SWAP1 SWAP2 AND PUSH1 0x20 DUP4 ADD MSTORE ADD JUMPDEST PUSH1 0x40 MLOAD DUP1 SWAP2 SUB SWAP1 RETURN JUMPDEST PUSH2 0xE0 PUSH2 0xDB CALLDATASIZE PUSH1 0x4 PUSH2 0xD5E JUMP JUMPDEST PUSH2 0x1FF JUMP JUMPDEST STOP JUMPDEST PUSH2 0x10B PUSH2 0xF0 CALLDATASIZE PUSH1 0x4 PUSH2 0xD8A JUMP JUMPDEST PUSH1 0x1 PUSH1 0x1 PUSH1 0xA0 SHL SUB AND PUSH1 0x0 SWAP1 DUP2 MSTORE PUSH1 0x3 PUSH1 0x20 MSTORE PUSH1 0x40 SWAP1 KECCAK256 SLOAD SWAP1 JUMP JUMPDEST PUSH1 0x40 MLOAD SWAP1 DUP2 MSTORE PUSH1 0x20 ADD PUSH2 0xC4 JUMP JUMPDEST PUSH2 0x12C PUSH2 0x127 CALLDATASIZE PUSH1 0x4 PUSH2 0xD2F JUMP JUMPDEST PUSH2 0x328 JUMP JUMPDEST PUSH1 0x40 MLOAD PUSH2 0xC4 SWAP2 SWAP1 PUSH2 0xDBA JUMP JUMPDEST PUSH2 0x14C PUSH2 0x147 CALLDATASIZE PUSH1 0x4 PUSH2 0xD2F JUMP JUMPDEST PUSH2 0x3C5 JUMP JUMPDEST PUSH1 0x40 MLOAD PUSH2 0xC4 SWAP2 SWAP1 PUSH2 0xE47 JUMP JUMPDEST PUSH2 0x10B PUSH2 0x167 CALLDATASIZE PUSH1 0x4 PUSH2 0xD8A JUMP JUMPDEST PUSH1 0x1 PUSH1 0x1 PUSH1 0xA0 SHL SUB AND PUSH1 0x0 SWAP1 DUP2 MSTORE PUSH1 0x5 PUSH1 0x20 MSTORE PUSH1 0x40 SWAP1 KECCAK256 SLOAD SWAP1 JUMP JUMPDEST PUSH2 0xE0 PUSH2 0x190 CALLDATASIZE PUSH1 0x4 PUSH2 0xE5A JUMP JUMPDEST PUSH2 0x5B8 JUMP JUMPDEST PUSH2 0x1A8 PUSH2 0x1A3 CALLDATASIZE PUSH1 0x4 PUSH2 0xF5B JUMP JUMPDEST PUSH2 0x87C JUMP JUMPDEST PUSH1 0x40 MLOAD PUSH2 0xC4 SWAP2 SWAP1 PUSH2 0xFE5 JUMP JUMPDEST PUSH2 0xE0 PUSH2 0x1C3 CALLDATASIZE PUSH1 0x4 PUSH2 0xD5E JUMP JUMPDEST PUSH2 0xA6B JUMP JUMPDEST PUSH1 0x1 DUP2 DUP2 SLOAD DUP2 LT PUSH2 0x1D8 JUMPI PUSH1 0x0 DUP1 REVERT JUMPDEST PUSH1 0x0 SWAP2 DUP3 MSTORE PUSH1 0x20 SWAP1 SWAP2 KECCAK256 PUSH1 0x6 SWAP1 SWAP2 MUL ADD DUP1 SLOAD PUSH1 0x1 SWAP1 SWAP2 ADD SLOAD SWAP1 SWAP2 POP PUSH1 0x1 PUSH1 0x1 PUSH1 0xA0 SHL SUB AND DUP3 JUMP JUMPDEST PUSH1 0x0 PUSH1 0x1 DUP4 DUP2 SLOAD DUP2 LT PUSH2 0x214 JUMPI PUSH2 0x214 PUSH2 0x107B JUMP JUMPDEST SWAP1 PUSH1 0x0 MSTORE PUSH1 0x20 PUSH1 0x0 KECCAK256 SWAP1 PUSH1 0x6 MUL ADD SWAP1 POP DUP2 PUSH1 0xFF AND PUSH1 0x0 EQ ISZERO PUSH2 0x27A JUMPI PUSH1 0x4 DUP2 ADD PUSH1 0x1 JUMPDEST PUSH1 0x20 SWAP2 DUP3 DUP3 DIV ADD SWAP2 SWAP1 MOD DUP2 DUP2 SWAP1 SLOAD SWAP1 PUSH2 0x100 EXP SWAP1 DIV PUSH1 0xFF AND DUP1 SWAP3 SWAP2 SWAP1 PUSH2 0x25C SWAP1 PUSH2 0x10A7 JUMP JUMPDEST SWAP2 SWAP1 PUSH2 0x100 EXP DUP2 SLOAD DUP2 PUSH1 0xFF MUL NOT AND SWAP1 DUP4 PUSH1 0xFF AND MUL OR SWAP1 SSTORE POP POP PUSH2 0x2CC JUMP JUMPDEST DUP2 PUSH1 0xFF AND PUSH1 0x1 EQ ISZERO PUSH2 0x2CC JUMPI PUSH1 0x5 DUP2 ADD PUSH1 0x1 JUMPDEST PUSH1 0x20 SWAP2 DUP3 DUP3 DIV ADD SWAP2 SWAP1 MOD DUP2 DUP2 SWAP1 SLOAD SWAP1 PUSH2 0x100 EXP SWAP1 DIV PUSH1 0xFF AND DUP1 SWAP3 SWAP2 SWAP1 PUSH2 0x2B2 SWAP1 PUSH2 0x10A7 JUMP JUMPDEST SWAP2 SWAP1 PUSH2 0x100 EXP DUP2 SLOAD DUP2 PUSH1 0xFF MUL NOT AND SWAP1 DUP4 PUSH1 0xFF AND MUL OR SWAP1 SSTORE POP POP JUMPDEST CALLER PUSH1 0x0 SWAP1 DUP2 MSTORE PUSH1 0x3 PUSH1 0x20 MSTORE PUSH1 0x40 DUP2 KECCAK256 DUP1 SLOAD SWAP2 PUSH2 0x2E7 DUP4 PUSH2 0x10C7 JUMP JUMPDEST SWAP2 SWAP1 POP SSTORE POP PUSH32 0x21A46E0192D8C6D79A56BE322844D8EE53F2C9F6468AF54F4C3263925EF5962A DUP2 PUSH1 0x40 MLOAD PUSH2 0x31B SWAP2 SWAP1 PUSH2 0x111D JUMP JUMPDEST PUSH1 0x40 MLOAD DUP1 SWAP2 SUB SWAP1 LOG1 POP POP POP JUMP JUMPDEST PUSH2 0x330 PUSH2 0xAEA JUMP JUMPDEST PUSH1 0x0 PUSH1 0x1 DUP4 DUP2 SLOAD DUP2 LT PUSH2 0x345 JUMPI PUSH2 0x345 PUSH2 0x107B JUMP JUMPDEST PUSH1 0x0 SWAP2 DUP3 MSTORE PUSH1 0x20 DUP3 KECCAK256 PUSH1 0x6 SWAP2 DUP3 MUL ADD PUSH1 0x4 DUP2 ADD SLOAD SWAP1 SWAP4 POP DUP3 SWAP2 PUSH1 0xFF PUSH2 0x100 DUP4 DIV DUP2 AND SWAP3 PUSH2 0x374 SWAP3 SWAP2 AND SWAP1 PUSH2 0x1248 JUMP JUMPDEST PUSH2 0x37E SWAP2 SWAP1 PUSH2 0x1271 JUMP JUMPDEST PUSH1 0x5 DUP5 ADD SLOAD PUSH1 0xFF SWAP2 DUP3 AND SWAP4 POP PUSH2 0x100 DUP2 DIV DUP3 AND SWAP2 PUSH2 0x39E SWAP2 AND PUSH1 0x6 PUSH2 0x1248 JUMP JUMPDEST PUSH2 0x3A8 SWAP2 SWAP1 PUSH2 0x1271 JUMP JUMPDEST PUSH1 0x40 DUP1 MLOAD DUP1 DUP3 ADD SWAP1 SWAP2 MSTORE SWAP3 DUP4 MSTORE PUSH1 0xFF AND PUSH1 0x20 DUP4 ADD MSTORE POP SWAP4 SWAP3 POP POP POP JUMP JUMPDEST PUSH1 0x60 PUSH1 0x0 PUSH1 0x1 DUP4 DUP2 SLOAD DUP2 LT PUSH2 0x3DC JUMPI PUSH2 0x3DC PUSH2 0x107B JUMP JUMPDEST PUSH1 0x0 SWAP2 DUP3 MSTORE PUSH1 0x20 DUP1 DUP4 KECCAK256 PUSH1 0x40 DUP1 MLOAD PUSH1 0xA0 DUP2 ADD DUP3 MSTORE PUSH1 0x6 SWAP1 SWAP5 MUL SWAP1 SWAP2 ADD DUP1 SLOAD DUP5 MSTORE PUSH1 0x1 DUP2 ADD SLOAD PUSH1 0x1 PUSH1 0x1 PUSH1 0xA0 SHL SUB AND SWAP3 DUP5 ADD SWAP3 SWAP1 SWAP3 MSTORE DUP1 MLOAD DUP1 DUP3 ADD DUP3 MSTORE SWAP3 SWAP4 SWAP2 SWAP3 SWAP1 DUP5 ADD SWAP2 PUSH1 0x2 DUP1 DUP6 ADD SWAP2 DUP4 JUMPDEST DUP3 DUP3 LT ISZERO PUSH2 0x4CB JUMPI DUP4 DUP3 ADD DUP1 SLOAD PUSH2 0x43E SWAP1 PUSH2 0x10E2 JUMP JUMPDEST DUP1 PUSH1 0x1F ADD PUSH1 0x20 DUP1 SWAP2 DIV MUL PUSH1 0x20 ADD PUSH1 0x40 MLOAD SWAP1 DUP2 ADD PUSH1 0x40 MSTORE DUP1 SWAP3 SWAP2 SWAP1 DUP2 DUP2 MSTORE PUSH1 0x20 ADD DUP3 DUP1 SLOAD PUSH2 0x46A SWAP1 PUSH2 0x10E2 JUMP JUMPDEST DUP1 ISZERO PUSH2 0x4B7 JUMPI DUP1 PUSH1 0x1F LT PUSH2 0x48C JUMPI PUSH2 0x100 DUP1 DUP4 SLOAD DIV MUL DUP4 MSTORE SWAP2 PUSH1 0x20 ADD SWAP2 PUSH2 0x4B7 JUMP JUMPDEST DUP3 ADD SWAP2 SWAP1 PUSH1 0x0 MSTORE PUSH1 0x20 PUSH1 0x0 KECCAK256 SWAP1 JUMPDEST DUP2 SLOAD DUP2 MSTORE SWAP1 PUSH1 0x1 ADD SWAP1 PUSH1 0x20 ADD DUP1 DUP4 GT PUSH2 0x49A JUMPI DUP3 SWAP1 SUB PUSH1 0x1F AND DUP3 ADD SWAP2 JUMPDEST POP POP POP POP POP DUP2 MSTORE PUSH1 0x20 ADD SWAP1 PUSH1 0x1 ADD SWAP1 PUSH2 0x428 JUMP JUMPDEST POP POP POP SWAP1 DUP3 MSTORE POP PUSH1 0x40 DUP1 MLOAD DUP1 DUP3 ADD SWAP2 DUP3 SWAP1 MSTORE PUSH1 0x20 SWAP1 SWAP3 ADD SWAP2 SWAP1 PUSH1 0x4 DUP5 ADD SWAP1 PUSH1 0x2 SWAP1 DUP3 PUSH1 0x0 DUP6 JUMPDEST DUP3 SLOAD PUSH2 0x100 DUP4 SWAP1 EXP SWAP1 DIV PUSH1 0xFF AND DUP2 MSTORE PUSH1 0x20 PUSH1 0x1 SWAP3 DUP4 ADD DUP2 DUP2 DIV SWAP5 DUP6 ADD SWAP5 SWAP1 SWAP4 SUB SWAP1 SWAP3 MUL SWAP2 ADD DUP1 DUP5 GT PUSH2 0x4F1 JUMPI POP POP POP SWAP3 DUP5 MSTORE POP POP PUSH1 0x40 DUP1 MLOAD DUP1 DUP3 ADD SWAP2 DUP3 SWAP1 MSTORE PUSH1 0x20 SWAP1 SWAP4 ADD SWAP3 SWAP2 POP PUSH1 0x5 DUP5 ADD SWAP1 PUSH1 0x2 SWAP1 DUP3 PUSH1 0x0 DUP6 JUMPDEST DUP3 SLOAD PUSH2 0x100 DUP4 SWAP1 EXP SWAP1 DIV PUSH1 0xFF AND DUP2 MSTORE PUSH1 0x20 PUSH1 0x1 SWAP3 DUP4 ADD DUP2 DUP2 DIV SWAP5 DUP6 ADD SWAP5 SWAP1 SWAP4 SUB SWAP1 SWAP3 MUL SWAP2 ADD DUP1 DUP5 GT PUSH2 0x545 JUMPI SWAP1 POP POP POP POP POP POP DUP2 MSTORE POP POP SWAP1 POP PUSH1 0x0 PUSH2 0x5B0 DUP3 PUSH1 0x40 ADD MLOAD PUSH1 0x0 PUSH1 0x2 DUP2 LT PUSH2 0x59A JUMPI PUSH2 0x59A PUSH2 0x107B JUMP JUMPDEST PUSH1 0x20 MUL ADD MLOAD PUSH1 0x40 DUP5 ADD MLOAD PUSH1 0x1 PUSH1 0x20 MUL ADD MLOAD PUSH2 0xABE JUMP JUMPDEST SWAP5 SWAP4 POP POP POP POP JUMP JUMPDEST PUSH1 0x1 DUP6 DUP2 SLOAD DUP2 LT PUSH2 0x5CB JUMPI PUSH2 0x5CB PUSH2 0x107B JUMP JUMPDEST PUSH1 0x0 SWAP2 DUP3 MSTORE PUSH1 0x20 DUP1 DUP4 KECCAK256 PUSH1 0x40 DUP1 MLOAD PUSH1 0xA0 DUP2 ADD DUP3 MSTORE PUSH1 0x6 SWAP1 SWAP5 MUL SWAP1 SWAP2 ADD DUP1 SLOAD DUP5 MSTORE PUSH1 0x1 DUP2 ADD SLOAD PUSH1 0x1 PUSH1 0x1 PUSH1 0xA0 SHL SUB AND SWAP3 DUP5 ADD SWAP3 SWAP1 SWAP3 MSTORE DUP1 MLOAD DUP1 DUP3 ADD DUP3 MSTORE SWAP3 SWAP4 SWAP2 SWAP3 SWAP1 DUP5 ADD SWAP2 PUSH1 0x2 DUP1 DUP6 ADD SWAP2 DUP4 JUMPDEST DUP3 DUP3 LT ISZERO PUSH2 0x6BA JUMPI DUP4 DUP3 ADD DUP1 SLOAD PUSH2 0x62D SWAP1 PUSH2 0x10E2 JUMP JUMPDEST DUP1 PUSH1 0x1F ADD PUSH1 0x20 DUP1 SWAP2 DIV MUL PUSH1 0x20 ADD PUSH1 0x40 MLOAD SWAP1 DUP2 ADD PUSH1 0x40 MSTORE DUP1 SWAP3 SWAP2 SWAP1 DUP2 DUP2 MSTORE PUSH1 0x20 ADD DUP3 DUP1 SLOAD PUSH2 0x659 SWAP1 PUSH2 0x10E2 JUMP JUMPDEST DUP1 ISZERO PUSH2 0x6A6 JUMPI DUP1 PUSH1 0x1F LT PUSH2 0x67B JUMPI PUSH2 0x100 DUP1 DUP4 SLOAD DIV MUL DUP4 MSTORE SWAP2 PUSH1 0x20 ADD SWAP2 PUSH2 0x6A6 JUMP JUMPDEST DUP3 ADD SWAP2 SWAP1 PUSH1 0x0 MSTORE PUSH1 0x20 PUSH1 0x0 KECCAK256 SWAP1 JUMPDEST DUP2 SLOAD DUP2 MSTORE SWAP1 PUSH1 0x1 ADD SWAP1 PUSH1 0x20 ADD DUP1 DUP4 GT PUSH2 0x689 JUMPI DUP3 SWAP1 SUB PUSH1 0x1F AND DUP3 ADD SWAP2 JUMPDEST POP POP POP POP POP DUP2 MSTORE PUSH1 0x20 ADD SWAP1 PUSH1 0x1 ADD SWAP1 PUSH2 0x617 JUMP JUMPDEST POP POP POP SWAP1 DUP3 MSTORE POP PUSH1 0x40 DUP1 MLOAD DUP1 DUP3 ADD SWAP2 DUP3 SWAP1 MSTORE PUSH1 0x20 SWAP1 SWAP3 ADD SWAP2 SWAP1 PUSH1 0x4 DUP5 ADD SWAP1 PUSH1 0x2 SWAP1 DUP3 PUSH1 0x0 DUP6 JUMPDEST DUP3 SLOAD PUSH2 0x100 DUP4 SWAP1 EXP SWAP1 DIV PUSH1 0xFF AND DUP2 MSTORE PUSH1 0x20 PUSH1 0x1 SWAP3 DUP4 ADD DUP2 DUP2 DIV SWAP5 DUP6 ADD SWAP5 SWAP1 SWAP4 SUB SWAP1 SWAP3 MUL SWAP2 ADD DUP1 DUP5 GT PUSH2 0x6E0 JUMPI POP POP POP SWAP3 DUP5 MSTORE POP POP PUSH1 0x40 DUP1 MLOAD DUP1 DUP3 ADD SWAP2 DUP3 SWAP1 MSTORE PUSH1 0x20 SWAP1 SWAP4 ADD SWAP3 SWAP2 POP PUSH1 0x5 DUP5 ADD SWAP1 PUSH1 0x2 SWAP1 DUP3 PUSH1 0x0 DUP6 JUMPDEST DUP3 SLOAD PUSH2 0x100 DUP4 SWAP1 EXP SWAP1 DIV PUSH1 0xFF AND DUP2 MSTORE PUSH1 0x20 PUSH1 0x1 SWAP3 DUP4 ADD DUP2 DUP2 DIV SWAP5 DUP6 ADD SWAP5 SWAP1 SWAP4 SUB SWAP1 SWAP3 MUL SWAP2 ADD DUP1 DUP5 GT PUSH2 0x734 JUMPI SWAP1 POP POP POP POP SWAP2 SWAP1 SWAP3 MSTORE POP POP POP PUSH1 0x20 DUP2 ADD MLOAD PUSH1 0x1 PUSH1 0x1 PUSH1 0xA0 SHL SUB AND CALLER EQ DUP1 PUSH2 0x791 JUMPI POP PUSH1 0x0 SLOAD PUSH1 0x1 PUSH1 0x1 PUSH1 0xA0 SHL SUB AND CALLER EQ JUMPDEST PUSH2 0x79A JUMPI PUSH1 0x0 DUP1 REVERT JUMPDEST PUSH1 0x0 PUSH1 0x1 DUP8 DUP2 SLOAD DUP2 LT PUSH2 0x7AF JUMPI PUSH2 0x7AF PUSH2 0x107B JUMP JUMPDEST SWAP1 PUSH1 0x0 MSTORE PUSH1 0x20 PUSH1 0x0 KECCAK256 SWAP1 PUSH1 0x6 MUL ADD SWAP1 POP PUSH1 0x40 MLOAD DUP1 PUSH1 0x40 ADD PUSH1 0x40 MSTORE DUP1 DUP8 PUSH1 0xFF AND PUSH1 0xFF AND DUP2 MSTORE PUSH1 0x20 ADD DUP7 PUSH1 0xFF AND PUSH1 0xFF AND DUP2 MSTORE POP DUP2 PUSH1 0x4 ADD SWAP1 PUSH1 0x2 PUSH2 0x7F2 SWAP3 SWAP2 SWAP1 PUSH2 0xB08 JUMP JUMPDEST POP PUSH1 0x40 DUP1 MLOAD DUP1 DUP3 ADD SWAP1 SWAP2 MSTORE PUSH1 0xFF DUP1 DUP7 AND DUP3 MSTORE DUP5 AND PUSH1 0x20 DUP3 ADD MSTORE PUSH2 0x81B SWAP1 PUSH1 0x5 DUP4 ADD SWAP1 PUSH1 0x2 PUSH2 0xB08 JUMP JUMPDEST POP CALLER PUSH1 0x0 SWAP1 DUP2 MSTORE PUSH1 0x3 PUSH1 0x20 MSTORE PUSH1 0x40 DUP2 KECCAK256 DUP1 SLOAD SWAP2 PUSH2 0x837 DUP4 PUSH2 0x10C7 JUMP JUMPDEST SWAP2 SWAP1 POP SSTORE POP PUSH32 0x21A46E0192D8C6D79A56BE322844D8EE53F2C9F6468AF54F4C3263925EF5962A DUP2 PUSH1 0x40 MLOAD PUSH2 0x86B SWAP2 SWAP1 PUSH2 0x111D JUMP JUMPDEST PUSH1 0x40 MLOAD DUP1 SWAP2 SUB SWAP1 LOG1 POP POP POP POP POP POP POP JUMP JUMPDEST PUSH2 0x884 PUSH2 0xB9B JUMP JUMPDEST PUSH2 0x88C PUSH2 0xB9B JUMP JUMPDEST PUSH1 0x2 DUP1 SLOAD DUP3 MSTORE CALLER PUSH1 0x20 DUP1 DUP5 ADD SWAP2 DUP3 MSTORE PUSH1 0x40 DUP1 DUP6 ADD DUP1 MLOAD DUP10 SWAP1 MSTORE DUP1 MLOAD DUP4 ADD DUP9 SWAP1 MSTORE DUP2 MLOAD DUP1 DUP4 ADD DUP4 MSTORE PUSH1 0x0 DUP1 DUP3 MSTORE DUP2 DUP6 ADD DUP2 SWAP1 MSTORE PUSH1 0x60 DUP9 ADD SWAP2 SWAP1 SWAP2 MSTORE DUP3 MLOAD DUP1 DUP5 ADD SWAP1 SWAP4 MSTORE DUP1 DUP4 MSTORE SWAP3 DUP3 ADD DUP4 SWAP1 MSTORE PUSH1 0x80 DUP7 ADD SWAP2 SWAP1 SWAP2 MSTORE PUSH1 0x1 DUP1 SLOAD DUP1 DUP3 ADD DUP3 SSTORE SWAP3 MSTORE DUP5 MLOAD PUSH32 0xB10E2D527612073B26EECDFD717E6A320CF44B4AFAC2B0732D9FCBE2B7FA0CF6 PUSH1 0x6 SWAP1 SWAP4 MUL SWAP3 DUP4 ADD SWAP1 DUP2 SSTORE SWAP3 MLOAD PUSH32 0xB10E2D527612073B26EECDFD717E6A320CF44B4AFAC2B0732D9FCBE2B7FA0CF7 DUP4 ADD DUP1 SLOAD PUSH1 0x1 PUSH1 0x1 PUSH1 0xA0 SHL SUB NOT AND PUSH1 0x1 PUSH1 0x1 PUSH1 0xA0 SHL SUB SWAP1 SWAP3 AND SWAP2 SWAP1 SWAP2 OR SWAP1 SSTORE MLOAD DUP5 SWAP4 PUSH2 0x98A SWAP3 PUSH32 0xB10E2D527612073B26EECDFD717E6A320CF44B4AFAC2B0732D9FCBE2B7FA0CF8 ADD SWAP2 SWAP1 PUSH2 0xBD9 JUMP JUMPDEST POP PUSH1 0x60 DUP3 ADD MLOAD PUSH2 0x9A0 SWAP1 PUSH1 0x4 DUP4 ADD SWAP1 PUSH1 0x2 PUSH2 0xB08 JUMP JUMPDEST POP PUSH1 0x80 DUP3 ADD MLOAD PUSH2 0x9B6 SWAP1 PUSH1 0x5 DUP4 ADD SWAP1 PUSH1 0x2 PUSH2 0xB08 JUMP JUMPDEST POP POP PUSH1 0x2 DUP1 SLOAD SWAP2 POP PUSH1 0x0 PUSH2 0x9C9 DUP4 PUSH2 0x10C7 JUMP JUMPDEST SWAP1 SWAP2 SSTORE POP POP DUP1 MLOAD PUSH1 0x0 SWAP1 DUP2 MSTORE PUSH1 0x4 PUSH1 0x20 SWAP1 DUP2 MSTORE PUSH1 0x40 DUP1 DUP4 KECCAK256 DUP1 SLOAD PUSH1 0x1 PUSH1 0x1 PUSH1 0xA0 SHL SUB NOT AND CALLER SWAP1 DUP2 OR SWAP1 SWAP2 SSTORE DUP4 MSTORE PUSH1 0x5 SWAP1 SWAP2 MSTORE DUP2 KECCAK256 DUP1 SLOAD SWAP2 PUSH2 0xA09 DUP4 PUSH2 0x10C7 JUMP JUMPDEST SWAP1 SWAP2 SSTORE POP POP CALLER PUSH1 0x0 SWAP1 DUP2 MSTORE PUSH1 0x3 PUSH1 0x20 MSTORE PUSH1 0x40 DUP2 KECCAK256 DUP1 SLOAD SWAP2 PUSH2 0xA29 DUP4 PUSH2 0x10C7 JUMP JUMPDEST SWAP2 SWAP1 POP SSTORE POP PUSH31 0x16CE8410FB839C02E2459269E2D434C9C16610549246FA3F808953CE88E8AD DUP2 PUSH1 0x40 MLOAD PUSH2 0xA5C SWAP2 SWAP1 PUSH2 0xFE5 JUMP JUMPDEST PUSH1 0x40 MLOAD DUP1 SWAP2 SUB SWAP1 LOG1 SWAP4 SWAP3 POP POP POP JUMP JUMPDEST PUSH1 0x0 PUSH1 0x1 DUP4 DUP2 SLOAD DUP2 LT PUSH2 0xA80 JUMPI PUSH2 0xA80 PUSH2 0x107B JUMP JUMPDEST SWAP1 PUSH1 0x0 MSTORE PUSH1 0x20 PUSH1 0x0 KECCAK256 SWAP1 PUSH1 0x6 MUL ADD SWAP1 POP DUP2 PUSH1 0xFF AND PUSH1 0x0 EQ ISZERO PUSH2 0xAA7 JUMPI PUSH1 0x4 DUP2 ADD PUSH1 0x0 PUSH2 0x237 JUMP JUMPDEST DUP2 PUSH1 0xFF AND PUSH1 0x1 EQ ISZERO PUSH2 0x2CC JUMPI PUSH1 0x5 DUP2 ADD PUSH1 0x0 PUSH2 0x28D JUMP JUMPDEST PUSH1 0x60 DUP3 DUP3 PUSH1 0x40 MLOAD PUSH1 0x20 ADD PUSH2 0xAD3 SWAP3 SWAP2 SWAP1 PUSH2 0x1296 JUMP JUMPDEST PUSH1 0x40 MLOAD PUSH1 0x20 DUP2 DUP4 SUB SUB DUP2 MSTORE SWAP1 PUSH1 0x40 MSTORE SWAP1 POP SWAP3 SWAP2 POP POP JUMP JUMPDEST PUSH1 0x40 MLOAD DUP1 PUSH1 0x40 ADD PUSH1 0x40 MSTORE DUP1 PUSH1 0x2 SWAP1 PUSH1 0x20 DUP3 MUL DUP1 CALLDATASIZE DUP4 CALLDATACOPY POP SWAP2 SWAP3 SWAP2 POP POP JUMP JUMPDEST PUSH1 0x1 DUP4 ADD SWAP2 DUP4 SWAP1 DUP3 ISZERO PUSH2 0xB8B JUMPI SWAP2 PUSH1 0x20 MUL DUP3 ADD PUSH1 0x0 JUMPDEST DUP4 DUP3 GT ISZERO PUSH2 0xB5C JUMPI DUP4 MLOAD DUP4 DUP3 PUSH2 0x100 EXP DUP2 SLOAD DUP2 PUSH1 0xFF MUL NOT AND SWAP1 DUP4 PUSH1 0xFF AND MUL OR SWAP1 SSTORE POP SWAP3 PUSH1 0x20 ADD SWAP3 PUSH1 0x1 ADD PUSH1 0x20 DUP2 PUSH1 0x0 ADD DIV SWAP3 DUP4 ADD SWAP3 PUSH1 0x1 SUB MUL PUSH2 0xB1E JUMP JUMPDEST DUP1 ISZERO PUSH2 0xB89 JUMPI DUP3 DUP2 PUSH2 0x100 EXP DUP2 SLOAD SWAP1 PUSH1 0xFF MUL NOT AND SWAP1 SSTORE PUSH1 0x1 ADD PUSH1 0x20 DUP2 PUSH1 0x0 ADD DIV SWAP3 DUP4 ADD SWAP3 PUSH1 0x1 SUB MUL PUSH2 0xB5C JUMP JUMPDEST POP JUMPDEST POP PUSH2 0xB97 SWAP3 SWAP2 POP PUSH2 0xC25 JUMP JUMPDEST POP SWAP1 JUMP JUMPDEST PUSH1 0x40 DUP1 MLOAD PUSH1 0xA0 DUP2 ADD DUP3 MSTORE PUSH1 0x0 DUP1 DUP3 MSTORE PUSH1 0x20 DUP3 ADD MSTORE SWAP1 DUP2 ADD PUSH2 0xBBA PUSH2 0xC3A JUMP JUMPDEST DUP2 MSTORE PUSH1 0x20 ADD PUSH2 0xBC7 PUSH2 0xAEA JUMP JUMPDEST DUP2 MSTORE PUSH1 0x20 ADD PUSH2 0xBD4 PUSH2 0xAEA JUMP JUMPDEST SWAP1 MSTORE SWAP1 JUMP JUMPDEST DUP3 PUSH1 0x2 DUP2 ADD SWAP3 DUP3 ISZERO PUSH2 0xC19 JUMPI SWAP2 PUSH1 0x20 MUL DUP3 ADD JUMPDEST DUP3 DUP2 GT ISZERO PUSH2 0xC19 JUMPI DUP3 MLOAD DUP1 MLOAD PUSH2 0xC09 SWAP2 DUP5 SWAP2 PUSH1 0x20 SWAP1 SWAP2 ADD SWAP1 PUSH2 0xC61 JUMP JUMPDEST POP SWAP2 PUSH1 0x20 ADD SWAP2 SWAP1 PUSH1 0x1 ADD SWAP1 PUSH2 0xBEC JUMP JUMPDEST POP PUSH2 0xB97 SWAP3 SWAP2 POP PUSH2 0xCD5 JUMP JUMPDEST JUMPDEST DUP1 DUP3 GT ISZERO PUSH2 0xB97 JUMPI PUSH1 0x0 DUP2 SSTORE PUSH1 0x1 ADD PUSH2 0xC26 JUMP JUMPDEST PUSH1 0x40 MLOAD DUP1 PUSH1 0x40 ADD PUSH1 0x40 MSTORE DUP1 PUSH1 0x2 SWAP1 JUMPDEST PUSH1 0x60 DUP2 MSTORE PUSH1 0x20 ADD SWAP1 PUSH1 0x1 SWAP1 SUB SWAP1 DUP2 PUSH2 0xC49 JUMPI SWAP1 POP POP SWAP1 JUMP JUMPDEST DUP3 DUP1 SLOAD PUSH2 0xC6D SWAP1 PUSH2 0x10E2 JUMP JUMPDEST SWAP1 PUSH1 0x0 MSTORE PUSH1 0x20 PUSH1 0x0 KECCAK256 SWAP1 PUSH1 0x1F ADD PUSH1 0x20 SWAP1 DIV DUP2 ADD SWAP3 DUP3 PUSH2 0xC8F JUMPI PUSH1 0x0 DUP6 SSTORE PUSH2 0xB8B JUMP JUMPDEST DUP3 PUSH1 0x1F LT PUSH2 0xCA8 JUMPI DUP1 MLOAD PUSH1 0xFF NOT AND DUP4 DUP1 ADD OR DUP6 SSTORE PUSH2 0xB8B JUMP JUMPDEST DUP3 DUP1 ADD PUSH1 0x1 ADD DUP6 SSTORE DUP3 ISZERO PUSH2 0xB8B JUMPI SWAP2 DUP3 ADD JUMPDEST DUP3 DUP2 GT ISZERO PUSH2 0xB8B JUMPI DUP3 MLOAD DUP3 SSTORE SWAP2 PUSH1 0x20 ADD SWAP2 SWAP1 PUSH1 0x1 ADD SWAP1 PUSH2 0xCBA JUMP JUMPDEST DUP1 DUP3 GT ISZERO PUSH2 0xB97 JUMPI PUSH1 0x0 PUSH2 0xCE9 DUP3 DUP3 PUSH2 0xCF2 JUMP JUMPDEST POP PUSH1 0x1 ADD PUSH2 0xCD5 JUMP JUMPDEST POP DUP1 SLOAD PUSH2 0xCFE SWAP1 PUSH2 0x10E2 JUMP JUMPDEST PUSH1 0x0 DUP3 SSTORE DUP1 PUSH1 0x1F LT PUSH2 0xD0E JUMPI POP POP JUMP JUMPDEST PUSH1 0x1F ADD PUSH1 0x20 SWAP1 DIV SWAP1 PUSH1 0x0 MSTORE PUSH1 0x20 PUSH1 0x0 KECCAK256 SWAP1 DUP2 ADD SWAP1 PUSH2 0xD2C SWAP2 SWAP1 PUSH2 0xC25 JUMP JUMPDEST POP JUMP JUMPDEST PUSH1 0x0 PUSH1 0x20 DUP3 DUP5 SUB SLT ISZERO PUSH2 0xD41 JUMPI PUSH1 0x0 DUP1 REVERT JUMPDEST POP CALLDATALOAD SWAP2 SWAP1 POP JUMP JUMPDEST DUP1 CALLDATALOAD PUSH1 0xFF DUP2 AND DUP2 EQ PUSH2 0xD59 JUMPI PUSH1 0x0 DUP1 REVERT JUMPDEST SWAP2 SWAP1 POP JUMP JUMPDEST PUSH1 0x0 DUP1 PUSH1 0x40 DUP4 DUP6 SUB SLT ISZERO PUSH2 0xD71 JUMPI PUSH1 0x0 DUP1 REVERT JUMPDEST DUP3 CALLDATALOAD SWAP2 POP PUSH2 0xD81 PUSH1 0x20 DUP5 ADD PUSH2 0xD48 JUMP JUMPDEST SWAP1 POP SWAP3 POP SWAP3 SWAP1 POP JUMP JUMPDEST PUSH1 0x0 PUSH1 0x20 DUP3 DUP5 SUB SLT ISZERO PUSH2 0xD9C JUMPI PUSH1 0x0 DUP1 REVERT JUMPDEST DUP2 CALLDATALOAD PUSH1 0x1 PUSH1 0x1 PUSH1 0xA0 SHL SUB DUP2 AND DUP2 EQ PUSH2 0xDB3 JUMPI PUSH1 0x0 DUP1 REVERT JUMPDEST SWAP4 SWAP3 POP POP POP JUMP JUMPDEST PUSH1 0x40 DUP2 ADD DUP2 DUP4 PUSH1 0x0 JUMPDEST PUSH1 0x2 DUP2 LT ISZERO PUSH2 0xDE2 JUMPI DUP2 MLOAD DUP4 MSTORE PUSH1 0x20 SWAP3 DUP4 ADD SWAP3 SWAP1 SWAP2 ADD SWAP1 PUSH1 0x1 ADD PUSH2 0xDC3 JUMP JUMPDEST POP POP POP SWAP3 SWAP2 POP POP JUMP JUMPDEST PUSH1 0x0 JUMPDEST DUP4 DUP2 LT ISZERO PUSH2 0xE06 JUMPI DUP2 DUP2 ADD MLOAD DUP4 DUP3 ADD MSTORE PUSH1 0x20 ADD PUSH2 0xDEE JUMP JUMPDEST DUP4 DUP2 GT ISZERO PUSH2 0xE15 JUMPI PUSH1 0x0 DUP5 DUP5 ADD MSTORE JUMPDEST POP POP POP POP JUMP JUMPDEST PUSH1 0x0 DUP2 MLOAD DUP1 DUP5 MSTORE PUSH2 0xE33 DUP2 PUSH1 0x20 DUP7 ADD PUSH1 0x20 DUP7 ADD PUSH2 0xDEB JUMP JUMPDEST PUSH1 0x1F ADD PUSH1 0x1F NOT AND SWAP3 SWAP1 SWAP3 ADD PUSH1 0x20 ADD SWAP3 SWAP2 POP POP JUMP JUMPDEST PUSH1 0x20 DUP2 MSTORE PUSH1 0x0 PUSH2 0xDB3 PUSH1 0x20 DUP4 ADD DUP5 PUSH2 0xE1B JUMP JUMPDEST PUSH1 0x0 DUP1 PUSH1 0x0 DUP1 PUSH1 0x0 PUSH1 0xA0 DUP7 DUP9 SUB SLT ISZERO PUSH2 0xE72 JUMPI PUSH1 0x0 DUP1 REVERT JUMPDEST DUP6 CALLDATALOAD SWAP5 POP PUSH2 0xE82 PUSH1 0x20 DUP8 ADD PUSH2 0xD48 JUMP JUMPDEST SWAP4 POP PUSH2 0xE90 PUSH1 0x40 DUP8 ADD PUSH2 0xD48 JUMP JUMPDEST SWAP3 POP PUSH2 0xE9E PUSH1 0x60 DUP8 ADD PUSH2 0xD48 JUMP JUMPDEST SWAP2 POP PUSH2 0xEAC PUSH1 0x80 DUP8 ADD PUSH2 0xD48 JUMP JUMPDEST SWAP1 POP SWAP3 SWAP6 POP SWAP3 SWAP6 SWAP1 SWAP4 POP JUMP JUMPDEST PUSH4 0x4E487B71 PUSH1 0xE0 SHL PUSH1 0x0 MSTORE PUSH1 0x41 PUSH1 0x4 MSTORE PUSH1 0x24 PUSH1 0x0 REVERT JUMPDEST PUSH1 0x0 DUP3 PUSH1 0x1F DUP4 ADD SLT PUSH2 0xEDF JUMPI PUSH1 0x0 DUP1 REVERT JUMPDEST DUP2 CALLDATALOAD PUSH8 0xFFFFFFFFFFFFFFFF DUP1 DUP3 GT ISZERO PUSH2 0xEFA JUMPI PUSH2 0xEFA PUSH2 0xEB8 JUMP JUMPDEST PUSH1 0x40 MLOAD PUSH1 0x1F DUP4 ADD PUSH1 0x1F NOT SWAP1 DUP2 AND PUSH1 0x3F ADD AND DUP2 ADD SWAP1 DUP3 DUP3 GT DUP2 DUP4 LT OR ISZERO PUSH2 0xF22 JUMPI PUSH2 0xF22 PUSH2 0xEB8 JUMP JUMPDEST DUP2 PUSH1 0x40 MSTORE DUP4 DUP2 MSTORE DUP7 PUSH1 0x20 DUP6 DUP9 ADD ADD GT ISZERO PUSH2 0xF3B JUMPI PUSH1 0x0 DUP1 REVERT JUMPDEST DUP4 PUSH1 0x20 DUP8 ADD PUSH1 0x20 DUP4 ADD CALLDATACOPY PUSH1 0x0 PUSH1 0x20 DUP6 DUP4 ADD ADD MSTORE DUP1 SWAP5 POP POP POP POP POP SWAP3 SWAP2 POP POP JUMP JUMPDEST PUSH1 0x0 DUP1 PUSH1 0x40 DUP4 DUP6 SUB SLT ISZERO PUSH2 0xF6E JUMPI PUSH1 0x0 DUP1 REVERT JUMPDEST DUP3 CALLDATALOAD PUSH8 0xFFFFFFFFFFFFFFFF DUP1 DUP3 GT ISZERO PUSH2 0xF86 JUMPI PUSH1 0x0 DUP1 REVERT JUMPDEST PUSH2 0xF92 DUP7 DUP4 DUP8 ADD PUSH2 0xECE JUMP JUMPDEST SWAP4 POP PUSH1 0x20 DUP6 ADD CALLDATALOAD SWAP2 POP DUP1 DUP3 GT ISZERO PUSH2 0xFA8 JUMPI PUSH1 0x0 DUP1 REVERT JUMPDEST POP PUSH2 0xFB5 DUP6 DUP3 DUP7 ADD PUSH2 0xECE JUMP JUMPDEST SWAP2 POP POP SWAP3 POP SWAP3 SWAP1 POP JUMP JUMPDEST DUP1 PUSH1 0x0 JUMPDEST PUSH1 0x2 DUP2 LT ISZERO PUSH2 0xE15 JUMPI DUP2 MLOAD PUSH1 0xFF AND DUP5 MSTORE PUSH1 0x20 SWAP4 DUP5 ADD SWAP4 SWAP1 SWAP2 ADD SWAP1 PUSH1 0x1 ADD PUSH2 0xFC3 JUMP JUMPDEST PUSH1 0x20 DUP1 DUP3 MSTORE DUP3 MLOAD DUP3 DUP3 ADD MSTORE DUP3 DUP2 ADD MLOAD PUSH1 0x1 PUSH1 0x1 PUSH1 0xA0 SHL SUB AND PUSH1 0x40 DUP1 DUP5 ADD SWAP2 SWAP1 SWAP2 MSTORE DUP4 ADD MLOAD PUSH1 0xE0 PUSH1 0x60 DUP5 ADD MSTORE PUSH1 0x0 SWAP2 SWAP1 PUSH2 0x140 DUP5 ADD SWAP1 PUSH2 0x100 DUP6 ADD DUP5 JUMPDEST PUSH1 0x2 DUP2 LT ISZERO PUSH2 0x1050 JUMPI PUSH1 0xFF NOT DUP8 DUP6 SUB ADD DUP3 MSTORE PUSH2 0x103E DUP5 DUP5 MLOAD PUSH2 0xE1B JUMP JUMPDEST SWAP4 POP SWAP2 DUP5 ADD SWAP2 SWAP1 DUP5 ADD SWAP1 PUSH1 0x1 ADD PUSH2 0x1021 JUMP JUMPDEST POP POP POP PUSH1 0x60 DUP6 ADD MLOAD SWAP2 POP PUSH2 0x1067 PUSH1 0x80 DUP6 ADD DUP4 PUSH2 0xFBF JUMP JUMPDEST PUSH1 0x80 DUP6 ADD MLOAD SWAP2 POP PUSH2 0x5B0 PUSH1 0xC0 DUP6 ADD DUP4 PUSH2 0xFBF JUMP JUMPDEST PUSH4 0x4E487B71 PUSH1 0xE0 SHL PUSH1 0x0 MSTORE PUSH1 0x32 PUSH1 0x4 MSTORE PUSH1 0x24 PUSH1 0x0 REVERT JUMPDEST PUSH4 0x4E487B71 PUSH1 0xE0 SHL PUSH1 0x0 MSTORE PUSH1 0x11 PUSH1 0x4 MSTORE PUSH1 0x24 PUSH1 0x0 REVERT JUMPDEST PUSH1 0x0 PUSH1 0xFF DUP3 AND PUSH1 0xFF DUP2 EQ ISZERO PUSH2 0x10BE JUMPI PUSH2 0x10BE PUSH2 0x1091 JUMP JUMPDEST PUSH1 0x1 ADD SWAP3 SWAP2 POP POP JUMP JUMPDEST PUSH1 0x0 PUSH1 0x0 NOT DUP3 EQ ISZERO PUSH2 0x10DB JUMPI PUSH2 0x10DB PUSH2 0x1091 JUMP JUMPDEST POP PUSH1 0x1 ADD SWAP1 JUMP JUMPDEST PUSH1 0x1 DUP2 DUP2 SHR SWAP1 DUP3 AND DUP1 PUSH2 0x10F6 JUMPI PUSH1 0x7F DUP3 AND SWAP2 POP JUMPDEST PUSH1 0x20 DUP3 LT DUP2 EQ ISZERO PUSH2 0x1117 JUMPI PUSH4 0x4E487B71 PUSH1 0xE0 SHL PUSH1 0x0 MSTORE PUSH1 0x22 PUSH1 0x4 MSTORE PUSH1 0x24 PUSH1 0x0 REVERT JUMPDEST POP SWAP2 SWAP1 POP JUMP JUMPDEST PUSH1 0x20 DUP1 DUP3 MSTORE DUP3 SLOAD DUP3 DUP3 ADD MSTORE PUSH1 0x1 DUP1 DUP5 ADD SLOAD PUSH1 0x1 PUSH1 0x1 PUSH1 0xA0 SHL SUB AND PUSH1 0x40 DUP5 ADD MSTORE PUSH1 0xE0 PUSH1 0x60 DUP5 ADD MSTORE PUSH1 0x0 SWAP2 SWAP1 PUSH2 0x140 DUP5 ADD SWAP1 PUSH1 0x2 PUSH2 0x100 DUP7 ADD DUP2 DUP9 ADD DUP7 JUMPDEST DUP4 DUP2 LT ISZERO PUSH2 0x120D JUMPI PUSH1 0xFF NOT DUP10 DUP8 SUB DUP2 ADD DUP5 MSTORE DUP3 SLOAD PUSH1 0x0 SWAP1 DUP1 DUP9 SHR DUP9 DUP3 AND DUP1 PUSH2 0x1182 JUMPI PUSH1 0x7F DUP3 AND SWAP2 POP JUMPDEST DUP12 DUP3 LT DUP2 EQ ISZERO PUSH2 0x11A0 JUMPI PUSH4 0x4E487B71 PUSH1 0xE0 SHL DUP5 MSTORE PUSH1 0x22 PUSH1 0x4 MSTORE PUSH1 0x24 DUP5 REVERT JUMPDEST DUP2 DUP12 MSTORE PUSH1 0x20 DUP12 ADD DUP2 DUP1 ISZERO PUSH2 0x11BB JUMPI PUSH1 0x1 DUP2 EQ PUSH2 0x11CA JUMPI PUSH2 0x11F5 JUMP JUMPDEST DUP7 DUP6 AND DUP3 MSTORE DUP14 DUP3 ADD SWAP6 POP PUSH2 0x11F5 JUMP JUMPDEST PUSH1 0x0 DUP10 DUP2 MSTORE PUSH1 0x20 SWAP1 KECCAK256 PUSH1 0x0 JUMPDEST DUP6 DUP2 LT ISZERO PUSH2 0x11EF JUMPI DUP2 SLOAD DUP5 DUP3 ADD MSTORE SWAP1 DUP14 ADD SWAP1 DUP16 ADD PUSH2 0x11D6 JUMP JUMPDEST DUP4 ADD SWAP7 POP POP JUMPDEST POP SWAP4 SWAP11 POP POP POP SWAP5 DUP10 ADD SWAP5 POP POP POP SWAP1 DUP5 ADD SWAP1 DUP5 ADD PUSH2 0x1159 JUMP JUMPDEST POP POP POP POP PUSH1 0x4 DUP7 ADD SLOAD PUSH1 0xFF DUP1 DUP3 AND PUSH1 0x80 DUP9 ADD MSTORE PUSH1 0x8 SWAP2 DUP3 SHR DUP2 AND PUSH1 0xA0 DUP9 ADD MSTORE PUSH1 0x5 DUP9 ADD SLOAD DUP1 DUP3 AND PUSH1 0xC0 DUP10 ADD MSTORE SWAP1 SWAP2 SHR AND PUSH1 0xE0 DUP7 ADD MSTORE POP PUSH2 0x5B0 JUMP JUMPDEST PUSH1 0x0 PUSH1 0xFF DUP3 AND PUSH1 0xFF DUP5 AND DUP2 PUSH1 0xFF DIV DUP2 GT DUP3 ISZERO ISZERO AND ISZERO PUSH2 0x1269 JUMPI PUSH2 0x1269 PUSH2 0x1091 JUMP JUMPDEST MUL SWAP4 SWAP3 POP POP POP JUMP JUMPDEST PUSH1 0x0 PUSH1 0xFF DUP3 AND PUSH1 0xFF DUP5 AND DUP1 PUSH1 0xFF SUB DUP3 GT ISZERO PUSH2 0x128E JUMPI PUSH2 0x128E PUSH2 0x1091 JUMP JUMPDEST ADD SWAP4 SWAP3 POP POP POP JUMP JUMPDEST PUSH1 0x0 DUP4 MLOAD PUSH2 0x12A8 DUP2 DUP5 PUSH1 0x20 DUP9 ADD PUSH2 0xDEB JUMP JUMPDEST PUSH4 0x103B399 PUSH1 0xE5 SHL SWAP1 DUP4 ADD SWAP1 DUP2 MSTORE DUP4 MLOAD PUSH2 0x12C9 DUP2 PUSH1 0x4 DUP5 ADD PUSH1 0x20 DUP9 ADD PUSH2 0xDEB JUMP JUMPDEST ADD PUSH1 0x4 ADD SWAP5 SWAP4 POP POP POP POP JUMP INVALID LOG2 PUSH5 0x6970667358 0x22 SLT KECCAK256 SUB 0xFC 0xD4 DUP10 0x28 0xAE SHR MUL 0x5C PUSH10 0xD9EA3CBEDB83B1CA1338 BASEFEE CALLDATASIZE 0xE0 ADDMOD PUSH23 0x27C6C34B746CED64736F6C634300080900330000000000 "
		},
		"gasEstimates": {
			"creation": {
				"codeDepositCost": "975000",
				"executionCost": "25249",
				"totalCost": "1000249"
			},
			"external": {
				"createGame(string,string)": "infinite",
				"games(uint256)": "6754",
				"getContributions(address)": "2547",
				"getGameContext(uint256)": "infinite",
				"getGameScore(uint256)": "infinite",
				"getGamesDeployed(address)": "2524",
				"incrementBehind(uint256,uint8)": "infinite",
				"incrementGoal(uint256,uint8)": "infinite",
				"setScore(uint256,uint8,uint8,uint8,uint8)": "infinite"
			},
			"internal": {
				"concatContextStr(string memory,string memory)": "infinite"
			}
		},
		"methodIdentifiers": {
			"createGame(string,string)": "df472d67",
			"games(uint256)": "117a5b90",
			"getContributions(address)": "3f19d043",
			"getGameContext(uint256)": "6f75c3c6",
			"getGameScore(uint256)": "4f72d12a",
			"getGamesDeployed(address)": "aeea9eb1",
			"incrementBehind(uint256,uint8)": "1552922c",
			"incrementGoal(uint256,uint8)": "fe0b7ede",
			"setScore(uint256,uint8,uint8,uint8,uint8)": "da424d8a"
		}
	},
	"abi": [
		{
			"inputs": [],
			"stateMutability": "nonpayable",
			"type": "constructor"
		},
		{
			"anonymous": false,
			"inputs": [
				{
					"components": [
						{
							"internalType": "uint256",
							"name": "gameID",
							"type": "uint256"
						},
						{
							"internalType": "address",
							"name": "gameOwner",
							"type": "address"
						},
						{
							"internalType": "string[2]",
							"name": "teams",
							"type": "string[2]"
						},
						{
							"internalType": "uint8[2]",
							"name": "team1Score",
							"type": "uint8[2]"
						},
						{
							"internalType": "uint8[2]",
							"name": "team2Score",
							"type": "uint8[2]"
						}
					],
					"indexed": false,
					"internalType": "struct AflScoreTracker.Game",
					"name": "",
					"type": "tuple"
				}
			],
			"name": "gameCreated",
			"type": "event"
		},
		{
			"anonymous": false,
			"inputs": [
				{
					"components": [
						{
							"internalType": "uint256",
							"name": "gameID",
							"type": "uint256"
						},
						{
							"internalType": "address",
							"name": "gameOwner",
							"type": "address"
						},
						{
							"internalType": "string[2]",
							"name": "teams",
							"type": "string[2]"
						},
						{
							"internalType": "uint8[2]",
							"name": "team1Score",
							"type": "uint8[2]"
						},
						{
							"internalType": "uint8[2]",
							"name": "team2Score",
							"type": "uint8[2]"
						}
					],
					"indexed": false,
					"internalType": "struct AflScoreTracker.Game",
					"name": "",
					"type": "tuple"
				}
			],
			"name": "gameScoreUpdated",
			"type": "event"
		},
		{
			"inputs": [
				{
					"internalType": "string",
					"name": "_teamA",
					"type": "string"
				},
				{
					"internalType": "string",
					"name": "_teamB",
					"type": "string"
				}
			],
			"name": "createGame",
			"outputs": [
				{
					"components": [
						{
							"internalType": "uint256",
							"name": "gameID",
							"type": "uint256"
						},
						{
							"internalType": "address",
							"name": "gameOwner",
							"type": "address"
						},
						{
							"internalType": "string[2]",
							"name": "teams",
							"type": "string[2]"
						},
						{
							"internalType": "uint8[2]",
							"name": "team1Score",
							"type": "uint8[2]"
						},
						{
							"internalType": "uint8[2]",
							"name": "team2Score",
							"type": "uint8[2]"
						}
					],
					"internalType": "struct AflScoreTracker.Game",
					"name": "",
					"type": "tuple"
				}
			],
			"stateMutability": "nonpayable",
			"type": "function"
		},
		{
			"inputs": [
				{
					"internalType": "uint256",
					"name": "",
					"type": "uint256"
				}
			],
			"name": "games",
			"outputs": [
				{
					"internalType": "uint256",
					"name": "gameID",
					"type": "uint256"
				},
				{
					"internalType": "address",
					"name": "gameOwner",
					"type": "address"
				}
			],
			"stateMutability": "view",
			"type": "function"
		},
		{
			"inputs": [
				{
					"internalType": "address",
					"name": "_contributer",
					"type": "address"
				}
			],
			"name": "getContributions",
			"outputs": [
				{
					"internalType": "uint256",
					"name": "",
					"type": "uint256"
				}
			],
			"stateMutability": "view",
			"type": "function"
		},
		{
			"inputs": [
				{
					"internalType": "uint256",
					"name": "_gameID",
					"type": "uint256"
				}
			],
			"name": "getGameContext",
			"outputs": [
				{
					"internalType": "string",
					"name": "",
					"type": "string"
				}
			],
			"stateMutability": "view",
			"type": "function"
		},
		{
			"inputs": [
				{
					"internalType": "uint256",
					"name": "_gameID",
					"type": "uint256"
				}
			],
			"name": "getGameScore",
			"outputs": [
				{
					"internalType": "uint256[2]",
					"name": "",
					"type": "uint256[2]"
				}
			],
			"stateMutability": "view",
			"type": "function"
		},
		{
			"inputs": [
				{
					"internalType": "address",
					"name": "_gameDeployer",
					"type": "address"
				}
			],
			"name": "getGamesDeployed",
			"outputs": [
				{
					"internalType": "uint256",
					"name": "",
					"type": "uint256"
				}
			],
			"stateMutability": "view",
			"type": "function"
		},
		{
			"inputs": [
				{
					"internalType": "uint256",
					"name": "_gameID",
					"type": "uint256"
				},
				{
					"internalType": "uint8",
					"name": "_teamID",
					"type": "uint8"
				}
			],
			"name": "incrementBehind",
			"outputs": [],
			"stateMutability": "nonpayable",
			"type": "function"
		},
		{
			"inputs": [
				{
					"internalType": "uint256",
					"name": "_gameID",
					"type": "uint256"
				},
				{
					"internalType": "uint8",
					"name": "_teamID",
					"type": "uint8"
				}
			],
			"name": "incrementGoal",
			"outputs": [],
			"stateMutability": "nonpayable",
			"type": "function"
		},
		{
			"inputs": [
				{
					"internalType": "uint256",
					"name": "_gameID",
					"type": "uint256"
				},
				{
					"internalType": "uint8",
					"name": "_team1Goals",
					"type": "uint8"
				},
				{
					"internalType": "uint8",
					"name": "_team1Behinds",
					"type": "uint8"
				},
				{
					"internalType": "uint8",
					"name": "_team2Goals",
					"type": "uint8"
				},
				{
					"internalType": "uint8",
					"name": "_team2Behings",
					"type": "uint8"
				}
			],
			"name": "setScore",
			"outputs": [],
			"stateMutability": "nonpayable",
			"type": "function"
		}
	]
}