{
	"data": {
		"bytecode": {
			"linkReferences": {},
			"object": "608060405234801561001057600080fd5b50336000806101000a81548173ffffffffffffffffffffffffffffffffffffffff021916908373ffffffffffffffffffffffffffffffffffffffff1602179055506133b2806100606000396000f3fe608060405234801561001057600080fd5b506004361061009e5760003560e01c8063aeea9eb111610066578063aeea9eb114610181578063da424d8a146101b1578063df472d67146101cd578063e258c02c146101fd578063fe0b7ede146102195761009e565b8063117a5b90146100a35780631552922c146100d55780633f19d043146100f15780634f72d12a146101215780636f75c3c614610151575b600080fd5b6100bd60048036038101906100b89190611b09565b610235565b6040516100cc939291906129a5565b60405180910390f35b6100ef60048036038101906100ea9190611b36565b61029c565b005b61010b60048036038101906101069190611a5b565b610479565b604051610118919061298a565b60405180910390f35b61013b60048036038101906101369190611b09565b6104c2565b6040516101489190612909565b60405180910390f35b61016b60048036038101906101669190611b09565b61061a565b6040516101789190612924565b60405180910390f35b61019b60048036038101906101969190611a5b565b6109c1565b6040516101a8919061298a565b60405180910390f35b6101cb60048036038101906101c69190611b76565b610a0a565b005b6101e760048036038101906101e29190611a88565b610e04565b6040516101f49190612946565b60405180910390f35b61021760048036038101906102129190611b09565b6111bf565b005b610233600480360381019061022e9190611b36565b611515565b005b6001818154811061024557600080fd5b90600052602060002090600702016000915090508060000154908060010160009054906101000a900473ffffffffffffffffffffffffffffffffffffffff16908060060160009054906101000a900460ff16905083565b6000600183815481106102b2576102b161312e565b5b906000526020600020906007020190508060060160009054906101000a900460ff16156102de57600080fd5b600060018111156102f2576102f16130d0565b5b826001811115610305576103046130d0565b5b141561036557806004016001600281106103225761032161312e565b5b6020918282040191900681819054906101000a900460ff168092919061034790613077565b91906101000a81548160ff021916908360ff160217905550506103e8565b600180811115610378576103776130d0565b5b82600181111561038b5761038a6130d0565b5b14156103e757806005016001600281106103a8576103a761312e565b5b6020918282040191900681819054906101000a900460ff16809291906103cd90613077565b91906101000a81548160ff021916908360ff160217905550505b5b600360003373ffffffffffffffffffffffffffffffffffffffff1673ffffffffffffffffffffffffffffffffffffffff16815260200190815260200160002060008154809291906104389061302e565b91905055507f0a05181d857066c04504026d4bb187a8386f4e6d20b4437e50fabcdf106769e38160405161046c9190612968565b60405180910390a1505050565b6000600360008373ffffffffffffffffffffffffffffffffffffffff1673ffffffffffffffffffffffffffffffffffffffff168152602001908152602001600020549050919050565b6104ca6116f2565b6000600183815481106104e0576104df61312e565b5b9060005260206000209060070201905060008060018360040160016002811061050c5761050b61312e565b5b602091828204019190069054906101000a900460ff1660ff1661052f9190612b48565b6006846004016000600281106105485761054761312e565b5b602091828204019190069054906101000a900460ff1660ff1661056b9190612b48565b6105759190612af2565b91506001836005016001600281106105905761058f61312e565b5b602091828204019190069054906101000a900460ff1660ff166105b39190612b48565b6006846005016000600281106105cc576105cb61312e565b5b602091828204019190069054906101000a900460ff1660ff166105ef9190612b48565b6105f99190612af2565b90506040518060400160405280838152602001828152509350505050919050565b60606000600183815481106106325761063161312e565b5b90600052602060002090600702016040518060c0016040529081600082015481526020016001820160009054906101000a900473ffffffffffffffffffffffffffffffffffffffff1673ffffffffffffffffffffffffffffffffffffffff1673ffffffffffffffffffffffffffffffffffffffff16815260200160028201600280602002604051908101604052809291906000905b8282101561076a5783820180546106dd90612c6e565b80601f016020809104026020016040519081016040528092919081815260200182805461070990612c6e565b80156107565780601f1061072b57610100808354040283529160200191610756565b820191906000526020600020905b81548152906001019060200180831161073957829003601f168201915b5050505050815260200190600101906106c7565b505050508152602001600482016002806020026040519081016040528092919082600280156107d4576020028201916000905b82829054906101000a900460ff1660ff168152602001906001019060208260000104928301926001038202915080841161079d5790505b505050505081526020016005820160028060200260405190810160405280929190826002801561083f576020028201916000905b82829054906101000a900460ff1660ff16815260200190600101906020826000010492830192600103820291508084116108085790505b505050505081526020016006820160009054906101000a900460ff16151515158152505090506060600115158260a00151151514156108b5576040518060400160405280600b81526020017f46696e616c2053636f726500000000000000000000000000000000000000000081525090506108ee565b6040518060400160405280600781526020017f4f6e676f696e670000000000000000000000000000000000000000000000000081525090505b81604001516000600281106109065761090561312e565b5b60200201516040518060400160405280600481526020017f207673200000000000000000000000000000000000000000000000000000000081525083604001516001600281106109595761095861312e565b5b60200201516040518060400160405280600281526020017f3a20000000000000000000000000000000000000000000000000000000000000815250846040516020016109a99594939291906128be565b60405160208183030381529060405292505050919050565b6000600560008373ffffffffffffffffffffffffffffffffffffffff1673ffffffffffffffffffffffffffffffffffffffff168152602001908152602001600020549050919050565b60018581548110610a1e57610a1d61312e565b5b90600052602060002090600702016040518060c0016040529081600082015481526020016001820160009054906101000a900473ffffffffffffffffffffffffffffffffffffffff1673ffffffffffffffffffffffffffffffffffffffff1673ffffffffffffffffffffffffffffffffffffffff16815260200160028201600280602002604051908101604052809291906000905b82821015610b56578382018054610ac990612c6e565b80601f0160208091040260200160405190810160405280929190818152602001828054610af590612c6e565b8015610b425780601f10610b1757610100808354040283529160200191610b42565b820191906000526020600020905b815481529060010190602001808311610b2557829003601f168201915b505050505081526020019060010190610ab3565b50505050815260200160048201600280602002604051908101604052809291908260028015610bc0576020028201916000905b82829054906101000a900460ff1660ff1681526020019060010190602082600001049283019260010382029150808411610b895790505b5050505050815260200160058201600280602002604051908101604052809291908260028015610c2b576020028201916000905b82829054906101000a900460ff1660ff1681526020019060010190602082600001049283019260010382029150808411610bf45790505b505050505081526020016006820160009054906101000a900460ff1615151515815250503373ffffffffffffffffffffffffffffffffffffffff16816020015173ffffffffffffffffffffffffffffffffffffffff161480610cd857503373ffffffffffffffffffffffffffffffffffffffff1660008054906101000a900473ffffffffffffffffffffffffffffffffffffffff1673ffffffffffffffffffffffffffffffffffffffff16145b610ce157600080fd5b600060018781548110610cf757610cf661312e565b5b9060005260206000209060070201905060405180604001604052808760ff1660ff1681526020018660ff1660ff1681525081600401906002610d3a929190611714565b5060405180604001604052808560ff1660ff1681526020018460ff1660ff1681525081600501906002610d6e929190611714565b50600360003373ffffffffffffffffffffffffffffffffffffffff1673ffffffffffffffffffffffffffffffffffffffff1681526020019081526020016000206000815480929190610dbf9061302e565b91905055507f0a05181d857066c04504026d4bb187a8386f4e6d20b4437e50fabcdf106769e381604051610df39190612968565b60405180910390a150505050505050565b610e0c6117ae565b610e146117ae565b60025481600001818152505033816020019073ffffffffffffffffffffffffffffffffffffffff16908173ffffffffffffffffffffffffffffffffffffffff168152505085858080601f016020809104026020016040519081016040528093929190818152602001838380828437600081840152601f19601f820116905080830192505050505050508160400151600060028110610eb557610eb461312e565b5b602002018190525083838080601f016020809104026020016040519081016040528093929190818152602001838380828437600081840152601f19601f820116905080830192505050505050508160400151600160028110610f1a57610f1961312e565b5b60200201819052506040518060400160405280600060ff168152602001600060ff1681525081606001819052506040518060400160405280600060ff168152602001600060ff16815250816080018190525060008160a001901515908115158152505060018190806001815401808255809150506001900390600052602060002090600702016000909190919091506000820151816000015560208201518160010160006101000a81548173ffffffffffffffffffffffffffffffffffffffff021916908373ffffffffffffffffffffffffffffffffffffffff16021790555060408201518160020190600261101192919061180e565b50606082015181600401906002611029929190611714565b50608082015181600501906002611041929190611714565b5060a08201518160060160006101000a81548160ff0219169083151502179055505050600260008154809291906110779061302e565b919050555033600460008360000151815260200190815260200160002060006101000a81548173ffffffffffffffffffffffffffffffffffffffff021916908373ffffffffffffffffffffffffffffffffffffffff160217905550600560003373ffffffffffffffffffffffffffffffffffffffff1673ffffffffffffffffffffffffffffffffffffffff16815260200190815260200160002060008154809291906111229061302e565b9190505550600360003373ffffffffffffffffffffffffffffffffffffffff1673ffffffffffffffffffffffffffffffffffffffff16815260200190815260200160002060008154809291906111779061302e565b91905055507f81f7bb6ac8c26bf3590ed3b94651a1e68b4e42da27bc4971c2f62617da8b631a816040516111ab9190612946565b60405180910390a180915050949350505050565b600181815481106111d3576111d261312e565b5b90600052602060002090600702016040518060c0016040529081600082015481526020016001820160009054906101000a900473ffffffffffffffffffffffffffffffffffffffff1673ffffffffffffffffffffffffffffffffffffffff1673ffffffffffffffffffffffffffffffffffffffff16815260200160028201600280602002604051908101604052809291906000905b8282101561130b57838201805461127e90612c6e565b80601f01602080910402602001604051908101604052809291908181526020018280546112aa90612c6e565b80156112f75780601f106112cc576101008083540402835291602001916112f7565b820191906000526020600020905b8154815290600101906020018083116112da57829003601f168201915b505050505081526020019060010190611268565b50505050815260200160048201600280602002604051908101604052809291908260028015611375576020028201916000905b82829054906101000a900460ff1660ff168152602001906001019060208260000104928301926001038202915080841161133e5790505b50505050508152602001600582016002806020026040519081016040528092919082600280156113e0576020028201916000905b82829054906101000a900460ff1660ff16815260200190600101906020826000010492830192600103820291508084116113a95790505b505050505081526020016006820160009054906101000a900460ff1615151515815250503373ffffffffffffffffffffffffffffffffffffffff16816020015173ffffffffffffffffffffffffffffffffffffffff16148061148d57503373ffffffffffffffffffffffffffffffffffffffff1660008054906101000a900473ffffffffffffffffffffffffffffffffffffffff1673ffffffffffffffffffffffffffffffffffffffff16145b61149657600080fd5b6000600183815481106114ac576114ab61312e565b5b9060005260206000209060070201905060018160060160006101000a81548160ff0219169083151502179055507f83828e89cd2d7bf8161b52806aff7eb377e41d7fd8c1a5f9b960601207b85080816040516115089190612968565b60405180910390a1505050565b60006001838154811061152b5761152a61312e565b5b906000526020600020906007020190508060060160009054906101000a900460ff161561155757600080fd5b6000600181111561156b5761156a6130d0565b5b82600181111561157e5761157d6130d0565b5b14156115de578060040160006002811061159b5761159a61312e565b5b6020918282040191900681819054906101000a900460ff16809291906115c090613077565b91906101000a81548160ff021916908360ff16021790555050611661565b6001808111156115f1576115f06130d0565b5b826001811115611604576116036130d0565b5b141561166057806005016000600281106116215761162061312e565b5b6020918282040191900681819054906101000a900460ff168092919061164690613077565b91906101000a81548160ff021916908360ff160217905550505b5b600360003373ffffffffffffffffffffffffffffffffffffffff1673ffffffffffffffffffffffffffffffffffffffff16815260200190815260200160002060008154809291906116b19061302e565b91905055507f0a05181d857066c04504026d4bb187a8386f4e6d20b4437e50fabcdf106769e3816040516116e59190612968565b60405180910390a1505050565b6040518060400160405280600290602082028036833780820191505090505090565b826002601f0160209004810192821561179d5791602002820160005b8382111561176e57835183826101000a81548160ff021916908360ff1602179055509260200192600101602081600001049283019260010302611730565b801561179b5782816101000a81549060ff021916905560010160208160000104928301926001030261176e565b505b5090506117aa9190611861565b5090565b6040518060c0016040528060008152602001600073ffffffffffffffffffffffffffffffffffffffff1681526020016117e561187e565b81526020016117f26118a5565b81526020016117ff6118a5565b81526020016000151581525090565b8260028101928215611850579160200282015b8281111561184f57825182908051906020019061183f9291906118c7565b5091602001919060010190611821565b5b50905061185d919061194d565b5090565b5b8082111561187a576000816000905550600101611862565b5090565b60405180604001604052806002905b606081526020019060019003908161188d5790505090565b6040518060400160405280600290602082028036833780820191505090505090565b8280546118d390612c6e565b90600052602060002090601f0160209004810192826118f5576000855561193c565b82601f1061190e57805160ff191683800117855561193c565b8280016001018555821561193c579182015b8281111561193b578251825591602001919060010190611920565b5b5090506119499190611861565b5090565b5b8082111561196d57600081816119649190611971565b5060010161194e565b5090565b50805461197d90612c6e565b6000825580601f1061198f57506119ae565b601f0160209004906000526020600020908101906119ad9190611861565b5b50565b6000813590506119c081613327565b92915050565b6000813590506119d58161333e565b92915050565b60008083601f8401126119f1576119f0613162565b5b8235905067ffffffffffffffff811115611a0e57611a0d61315d565b5b602083019150836001820283011115611a2a57611a29613167565b5b9250929050565b600081359050611a408161334e565b92915050565b600081359050611a5581613365565b92915050565b600060208284031215611a7157611a70613171565b5b6000611a7f848285016119b1565b91505092915050565b60008060008060408587031215611aa257611aa1613171565b5b600085013567ffffffffffffffff811115611ac057611abf61316c565b5b611acc878288016119db565b9450945050602085013567ffffffffffffffff811115611aef57611aee61316c565b5b611afb878288016119db565b925092505092959194509250565b600060208284031215611b1f57611b1e613171565b5b6000611b2d84828501611a31565b91505092915050565b60008060408385031215611b4d57611b4c613171565b5b6000611b5b85828601611a31565b9250506020611b6c858286016119c6565b9150509250929050565b600080600080600060a08688031215611b9257611b91613171565b5b6000611ba088828901611a31565b9550506020611bb188828901611a46565b9450506040611bc288828901611a46565b9350506060611bd388828901611a46565b9250506080611be488828901611a46565b9150509295509295909350565b6000611bfd838361266b565b905092915050565b6000611c1183836126dd565b905092915050565b6000611c258383612891565b60208301905092915050565b6000611c3d83836128af565b60208301905092915050565b611c5281612be6565b82525050565b611c6181612be6565b82525050565b6000611c7282612a23565b611c7c8185612aa4565b935083602082028501611c8e856129dc565b8060005b85811015611cca5784840389528151611cab8582611bf1565b9450611cb683612a70565b925060208a01995050600181019050611c92565b50829750879550505050505092915050565b6000611ce782612a2e565b611cf18185612aa4565b935083602082028501611d03856129e6565b8060005b85811015611d3e57848403895281611d1f8582611c05565b9450611d2a83612a7d565b925060208a01995050600181019050611d07565b50829750879550505050505092915050565b611d5981612a39565b611d638184612aaf565b9250611d6e826129f0565b8060005b83811015611d9f578151611d868782611c19565b9650611d9183612a8a565b925050600181019050611d72565b505050505050565b611db081612a44565b611dba8184612aba565b9250611dc5826129fa565b8060005b83811015611df6578151611ddd8782611c31565b9650611de883612a97565b925050600181019050611dc9565b505050505050565b611e0781612a4f565b611e118184612aba565b925082611e1d83612a04565b60008015612149575b83600160200382011015612148578154611e4887611e4383612cee565b6128af565b602087019650611e6087611e5b83612e0c565b6128af565b602087019650611e7887611e7383612f2a565b6128af565b602087019650611e9087611e8b83612f78565b6128af565b602087019650611ea887611ea383612f92565b6128af565b602087019650611ec087611ebb83612fac565b6128af565b602087019650611ed887611ed383612fc6565b6128af565b602087019650611ef087611eeb83612fe0565b6128af565b602087019650611f0887611f0383612ffa565b6128af565b602087019650611f2087611f1b83613014565b6128af565b602087019650611f3887611f3383612d08565b6128af565b602087019650611f5087611f4b83612d22565b6128af565b602087019650611f6887611f6383612d3c565b6128af565b602087019650611f8087611f7b83612d56565b6128af565b602087019650611f9887611f9383612d70565b6128af565b602087019650611fb087611fab83612d8a565b6128af565b602087019650611fc887611fc383612da4565b6128af565b602087019650611fe087611fdb83612dbe565b6128af565b602087019650611ff887611ff383612dd8565b6128af565b6020870196506120108761200b83612df2565b6128af565b6020870196506120288761202383612e26565b6128af565b6020870196506120408761203b83612e40565b6128af565b6020870196506120588761205383612e5a565b6128af565b6020870196506120708761206b83612e74565b6128af565b6020870196506120888761208383612e8e565b6128af565b6020870196506120a08761209b83612ea8565b6128af565b6020870196506120b8876120b383612ec2565b6128af565b6020870196506120d0876120cb83612edc565b6128af565b6020870196506120e8876120e383612ef6565b6128af565b602087019650612100876120fb83612f10565b6128af565b6020870196506121188761211383612f44565b6128af565b6020870196506121308761212b83612f5e565b6128af565b60208701965060018301925050602081019050611e26565b5b6001156126145781546001156121785761216b8761216683612cee565b6128af565b6020870196506001820191505b60011561219e576121918761218c83612e0c565b6128af565b6020870196506001820191505b6000156121c4576121b7876121b283612f2a565b6128af565b6020870196506001820191505b6000156121ea576121dd876121d883612f78565b6128af565b6020870196506001820191505b60001561221057612203876121fe83612f92565b6128af565b6020870196506001820191505b600015612236576122298761222483612fac565b6128af565b6020870196506001820191505b60001561225c5761224f8761224a83612fc6565b6128af565b6020870196506001820191505b600015612282576122758761227083612fe0565b6128af565b6020870196506001820191505b6000156122a85761229b8761229683612ffa565b6128af565b6020870196506001820191505b6000156122ce576122c1876122bc83613014565b6128af565b6020870196506001820191505b6000156122f4576122e7876122e283612d08565b6128af565b6020870196506001820191505b60001561231a5761230d8761230883612d22565b6128af565b6020870196506001820191505b600015612340576123338761232e83612d3c565b6128af565b6020870196506001820191505b600015612366576123598761235483612d56565b6128af565b6020870196506001820191505b60001561238c5761237f8761237a83612d70565b6128af565b6020870196506001820191505b6000156123b2576123a5876123a083612d8a565b6128af565b6020870196506001820191505b6000156123d8576123cb876123c683612da4565b6128af565b6020870196506001820191505b6000156123fe576123f1876123ec83612dbe565b6128af565b6020870196506001820191505b600015612424576124178761241283612dd8565b6128af565b6020870196506001820191505b60001561244a5761243d8761243883612df2565b6128af565b6020870196506001820191505b600015612470576124638761245e83612e26565b6128af565b6020870196506001820191505b600015612496576124898761248483612e40565b6128af565b6020870196506001820191505b6000156124bc576124af876124aa83612e5a565b6128af565b6020870196506001820191505b6000156124e2576124d5876124d083612e74565b6128af565b6020870196506001820191505b600015612508576124fb876124f683612e8e565b6128af565b6020870196506001820191505b60001561252e576125218761251c83612ea8565b6128af565b6020870196506001820191505b600015612554576125478761254283612ec2565b6128af565b6020870196506001820191505b60001561257a5761256d8761256883612edc565b6128af565b6020870196506001820191505b6000156125a0576125938761258e83612ef6565b6128af565b6020870196506001820191505b6000156125c6576125b9876125b483612f10565b6128af565b6020870196506001820191505b6000156125ec576125df876125da83612f44565b6128af565b6020870196506001820191505b600015612612576126058761260083612f5e565b6128af565b6020870196506001820191505b505b505050505050565b61262581612bf8565b82525050565b61263481612bf8565b82525050565b600061264582612a5a565b61264f8185612ac5565b935061265f818560208601612c3b565b80840191505092915050565b600061267682612a65565b6126808185612ad0565b9350612690818560208601612c3b565b61269981613176565b840191505092915050565b60006126af82612a65565b6126b98185612ae1565b93506126c9818560208601612c3b565b6126d281613176565b840191505092915050565b600081546126ea81612c6e565b6126f48186612ad0565b9450600182166000811461270f576001811461272157612754565b60ff1983168652602086019350612754565b61272a85612a0e565b60005b8381101561274c5781548189015260018201915060208101905061272d565b808801955050505b50505092915050565b6000610100830160008301516127766000860182612891565b5060208301516127896020860182611c49565b50604083015184820360408601526127a18282611c67565b91505060608301516127b66060860182611da7565b5060808301516127c960a0860182611da7565b5060a08301516127dc60e086018261261c565b508091505092915050565b6000610100830160008084015490506127ff81612cd4565b61280c6000870182612891565b506001840154905061281d81612ca0565b61282a6020870182611c49565b506002840185830360408701526128418382611cdc565b925050600484016128556060870182611dfe565b506005840161286760a0870182611dfe565b506006840154905061287881612cba565b61288560e087018261261c565b50819250505092915050565b61289a81612c24565b82525050565b6128a981612c24565b82525050565b6128b881612c2e565b82525050565b60006128ca828861263a565b91506128d6828761263a565b91506128e2828661263a565b91506128ee828561263a565b91506128fa828461263a565b91508190509695505050505050565b600060408201905061291e6000830184611d50565b92915050565b6000602082019050818103600083015261293e81846126a4565b905092915050565b60006020820190508181036000830152612960818461275d565b905092915050565b6000602082019050818103600083015261298281846127e7565b905092915050565b600060208201905061299f60008301846128a0565b92915050565b60006060820190506129ba60008301866128a0565b6129c76020830185611c58565b6129d4604083018461262b565b949350505050565b6000819050919050565b6000819050919050565b6000819050919050565b6000819050919050565b6000819050919050565b60008190508160005260206000209050919050565b600060029050919050565b600060029050919050565b600060029050919050565b600060029050919050565b600060029050919050565b600081519050919050565b600081519050919050565b6000602082019050919050565b6000600182019050919050565b6000602082019050919050565b6000602082019050919050565b600081905092915050565b600081905092915050565b600081905092915050565b600081905092915050565b600082825260208201905092915050565b600082825260208201905092915050565b6000612afd82612c24565b9150612b0883612c24565b9250827fffffffffffffffffffffffffffffffffffffffffffffffffffffffffffffffff03821115612b3d57612b3c6130a1565b5b828201905092915050565b6000612b5382612c24565b9150612b5e83612c24565b9250817fffffffffffffffffffffffffffffffffffffffffffffffffffffffffffffffff0483118215151615612b9757612b966130a1565b5b828202905092915050565b600073ffffffffffffffffffffffffffffffffffffffff82169050919050565b600060ff82169050919050565b6000819050919050565b600060ff82169050919050565b6000612bf182612c04565b9050919050565b60008115159050919050565b600073ffffffffffffffffffffffffffffffffffffffff82169050919050565b6000819050919050565b600060ff82169050919050565b60005b83811015612c59578082015181840152602081019050612c3e565b83811115612c68576000848401525b50505050565b60006002820490506001821680612c8657607f821691505b60208210811415612c9a57612c996130ff565b5b50919050565b6000612cb3612cae83613187565b612ba2565b9050919050565b6000612ccd612cc883613187565b612bc2565b9050919050565b6000612ce7612ce283613187565b612bcf565b9050919050565b6000612d01612cfc83613187565b612bd9565b9050919050565b6000612d1b612d16836132f3565b612bd9565b9050919050565b6000612d35612d3083613300565b612bd9565b9050919050565b6000612d4f612d4a8361331a565b612bd9565b9050919050565b6000612d69612d6483613194565b612bd9565b9050919050565b6000612d83612d7e836131a1565b612bd9565b9050919050565b6000612d9d612d98836131ae565b612bd9565b9050919050565b6000612db7612db2836131bb565b612bd9565b9050919050565b6000612dd1612dcc836131c8565b612bd9565b9050919050565b6000612deb612de6836131d5565b612bd9565b9050919050565b6000612e05612e00836131e2565b612bd9565b9050919050565b6000612e1f612e1a8361330d565b612bd9565b9050919050565b6000612e39612e34836131ef565b612bd9565b9050919050565b6000612e53612e4e836131fc565b612bd9565b9050919050565b6000612e6d612e6883613216565b612bd9565b9050919050565b6000612e87612e8283613223565b612bd9565b9050919050565b6000612ea1612e9c83613230565b612bd9565b9050919050565b6000612ebb612eb68361323d565b612bd9565b9050919050565b6000612ed5612ed08361324a565b612bd9565b9050919050565b6000612eef612eea83613257565b612bd9565b9050919050565b6000612f09612f0483613264565b612bd9565b9050919050565b6000612f23612f1e83613271565b612bd9565b9050919050565b6000612f3d612f3883613209565b612bd9565b9050919050565b6000612f57612f528361327e565b612bd9565b9050919050565b6000612f71612f6c8361328b565b612bd9565b9050919050565b6000612f8b612f8683613298565b612bd9565b9050919050565b6000612fa5612fa0836132a5565b612bd9565b9050919050565b6000612fbf612fba836132b2565b612bd9565b9050919050565b6000612fd9612fd4836132bf565b612bd9565b9050919050565b6000612ff3612fee836132cc565b612bd9565b9050919050565b600061300d613008836132d9565b612bd9565b9050919050565b6000613027613022836132e6565b612bd9565b9050919050565b600061303982612c24565b91507fffffffffffffffffffffffffffffffffffffffffffffffffffffffffffffffff82141561306c5761306b6130a1565b5b600182019050919050565b600061308282612c2e565b915060ff821415613096576130956130a1565b5b600182019050919050565b7f4e487b7100000000000000000000000000000000000000000000000000000000600052601160045260246000fd5b7f4e487b7100000000000000000000000000000000000000000000000000000000600052602160045260246000fd5b7f4e487b7100000000000000000000000000000000000000000000000000000000600052602260045260246000fd5b7f4e487b7100000000000000000000000000000000000000000000000000000000600052603260045260246000fd5b600080fd5b600080fd5b600080fd5b600080fd5b600080fd5b6000601f19601f8301169050919050565b60008160001c9050919050565b60008160681c9050919050565b60008160701c9050919050565b60008160781c9050919050565b60008160801c9050919050565b60008160881c9050919050565b60008160901c9050919050565b60008160981c9050919050565b60008160a01c9050919050565b60008160a81c9050919050565b60008160101c9050919050565b60008160b01c9050919050565b60008160b81c9050919050565b60008160c01c9050919050565b60008160c81c9050919050565b60008160d01c9050919050565b60008160d81c9050919050565b60008160e01c9050919050565b60008160e81c9050919050565b60008160f01c9050919050565b60008160f81c9050919050565b60008160181c9050919050565b60008160201c9050919050565b60008160281c9050919050565b60008160301c9050919050565b60008160381c9050919050565b60008160401c9050919050565b60008160481c9050919050565b60008160501c9050919050565b60008160581c9050919050565b60008160081c9050919050565b60008160601c9050919050565b61333081612be6565b811461333b57600080fd5b50565b6002811061334b57600080fd5b50565b61335781612c24565b811461336257600080fd5b50565b61336e81612c2e565b811461337957600080fd5b5056fea2646970667358221220c5faad834774d37f30b16072f8214439a5d4b15f55d764d78e92b45798cb093d64736f6c63430008070033",
			"opcodes": "PUSH1 0x80 PUSH1 0x40 MSTORE CALLVALUE DUP1 ISZERO PUSH2 0x10 JUMPI PUSH1 0x0 DUP1 REVERT JUMPDEST POP CALLER PUSH1 0x0 DUP1 PUSH2 0x100 EXP DUP2 SLOAD DUP2 PUSH20 0xFFFFFFFFFFFFFFFFFFFFFFFFFFFFFFFFFFFFFFFF MUL NOT AND SWAP1 DUP4 PUSH20 0xFFFFFFFFFFFFFFFFFFFFFFFFFFFFFFFFFFFFFFFF AND MUL OR SWAP1 SSTORE POP PUSH2 0x33B2 DUP1 PUSH2 0x60 PUSH1 0x0 CODECOPY PUSH1 0x0 RETURN INVALID PUSH1 0x80 PUSH1 0x40 MSTORE CALLVALUE DUP1 ISZERO PUSH2 0x10 JUMPI PUSH1 0x0 DUP1 REVERT JUMPDEST POP PUSH1 0x4 CALLDATASIZE LT PUSH2 0x9E JUMPI PUSH1 0x0 CALLDATALOAD PUSH1 0xE0 SHR DUP1 PUSH4 0xAEEA9EB1 GT PUSH2 0x66 JUMPI DUP1 PUSH4 0xAEEA9EB1 EQ PUSH2 0x181 JUMPI DUP1 PUSH4 0xDA424D8A EQ PUSH2 0x1B1 JUMPI DUP1 PUSH4 0xDF472D67 EQ PUSH2 0x1CD JUMPI DUP1 PUSH4 0xE258C02C EQ PUSH2 0x1FD JUMPI DUP1 PUSH4 0xFE0B7EDE EQ PUSH2 0x219 JUMPI PUSH2 0x9E JUMP JUMPDEST DUP1 PUSH4 0x117A5B90 EQ PUSH2 0xA3 JUMPI DUP1 PUSH4 0x1552922C EQ PUSH2 0xD5 JUMPI DUP1 PUSH4 0x3F19D043 EQ PUSH2 0xF1 JUMPI DUP1 PUSH4 0x4F72D12A EQ PUSH2 0x121 JUMPI DUP1 PUSH4 0x6F75C3C6 EQ PUSH2 0x151 JUMPI JUMPDEST PUSH1 0x0 DUP1 REVERT JUMPDEST PUSH2 0xBD PUSH1 0x4 DUP1 CALLDATASIZE SUB DUP2 ADD SWAP1 PUSH2 0xB8 SWAP2 SWAP1 PUSH2 0x1B09 JUMP JUMPDEST PUSH2 0x235 JUMP JUMPDEST PUSH1 0x40 MLOAD PUSH2 0xCC SWAP4 SWAP3 SWAP2 SWAP1 PUSH2 0x29A5 JUMP JUMPDEST PUSH1 0x40 MLOAD DUP1 SWAP2 SUB SWAP1 RETURN JUMPDEST PUSH2 0xEF PUSH1 0x4 DUP1 CALLDATASIZE SUB DUP2 ADD SWAP1 PUSH2 0xEA SWAP2 SWAP1 PUSH2 0x1B36 JUMP JUMPDEST PUSH2 0x29C JUMP JUMPDEST STOP JUMPDEST PUSH2 0x10B PUSH1 0x4 DUP1 CALLDATASIZE SUB DUP2 ADD SWAP1 PUSH2 0x106 SWAP2 SWAP1 PUSH2 0x1A5B JUMP JUMPDEST PUSH2 0x479 JUMP JUMPDEST PUSH1 0x40 MLOAD PUSH2 0x118 SWAP2 SWAP1 PUSH2 0x298A JUMP JUMPDEST PUSH1 0x40 MLOAD DUP1 SWAP2 SUB SWAP1 RETURN JUMPDEST PUSH2 0x13B PUSH1 0x4 DUP1 CALLDATASIZE SUB DUP2 ADD SWAP1 PUSH2 0x136 SWAP2 SWAP1 PUSH2 0x1B09 JUMP JUMPDEST PUSH2 0x4C2 JUMP JUMPDEST PUSH1 0x40 MLOAD PUSH2 0x148 SWAP2 SWAP1 PUSH2 0x2909 JUMP JUMPDEST PUSH1 0x40 MLOAD DUP1 SWAP2 SUB SWAP1 RETURN JUMPDEST PUSH2 0x16B PUSH1 0x4 DUP1 CALLDATASIZE SUB DUP2 ADD SWAP1 PUSH2 0x166 SWAP2 SWAP1 PUSH2 0x1B09 JUMP JUMPDEST PUSH2 0x61A JUMP JUMPDEST PUSH1 0x40 MLOAD PUSH2 0x178 SWAP2 SWAP1 PUSH2 0x2924 JUMP JUMPDEST PUSH1 0x40 MLOAD DUP1 SWAP2 SUB SWAP1 RETURN JUMPDEST PUSH2 0x19B PUSH1 0x4 DUP1 CALLDATASIZE SUB DUP2 ADD SWAP1 PUSH2 0x196 SWAP2 SWAP1 PUSH2 0x1A5B JUMP JUMPDEST PUSH2 0x9C1 JUMP JUMPDEST PUSH1 0x40 MLOAD PUSH2 0x1A8 SWAP2 SWAP1 PUSH2 0x298A JUMP JUMPDEST PUSH1 0x40 MLOAD DUP1 SWAP2 SUB SWAP1 RETURN JUMPDEST PUSH2 0x1CB PUSH1 0x4 DUP1 CALLDATASIZE SUB DUP2 ADD SWAP1 PUSH2 0x1C6 SWAP2 SWAP1 PUSH2 0x1B76 JUMP JUMPDEST PUSH2 0xA0A JUMP JUMPDEST STOP JUMPDEST PUSH2 0x1E7 PUSH1 0x4 DUP1 CALLDATASIZE SUB DUP2 ADD SWAP1 PUSH2 0x1E2 SWAP2 SWAP1 PUSH2 0x1A88 JUMP JUMPDEST PUSH2 0xE04 JUMP JUMPDEST PUSH1 0x40 MLOAD PUSH2 0x1F4 SWAP2 SWAP1 PUSH2 0x2946 JUMP JUMPDEST PUSH1 0x40 MLOAD DUP1 SWAP2 SUB SWAP1 RETURN JUMPDEST PUSH2 0x217 PUSH1 0x4 DUP1 CALLDATASIZE SUB DUP2 ADD SWAP1 PUSH2 0x212 SWAP2 SWAP1 PUSH2 0x1B09 JUMP JUMPDEST PUSH2 0x11BF JUMP JUMPDEST STOP JUMPDEST PUSH2 0x233 PUSH1 0x4 DUP1 CALLDATASIZE SUB DUP2 ADD SWAP1 PUSH2 0x22E SWAP2 SWAP1 PUSH2 0x1B36 JUMP JUMPDEST PUSH2 0x1515 JUMP JUMPDEST STOP JUMPDEST PUSH1 0x1 DUP2 DUP2 SLOAD DUP2 LT PUSH2 0x245 JUMPI PUSH1 0x0 DUP1 REVERT JUMPDEST SWAP1 PUSH1 0x0 MSTORE PUSH1 0x20 PUSH1 0x0 KECCAK256 SWAP1 PUSH1 0x7 MUL ADD PUSH1 0x0 SWAP2 POP SWAP1 POP DUP1 PUSH1 0x0 ADD SLOAD SWAP1 DUP1 PUSH1 0x1 ADD PUSH1 0x0 SWAP1 SLOAD SWAP1 PUSH2 0x100 EXP SWAP1 DIV PUSH20 0xFFFFFFFFFFFFFFFFFFFFFFFFFFFFFFFFFFFFFFFF AND SWAP1 DUP1 PUSH1 0x6 ADD PUSH1 0x0 SWAP1 SLOAD SWAP1 PUSH2 0x100 EXP SWAP1 DIV PUSH1 0xFF AND SWAP1 POP DUP4 JUMP JUMPDEST PUSH1 0x0 PUSH1 0x1 DUP4 DUP2 SLOAD DUP2 LT PUSH2 0x2B2 JUMPI PUSH2 0x2B1 PUSH2 0x312E JUMP JUMPDEST JUMPDEST SWAP1 PUSH1 0x0 MSTORE PUSH1 0x20 PUSH1 0x0 KECCAK256 SWAP1 PUSH1 0x7 MUL ADD SWAP1 POP DUP1 PUSH1 0x6 ADD PUSH1 0x0 SWAP1 SLOAD SWAP1 PUSH2 0x100 EXP SWAP1 DIV PUSH1 0xFF AND ISZERO PUSH2 0x2DE JUMPI PUSH1 0x0 DUP1 REVERT JUMPDEST PUSH1 0x0 PUSH1 0x1 DUP2 GT ISZERO PUSH2 0x2F2 JUMPI PUSH2 0x2F1 PUSH2 0x30D0 JUMP JUMPDEST JUMPDEST DUP3 PUSH1 0x1 DUP2 GT ISZERO PUSH2 0x305 JUMPI PUSH2 0x304 PUSH2 0x30D0 JUMP JUMPDEST JUMPDEST EQ ISZERO PUSH2 0x365 JUMPI DUP1 PUSH1 0x4 ADD PUSH1 0x1 PUSH1 0x2 DUP2 LT PUSH2 0x322 JUMPI PUSH2 0x321 PUSH2 0x312E JUMP JUMPDEST JUMPDEST PUSH1 0x20 SWAP2 DUP3 DUP3 DIV ADD SWAP2 SWAP1 MOD DUP2 DUP2 SWAP1 SLOAD SWAP1 PUSH2 0x100 EXP SWAP1 DIV PUSH1 0xFF AND DUP1 SWAP3 SWAP2 SWAP1 PUSH2 0x347 SWAP1 PUSH2 0x3077 JUMP JUMPDEST SWAP2 SWAP1 PUSH2 0x100 EXP DUP2 SLOAD DUP2 PUSH1 0xFF MUL NOT AND SWAP1 DUP4 PUSH1 0xFF AND MUL OR SWAP1 SSTORE POP POP PUSH2 0x3E8 JUMP JUMPDEST PUSH1 0x1 DUP1 DUP2 GT ISZERO PUSH2 0x378 JUMPI PUSH2 0x377 PUSH2 0x30D0 JUMP JUMPDEST JUMPDEST DUP3 PUSH1 0x1 DUP2 GT ISZERO PUSH2 0x38B JUMPI PUSH2 0x38A PUSH2 0x30D0 JUMP JUMPDEST JUMPDEST EQ ISZERO PUSH2 0x3E7 JUMPI DUP1 PUSH1 0x5 ADD PUSH1 0x1 PUSH1 0x2 DUP2 LT PUSH2 0x3A8 JUMPI PUSH2 0x3A7 PUSH2 0x312E JUMP JUMPDEST JUMPDEST PUSH1 0x20 SWAP2 DUP3 DUP3 DIV ADD SWAP2 SWAP1 MOD DUP2 DUP2 SWAP1 SLOAD SWAP1 PUSH2 0x100 EXP SWAP1 DIV PUSH1 0xFF AND DUP1 SWAP3 SWAP2 SWAP1 PUSH2 0x3CD SWAP1 PUSH2 0x3077 JUMP JUMPDEST SWAP2 SWAP1 PUSH2 0x100 EXP DUP2 SLOAD DUP2 PUSH1 0xFF MUL NOT AND SWAP1 DUP4 PUSH1 0xFF AND MUL OR SWAP1 SSTORE POP POP JUMPDEST JUMPDEST PUSH1 0x3 PUSH1 0x0 CALLER PUSH20 0xFFFFFFFFFFFFFFFFFFFFFFFFFFFFFFFFFFFFFFFF AND PUSH20 0xFFFFFFFFFFFFFFFFFFFFFFFFFFFFFFFFFFFFFFFF AND DUP2 MSTORE PUSH1 0x20 ADD SWAP1 DUP2 MSTORE PUSH1 0x20 ADD PUSH1 0x0 KECCAK256 PUSH1 0x0 DUP2 SLOAD DUP1 SWAP3 SWAP2 SWAP1 PUSH2 0x438 SWAP1 PUSH2 0x302E JUMP JUMPDEST SWAP2 SWAP1 POP SSTORE POP PUSH32 0xA05181D857066C04504026D4BB187A8386F4E6D20B4437E50FABCDF106769E3 DUP2 PUSH1 0x40 MLOAD PUSH2 0x46C SWAP2 SWAP1 PUSH2 0x2968 JUMP JUMPDEST PUSH1 0x40 MLOAD DUP1 SWAP2 SUB SWAP1 LOG1 POP POP POP JUMP JUMPDEST PUSH1 0x0 PUSH1 0x3 PUSH1 0x0 DUP4 PUSH20 0xFFFFFFFFFFFFFFFFFFFFFFFFFFFFFFFFFFFFFFFF AND PUSH20 0xFFFFFFFFFFFFFFFFFFFFFFFFFFFFFFFFFFFFFFFF AND DUP2 MSTORE PUSH1 0x20 ADD SWAP1 DUP2 MSTORE PUSH1 0x20 ADD PUSH1 0x0 KECCAK256 SLOAD SWAP1 POP SWAP2 SWAP1 POP JUMP JUMPDEST PUSH2 0x4CA PUSH2 0x16F2 JUMP JUMPDEST PUSH1 0x0 PUSH1 0x1 DUP4 DUP2 SLOAD DUP2 LT PUSH2 0x4E0 JUMPI PUSH2 0x4DF PUSH2 0x312E JUMP JUMPDEST JUMPDEST SWAP1 PUSH1 0x0 MSTORE PUSH1 0x20 PUSH1 0x0 KECCAK256 SWAP1 PUSH1 0x7 MUL ADD SWAP1 POP PUSH1 0x0 DUP1 PUSH1 0x1 DUP4 PUSH1 0x4 ADD PUSH1 0x1 PUSH1 0x2 DUP2 LT PUSH2 0x50C JUMPI PUSH2 0x50B PUSH2 0x312E JUMP JUMPDEST JUMPDEST PUSH1 0x20 SWAP2 DUP3 DUP3 DIV ADD SWAP2 SWAP1 MOD SWAP1 SLOAD SWAP1 PUSH2 0x100 EXP SWAP1 DIV PUSH1 0xFF AND PUSH1 0xFF AND PUSH2 0x52F SWAP2 SWAP1 PUSH2 0x2B48 JUMP JUMPDEST PUSH1 0x6 DUP5 PUSH1 0x4 ADD PUSH1 0x0 PUSH1 0x2 DUP2 LT PUSH2 0x548 JUMPI PUSH2 0x547 PUSH2 0x312E JUMP JUMPDEST JUMPDEST PUSH1 0x20 SWAP2 DUP3 DUP3 DIV ADD SWAP2 SWAP1 MOD SWAP1 SLOAD SWAP1 PUSH2 0x100 EXP SWAP1 DIV PUSH1 0xFF AND PUSH1 0xFF AND PUSH2 0x56B SWAP2 SWAP1 PUSH2 0x2B48 JUMP JUMPDEST PUSH2 0x575 SWAP2 SWAP1 PUSH2 0x2AF2 JUMP JUMPDEST SWAP2 POP PUSH1 0x1 DUP4 PUSH1 0x5 ADD PUSH1 0x1 PUSH1 0x2 DUP2 LT PUSH2 0x590 JUMPI PUSH2 0x58F PUSH2 0x312E JUMP JUMPDEST JUMPDEST PUSH1 0x20 SWAP2 DUP3 DUP3 DIV ADD SWAP2 SWAP1 MOD SWAP1 SLOAD SWAP1 PUSH2 0x100 EXP SWAP1 DIV PUSH1 0xFF AND PUSH1 0xFF AND PUSH2 0x5B3 SWAP2 SWAP1 PUSH2 0x2B48 JUMP JUMPDEST PUSH1 0x6 DUP5 PUSH1 0x5 ADD PUSH1 0x0 PUSH1 0x2 DUP2 LT PUSH2 0x5CC JUMPI PUSH2 0x5CB PUSH2 0x312E JUMP JUMPDEST JUMPDEST PUSH1 0x20 SWAP2 DUP3 DUP3 DIV ADD SWAP2 SWAP1 MOD SWAP1 SLOAD SWAP1 PUSH2 0x100 EXP SWAP1 DIV PUSH1 0xFF AND PUSH1 0xFF AND PUSH2 0x5EF SWAP2 SWAP1 PUSH2 0x2B48 JUMP JUMPDEST PUSH2 0x5F9 SWAP2 SWAP1 PUSH2 0x2AF2 JUMP JUMPDEST SWAP1 POP PUSH1 0x40 MLOAD DUP1 PUSH1 0x40 ADD PUSH1 0x40 MSTORE DUP1 DUP4 DUP2 MSTORE PUSH1 0x20 ADD DUP3 DUP2 MSTORE POP SWAP4 POP POP POP POP SWAP2 SWAP1 POP JUMP JUMPDEST PUSH1 0x60 PUSH1 0x0 PUSH1 0x1 DUP4 DUP2 SLOAD DUP2 LT PUSH2 0x632 JUMPI PUSH2 0x631 PUSH2 0x312E JUMP JUMPDEST JUMPDEST SWAP1 PUSH1 0x0 MSTORE PUSH1 0x20 PUSH1 0x0 KECCAK256 SWAP1 PUSH1 0x7 MUL ADD PUSH1 0x40 MLOAD DUP1 PUSH1 0xC0 ADD PUSH1 0x40 MSTORE SWAP1 DUP2 PUSH1 0x0 DUP3 ADD SLOAD DUP2 MSTORE PUSH1 0x20 ADD PUSH1 0x1 DUP3 ADD PUSH1 0x0 SWAP1 SLOAD SWAP1 PUSH2 0x100 EXP SWAP1 DIV PUSH20 0xFFFFFFFFFFFFFFFFFFFFFFFFFFFFFFFFFFFFFFFF AND PUSH20 0xFFFFFFFFFFFFFFFFFFFFFFFFFFFFFFFFFFFFFFFF AND PUSH20 0xFFFFFFFFFFFFFFFFFFFFFFFFFFFFFFFFFFFFFFFF AND DUP2 MSTORE PUSH1 0x20 ADD PUSH1 0x2 DUP3 ADD PUSH1 0x2 DUP1 PUSH1 0x20 MUL PUSH1 0x40 MLOAD SWAP1 DUP2 ADD PUSH1 0x40 MSTORE DUP1 SWAP3 SWAP2 SWAP1 PUSH1 0x0 SWAP1 JUMPDEST DUP3 DUP3 LT ISZERO PUSH2 0x76A JUMPI DUP4 DUP3 ADD DUP1 SLOAD PUSH2 0x6DD SWAP1 PUSH2 0x2C6E JUMP JUMPDEST DUP1 PUSH1 0x1F ADD PUSH1 0x20 DUP1 SWAP2 DIV MUL PUSH1 0x20 ADD PUSH1 0x40 MLOAD SWAP1 DUP2 ADD PUSH1 0x40 MSTORE DUP1 SWAP3 SWAP2 SWAP1 DUP2 DUP2 MSTORE PUSH1 0x20 ADD DUP3 DUP1 SLOAD PUSH2 0x709 SWAP1 PUSH2 0x2C6E JUMP JUMPDEST DUP1 ISZERO PUSH2 0x756 JUMPI DUP1 PUSH1 0x1F LT PUSH2 0x72B JUMPI PUSH2 0x100 DUP1 DUP4 SLOAD DIV MUL DUP4 MSTORE SWAP2 PUSH1 0x20 ADD SWAP2 PUSH2 0x756 JUMP JUMPDEST DUP3 ADD SWAP2 SWAP1 PUSH1 0x0 MSTORE PUSH1 0x20 PUSH1 0x0 KECCAK256 SWAP1 JUMPDEST DUP2 SLOAD DUP2 MSTORE SWAP1 PUSH1 0x1 ADD SWAP1 PUSH1 0x20 ADD DUP1 DUP4 GT PUSH2 0x739 JUMPI DUP3 SWAP1 SUB PUSH1 0x1F AND DUP3 ADD SWAP2 JUMPDEST POP POP POP POP POP DUP2 MSTORE PUSH1 0x20 ADD SWAP1 PUSH1 0x1 ADD SWAP1 PUSH2 0x6C7 JUMP JUMPDEST POP POP POP POP DUP2 MSTORE PUSH1 0x20 ADD PUSH1 0x4 DUP3 ADD PUSH1 0x2 DUP1 PUSH1 0x20 MUL PUSH1 0x40 MLOAD SWAP1 DUP2 ADD PUSH1 0x40 MSTORE DUP1 SWAP3 SWAP2 SWAP1 DUP3 PUSH1 0x2 DUP1 ISZERO PUSH2 0x7D4 JUMPI PUSH1 0x20 MUL DUP3 ADD SWAP2 PUSH1 0x0 SWAP1 JUMPDEST DUP3 DUP3 SWAP1 SLOAD SWAP1 PUSH2 0x100 EXP SWAP1 DIV PUSH1 0xFF AND PUSH1 0xFF AND DUP2 MSTORE PUSH1 0x20 ADD SWAP1 PUSH1 0x1 ADD SWAP1 PUSH1 0x20 DUP3 PUSH1 0x0 ADD DIV SWAP3 DUP4 ADD SWAP3 PUSH1 0x1 SUB DUP3 MUL SWAP2 POP DUP1 DUP5 GT PUSH2 0x79D JUMPI SWAP1 POP JUMPDEST POP POP POP POP POP DUP2 MSTORE PUSH1 0x20 ADD PUSH1 0x5 DUP3 ADD PUSH1 0x2 DUP1 PUSH1 0x20 MUL PUSH1 0x40 MLOAD SWAP1 DUP2 ADD PUSH1 0x40 MSTORE DUP1 SWAP3 SWAP2 SWAP1 DUP3 PUSH1 0x2 DUP1 ISZERO PUSH2 0x83F JUMPI PUSH1 0x20 MUL DUP3 ADD SWAP2 PUSH1 0x0 SWAP1 JUMPDEST DUP3 DUP3 SWAP1 SLOAD SWAP1 PUSH2 0x100 EXP SWAP1 DIV PUSH1 0xFF AND PUSH1 0xFF AND DUP2 MSTORE PUSH1 0x20 ADD SWAP1 PUSH1 0x1 ADD SWAP1 PUSH1 0x20 DUP3 PUSH1 0x0 ADD DIV SWAP3 DUP4 ADD SWAP3 PUSH1 0x1 SUB DUP3 MUL SWAP2 POP DUP1 DUP5 GT PUSH2 0x808 JUMPI SWAP1 POP JUMPDEST POP POP POP POP POP DUP2 MSTORE PUSH1 0x20 ADD PUSH1 0x6 DUP3 ADD PUSH1 0x0 SWAP1 SLOAD SWAP1 PUSH2 0x100 EXP SWAP1 DIV PUSH1 0xFF AND ISZERO ISZERO ISZERO ISZERO DUP2 MSTORE POP POP SWAP1 POP PUSH1 0x60 PUSH1 0x1 ISZERO ISZERO DUP3 PUSH1 0xA0 ADD MLOAD ISZERO ISZERO EQ ISZERO PUSH2 0x8B5 JUMPI PUSH1 0x40 MLOAD DUP1 PUSH1 0x40 ADD PUSH1 0x40 MSTORE DUP1 PUSH1 0xB DUP2 MSTORE PUSH1 0x20 ADD PUSH32 0x46696E616C2053636F7265000000000000000000000000000000000000000000 DUP2 MSTORE POP SWAP1 POP PUSH2 0x8EE JUMP JUMPDEST PUSH1 0x40 MLOAD DUP1 PUSH1 0x40 ADD PUSH1 0x40 MSTORE DUP1 PUSH1 0x7 DUP2 MSTORE PUSH1 0x20 ADD PUSH32 0x4F6E676F696E6700000000000000000000000000000000000000000000000000 DUP2 MSTORE POP SWAP1 POP JUMPDEST DUP2 PUSH1 0x40 ADD MLOAD PUSH1 0x0 PUSH1 0x2 DUP2 LT PUSH2 0x906 JUMPI PUSH2 0x905 PUSH2 0x312E JUMP JUMPDEST JUMPDEST PUSH1 0x20 MUL ADD MLOAD PUSH1 0x40 MLOAD DUP1 PUSH1 0x40 ADD PUSH1 0x40 MSTORE DUP1 PUSH1 0x4 DUP2 MSTORE PUSH1 0x20 ADD PUSH32 0x2076732000000000000000000000000000000000000000000000000000000000 DUP2 MSTORE POP DUP4 PUSH1 0x40 ADD MLOAD PUSH1 0x1 PUSH1 0x2 DUP2 LT PUSH2 0x959 JUMPI PUSH2 0x958 PUSH2 0x312E JUMP JUMPDEST JUMPDEST PUSH1 0x20 MUL ADD MLOAD PUSH1 0x40 MLOAD DUP1 PUSH1 0x40 ADD PUSH1 0x40 MSTORE DUP1 PUSH1 0x2 DUP2 MSTORE PUSH1 0x20 ADD PUSH32 0x3A20000000000000000000000000000000000000000000000000000000000000 DUP2 MSTORE POP DUP5 PUSH1 0x40 MLOAD PUSH1 0x20 ADD PUSH2 0x9A9 SWAP6 SWAP5 SWAP4 SWAP3 SWAP2 SWAP1 PUSH2 0x28BE JUMP JUMPDEST PUSH1 0x40 MLOAD PUSH1 0x20 DUP2 DUP4 SUB SUB DUP2 MSTORE SWAP1 PUSH1 0x40 MSTORE SWAP3 POP POP POP SWAP2 SWAP1 POP JUMP JUMPDEST PUSH1 0x0 PUSH1 0x5 PUSH1 0x0 DUP4 PUSH20 0xFFFFFFFFFFFFFFFFFFFFFFFFFFFFFFFFFFFFFFFF AND PUSH20 0xFFFFFFFFFFFFFFFFFFFFFFFFFFFFFFFFFFFFFFFF AND DUP2 MSTORE PUSH1 0x20 ADD SWAP1 DUP2 MSTORE PUSH1 0x20 ADD PUSH1 0x0 KECCAK256 SLOAD SWAP1 POP SWAP2 SWAP1 POP JUMP JUMPDEST PUSH1 0x1 DUP6 DUP2 SLOAD DUP2 LT PUSH2 0xA1E JUMPI PUSH2 0xA1D PUSH2 0x312E JUMP JUMPDEST JUMPDEST SWAP1 PUSH1 0x0 MSTORE PUSH1 0x20 PUSH1 0x0 KECCAK256 SWAP1 PUSH1 0x7 MUL ADD PUSH1 0x40 MLOAD DUP1 PUSH1 0xC0 ADD PUSH1 0x40 MSTORE SWAP1 DUP2 PUSH1 0x0 DUP3 ADD SLOAD DUP2 MSTORE PUSH1 0x20 ADD PUSH1 0x1 DUP3 ADD PUSH1 0x0 SWAP1 SLOAD SWAP1 PUSH2 0x100 EXP SWAP1 DIV PUSH20 0xFFFFFFFFFFFFFFFFFFFFFFFFFFFFFFFFFFFFFFFF AND PUSH20 0xFFFFFFFFFFFFFFFFFFFFFFFFFFFFFFFFFFFFFFFF AND PUSH20 0xFFFFFFFFFFFFFFFFFFFFFFFFFFFFFFFFFFFFFFFF AND DUP2 MSTORE PUSH1 0x20 ADD PUSH1 0x2 DUP3 ADD PUSH1 0x2 DUP1 PUSH1 0x20 MUL PUSH1 0x40 MLOAD SWAP1 DUP2 ADD PUSH1 0x40 MSTORE DUP1 SWAP3 SWAP2 SWAP1 PUSH1 0x0 SWAP1 JUMPDEST DUP3 DUP3 LT ISZERO PUSH2 0xB56 JUMPI DUP4 DUP3 ADD DUP1 SLOAD PUSH2 0xAC9 SWAP1 PUSH2 0x2C6E JUMP JUMPDEST DUP1 PUSH1 0x1F ADD PUSH1 0x20 DUP1 SWAP2 DIV MUL PUSH1 0x20 ADD PUSH1 0x40 MLOAD SWAP1 DUP2 ADD PUSH1 0x40 MSTORE DUP1 SWAP3 SWAP2 SWAP1 DUP2 DUP2 MSTORE PUSH1 0x20 ADD DUP3 DUP1 SLOAD PUSH2 0xAF5 SWAP1 PUSH2 0x2C6E JUMP JUMPDEST DUP1 ISZERO PUSH2 0xB42 JUMPI DUP1 PUSH1 0x1F LT PUSH2 0xB17 JUMPI PUSH2 0x100 DUP1 DUP4 SLOAD DIV MUL DUP4 MSTORE SWAP2 PUSH1 0x20 ADD SWAP2 PUSH2 0xB42 JUMP JUMPDEST DUP3 ADD SWAP2 SWAP1 PUSH1 0x0 MSTORE PUSH1 0x20 PUSH1 0x0 KECCAK256 SWAP1 JUMPDEST DUP2 SLOAD DUP2 MSTORE SWAP1 PUSH1 0x1 ADD SWAP1 PUSH1 0x20 ADD DUP1 DUP4 GT PUSH2 0xB25 JUMPI DUP3 SWAP1 SUB PUSH1 0x1F AND DUP3 ADD SWAP2 JUMPDEST POP POP POP POP POP DUP2 MSTORE PUSH1 0x20 ADD SWAP1 PUSH1 0x1 ADD SWAP1 PUSH2 0xAB3 JUMP JUMPDEST POP POP POP POP DUP2 MSTORE PUSH1 0x20 ADD PUSH1 0x4 DUP3 ADD PUSH1 0x2 DUP1 PUSH1 0x20 MUL PUSH1 0x40 MLOAD SWAP1 DUP2 ADD PUSH1 0x40 MSTORE DUP1 SWAP3 SWAP2 SWAP1 DUP3 PUSH1 0x2 DUP1 ISZERO PUSH2 0xBC0 JUMPI PUSH1 0x20 MUL DUP3 ADD SWAP2 PUSH1 0x0 SWAP1 JUMPDEST DUP3 DUP3 SWAP1 SLOAD SWAP1 PUSH2 0x100 EXP SWAP1 DIV PUSH1 0xFF AND PUSH1 0xFF AND DUP2 MSTORE PUSH1 0x20 ADD SWAP1 PUSH1 0x1 ADD SWAP1 PUSH1 0x20 DUP3 PUSH1 0x0 ADD DIV SWAP3 DUP4 ADD SWAP3 PUSH1 0x1 SUB DUP3 MUL SWAP2 POP DUP1 DUP5 GT PUSH2 0xB89 JUMPI SWAP1 POP JUMPDEST POP POP POP POP POP DUP2 MSTORE PUSH1 0x20 ADD PUSH1 0x5 DUP3 ADD PUSH1 0x2 DUP1 PUSH1 0x20 MUL PUSH1 0x40 MLOAD SWAP1 DUP2 ADD PUSH1 0x40 MSTORE DUP1 SWAP3 SWAP2 SWAP1 DUP3 PUSH1 0x2 DUP1 ISZERO PUSH2 0xC2B JUMPI PUSH1 0x20 MUL DUP3 ADD SWAP2 PUSH1 0x0 SWAP1 JUMPDEST DUP3 DUP3 SWAP1 SLOAD SWAP1 PUSH2 0x100 EXP SWAP1 DIV PUSH1 0xFF AND PUSH1 0xFF AND DUP2 MSTORE PUSH1 0x20 ADD SWAP1 PUSH1 0x1 ADD SWAP1 PUSH1 0x20 DUP3 PUSH1 0x0 ADD DIV SWAP3 DUP4 ADD SWAP3 PUSH1 0x1 SUB DUP3 MUL SWAP2 POP DUP1 DUP5 GT PUSH2 0xBF4 JUMPI SWAP1 POP JUMPDEST POP POP POP POP POP DUP2 MSTORE PUSH1 0x20 ADD PUSH1 0x6 DUP3 ADD PUSH1 0x0 SWAP1 SLOAD SWAP1 PUSH2 0x100 EXP SWAP1 DIV PUSH1 0xFF AND ISZERO ISZERO ISZERO ISZERO DUP2 MSTORE POP POP CALLER PUSH20 0xFFFFFFFFFFFFFFFFFFFFFFFFFFFFFFFFFFFFFFFF AND DUP2 PUSH1 0x20 ADD MLOAD PUSH20 0xFFFFFFFFFFFFFFFFFFFFFFFFFFFFFFFFFFFFFFFF AND EQ DUP1 PUSH2 0xCD8 JUMPI POP CALLER PUSH20 0xFFFFFFFFFFFFFFFFFFFFFFFFFFFFFFFFFFFFFFFF AND PUSH1 0x0 DUP1 SLOAD SWAP1 PUSH2 0x100 EXP SWAP1 DIV PUSH20 0xFFFFFFFFFFFFFFFFFFFFFFFFFFFFFFFFFFFFFFFF AND PUSH20 0xFFFFFFFFFFFFFFFFFFFFFFFFFFFFFFFFFFFFFFFF AND EQ JUMPDEST PUSH2 0xCE1 JUMPI PUSH1 0x0 DUP1 REVERT JUMPDEST PUSH1 0x0 PUSH1 0x1 DUP8 DUP2 SLOAD DUP2 LT PUSH2 0xCF7 JUMPI PUSH2 0xCF6 PUSH2 0x312E JUMP JUMPDEST JUMPDEST SWAP1 PUSH1 0x0 MSTORE PUSH1 0x20 PUSH1 0x0 KECCAK256 SWAP1 PUSH1 0x7 MUL ADD SWAP1 POP PUSH1 0x40 MLOAD DUP1 PUSH1 0x40 ADD PUSH1 0x40 MSTORE DUP1 DUP8 PUSH1 0xFF AND PUSH1 0xFF AND DUP2 MSTORE PUSH1 0x20 ADD DUP7 PUSH1 0xFF AND PUSH1 0xFF AND DUP2 MSTORE POP DUP2 PUSH1 0x4 ADD SWAP1 PUSH1 0x2 PUSH2 0xD3A SWAP3 SWAP2 SWAP1 PUSH2 0x1714 JUMP JUMPDEST POP PUSH1 0x40 MLOAD DUP1 PUSH1 0x40 ADD PUSH1 0x40 MSTORE DUP1 DUP6 PUSH1 0xFF AND PUSH1 0xFF AND DUP2 MSTORE PUSH1 0x20 ADD DUP5 PUSH1 0xFF AND PUSH1 0xFF AND DUP2 MSTORE POP DUP2 PUSH1 0x5 ADD SWAP1 PUSH1 0x2 PUSH2 0xD6E SWAP3 SWAP2 SWAP1 PUSH2 0x1714 JUMP JUMPDEST POP PUSH1 0x3 PUSH1 0x0 CALLER PUSH20 0xFFFFFFFFFFFFFFFFFFFFFFFFFFFFFFFFFFFFFFFF AND PUSH20 0xFFFFFFFFFFFFFFFFFFFFFFFFFFFFFFFFFFFFFFFF AND DUP2 MSTORE PUSH1 0x20 ADD SWAP1 DUP2 MSTORE PUSH1 0x20 ADD PUSH1 0x0 KECCAK256 PUSH1 0x0 DUP2 SLOAD DUP1 SWAP3 SWAP2 SWAP1 PUSH2 0xDBF SWAP1 PUSH2 0x302E JUMP JUMPDEST SWAP2 SWAP1 POP SSTORE POP PUSH32 0xA05181D857066C04504026D4BB187A8386F4E6D20B4437E50FABCDF106769E3 DUP2 PUSH1 0x40 MLOAD PUSH2 0xDF3 SWAP2 SWAP1 PUSH2 0x2968 JUMP JUMPDEST PUSH1 0x40 MLOAD DUP1 SWAP2 SUB SWAP1 LOG1 POP POP POP POP POP POP POP JUMP JUMPDEST PUSH2 0xE0C PUSH2 0x17AE JUMP JUMPDEST PUSH2 0xE14 PUSH2 0x17AE JUMP JUMPDEST PUSH1 0x2 SLOAD DUP2 PUSH1 0x0 ADD DUP2 DUP2 MSTORE POP POP CALLER DUP2 PUSH1 0x20 ADD SWAP1 PUSH20 0xFFFFFFFFFFFFFFFFFFFFFFFFFFFFFFFFFFFFFFFF AND SWAP1 DUP2 PUSH20 0xFFFFFFFFFFFFFFFFFFFFFFFFFFFFFFFFFFFFFFFF AND DUP2 MSTORE POP POP DUP6 DUP6 DUP1 DUP1 PUSH1 0x1F ADD PUSH1 0x20 DUP1 SWAP2 DIV MUL PUSH1 0x20 ADD PUSH1 0x40 MLOAD SWAP1 DUP2 ADD PUSH1 0x40 MSTORE DUP1 SWAP4 SWAP3 SWAP2 SWAP1 DUP2 DUP2 MSTORE PUSH1 0x20 ADD DUP4 DUP4 DUP1 DUP3 DUP5 CALLDATACOPY PUSH1 0x0 DUP2 DUP5 ADD MSTORE PUSH1 0x1F NOT PUSH1 0x1F DUP3 ADD AND SWAP1 POP DUP1 DUP4 ADD SWAP3 POP POP POP POP POP POP POP DUP2 PUSH1 0x40 ADD MLOAD PUSH1 0x0 PUSH1 0x2 DUP2 LT PUSH2 0xEB5 JUMPI PUSH2 0xEB4 PUSH2 0x312E JUMP JUMPDEST JUMPDEST PUSH1 0x20 MUL ADD DUP2 SWAP1 MSTORE POP DUP4 DUP4 DUP1 DUP1 PUSH1 0x1F ADD PUSH1 0x20 DUP1 SWAP2 DIV MUL PUSH1 0x20 ADD PUSH1 0x40 MLOAD SWAP1 DUP2 ADD PUSH1 0x40 MSTORE DUP1 SWAP4 SWAP3 SWAP2 SWAP1 DUP2 DUP2 MSTORE PUSH1 0x20 ADD DUP4 DUP4 DUP1 DUP3 DUP5 CALLDATACOPY PUSH1 0x0 DUP2 DUP5 ADD MSTORE PUSH1 0x1F NOT PUSH1 0x1F DUP3 ADD AND SWAP1 POP DUP1 DUP4 ADD SWAP3 POP POP POP POP POP POP POP DUP2 PUSH1 0x40 ADD MLOAD PUSH1 0x1 PUSH1 0x2 DUP2 LT PUSH2 0xF1A JUMPI PUSH2 0xF19 PUSH2 0x312E JUMP JUMPDEST JUMPDEST PUSH1 0x20 MUL ADD DUP2 SWAP1 MSTORE POP PUSH1 0x40 MLOAD DUP1 PUSH1 0x40 ADD PUSH1 0x40 MSTORE DUP1 PUSH1 0x0 PUSH1 0xFF AND DUP2 MSTORE PUSH1 0x20 ADD PUSH1 0x0 PUSH1 0xFF AND DUP2 MSTORE POP DUP2 PUSH1 0x60 ADD DUP2 SWAP1 MSTORE POP PUSH1 0x40 MLOAD DUP1 PUSH1 0x40 ADD PUSH1 0x40 MSTORE DUP1 PUSH1 0x0 PUSH1 0xFF AND DUP2 MSTORE PUSH1 0x20 ADD PUSH1 0x0 PUSH1 0xFF AND DUP2 MSTORE POP DUP2 PUSH1 0x80 ADD DUP2 SWAP1 MSTORE POP PUSH1 0x0 DUP2 PUSH1 0xA0 ADD SWAP1 ISZERO ISZERO SWAP1 DUP2 ISZERO ISZERO DUP2 MSTORE POP POP PUSH1 0x1 DUP2 SWAP1 DUP1 PUSH1 0x1 DUP2 SLOAD ADD DUP1 DUP3 SSTORE DUP1 SWAP2 POP POP PUSH1 0x1 SWAP1 SUB SWAP1 PUSH1 0x0 MSTORE PUSH1 0x20 PUSH1 0x0 KECCAK256 SWAP1 PUSH1 0x7 MUL ADD PUSH1 0x0 SWAP1 SWAP2 SWAP1 SWAP2 SWAP1 SWAP2 POP PUSH1 0x0 DUP3 ADD MLOAD DUP2 PUSH1 0x0 ADD SSTORE PUSH1 0x20 DUP3 ADD MLOAD DUP2 PUSH1 0x1 ADD PUSH1 0x0 PUSH2 0x100 EXP DUP2 SLOAD DUP2 PUSH20 0xFFFFFFFFFFFFFFFFFFFFFFFFFFFFFFFFFFFFFFFF MUL NOT AND SWAP1 DUP4 PUSH20 0xFFFFFFFFFFFFFFFFFFFFFFFFFFFFFFFFFFFFFFFF AND MUL OR SWAP1 SSTORE POP PUSH1 0x40 DUP3 ADD MLOAD DUP2 PUSH1 0x2 ADD SWAP1 PUSH1 0x2 PUSH2 0x1011 SWAP3 SWAP2 SWAP1 PUSH2 0x180E JUMP JUMPDEST POP PUSH1 0x60 DUP3 ADD MLOAD DUP2 PUSH1 0x4 ADD SWAP1 PUSH1 0x2 PUSH2 0x1029 SWAP3 SWAP2 SWAP1 PUSH2 0x1714 JUMP JUMPDEST POP PUSH1 0x80 DUP3 ADD MLOAD DUP2 PUSH1 0x5 ADD SWAP1 PUSH1 0x2 PUSH2 0x1041 SWAP3 SWAP2 SWAP1 PUSH2 0x1714 JUMP JUMPDEST POP PUSH1 0xA0 DUP3 ADD MLOAD DUP2 PUSH1 0x6 ADD PUSH1 0x0 PUSH2 0x100 EXP DUP2 SLOAD DUP2 PUSH1 0xFF MUL NOT AND SWAP1 DUP4 ISZERO ISZERO MUL OR SWAP1 SSTORE POP POP POP PUSH1 0x2 PUSH1 0x0 DUP2 SLOAD DUP1 SWAP3 SWAP2 SWAP1 PUSH2 0x1077 SWAP1 PUSH2 0x302E JUMP JUMPDEST SWAP2 SWAP1 POP SSTORE POP CALLER PUSH1 0x4 PUSH1 0x0 DUP4 PUSH1 0x0 ADD MLOAD DUP2 MSTORE PUSH1 0x20 ADD SWAP1 DUP2 MSTORE PUSH1 0x20 ADD PUSH1 0x0 KECCAK256 PUSH1 0x0 PUSH2 0x100 EXP DUP2 SLOAD DUP2 PUSH20 0xFFFFFFFFFFFFFFFFFFFFFFFFFFFFFFFFFFFFFFFF MUL NOT AND SWAP1 DUP4 PUSH20 0xFFFFFFFFFFFFFFFFFFFFFFFFFFFFFFFFFFFFFFFF AND MUL OR SWAP1 SSTORE POP PUSH1 0x5 PUSH1 0x0 CALLER PUSH20 0xFFFFFFFFFFFFFFFFFFFFFFFFFFFFFFFFFFFFFFFF AND PUSH20 0xFFFFFFFFFFFFFFFFFFFFFFFFFFFFFFFFFFFFFFFF AND DUP2 MSTORE PUSH1 0x20 ADD SWAP1 DUP2 MSTORE PUSH1 0x20 ADD PUSH1 0x0 KECCAK256 PUSH1 0x0 DUP2 SLOAD DUP1 SWAP3 SWAP2 SWAP1 PUSH2 0x1122 SWAP1 PUSH2 0x302E JUMP JUMPDEST SWAP2 SWAP1 POP SSTORE POP PUSH1 0x3 PUSH1 0x0 CALLER PUSH20 0xFFFFFFFFFFFFFFFFFFFFFFFFFFFFFFFFFFFFFFFF AND PUSH20 0xFFFFFFFFFFFFFFFFFFFFFFFFFFFFFFFFFFFFFFFF AND DUP2 MSTORE PUSH1 0x20 ADD SWAP1 DUP2 MSTORE PUSH1 0x20 ADD PUSH1 0x0 KECCAK256 PUSH1 0x0 DUP2 SLOAD DUP1 SWAP3 SWAP2 SWAP1 PUSH2 0x1177 SWAP1 PUSH2 0x302E JUMP JUMPDEST SWAP2 SWAP1 POP SSTORE POP PUSH32 0x81F7BB6AC8C26BF3590ED3B94651A1E68B4E42DA27BC4971C2F62617DA8B631A DUP2 PUSH1 0x40 MLOAD PUSH2 0x11AB SWAP2 SWAP1 PUSH2 0x2946 JUMP JUMPDEST PUSH1 0x40 MLOAD DUP1 SWAP2 SUB SWAP1 LOG1 DUP1 SWAP2 POP POP SWAP5 SWAP4 POP POP POP POP JUMP JUMPDEST PUSH1 0x1 DUP2 DUP2 SLOAD DUP2 LT PUSH2 0x11D3 JUMPI PUSH2 0x11D2 PUSH2 0x312E JUMP JUMPDEST JUMPDEST SWAP1 PUSH1 0x0 MSTORE PUSH1 0x20 PUSH1 0x0 KECCAK256 SWAP1 PUSH1 0x7 MUL ADD PUSH1 0x40 MLOAD DUP1 PUSH1 0xC0 ADD PUSH1 0x40 MSTORE SWAP1 DUP2 PUSH1 0x0 DUP3 ADD SLOAD DUP2 MSTORE PUSH1 0x20 ADD PUSH1 0x1 DUP3 ADD PUSH1 0x0 SWAP1 SLOAD SWAP1 PUSH2 0x100 EXP SWAP1 DIV PUSH20 0xFFFFFFFFFFFFFFFFFFFFFFFFFFFFFFFFFFFFFFFF AND PUSH20 0xFFFFFFFFFFFFFFFFFFFFFFFFFFFFFFFFFFFFFFFF AND PUSH20 0xFFFFFFFFFFFFFFFFFFFFFFFFFFFFFFFFFFFFFFFF AND DUP2 MSTORE PUSH1 0x20 ADD PUSH1 0x2 DUP3 ADD PUSH1 0x2 DUP1 PUSH1 0x20 MUL PUSH1 0x40 MLOAD SWAP1 DUP2 ADD PUSH1 0x40 MSTORE DUP1 SWAP3 SWAP2 SWAP1 PUSH1 0x0 SWAP1 JUMPDEST DUP3 DUP3 LT ISZERO PUSH2 0x130B JUMPI DUP4 DUP3 ADD DUP1 SLOAD PUSH2 0x127E SWAP1 PUSH2 0x2C6E JUMP JUMPDEST DUP1 PUSH1 0x1F ADD PUSH1 0x20 DUP1 SWAP2 DIV MUL PUSH1 0x20 ADD PUSH1 0x40 MLOAD SWAP1 DUP2 ADD PUSH1 0x40 MSTORE DUP1 SWAP3 SWAP2 SWAP1 DUP2 DUP2 MSTORE PUSH1 0x20 ADD DUP3 DUP1 SLOAD PUSH2 0x12AA SWAP1 PUSH2 0x2C6E JUMP JUMPDEST DUP1 ISZERO PUSH2 0x12F7 JUMPI DUP1 PUSH1 0x1F LT PUSH2 0x12CC JUMPI PUSH2 0x100 DUP1 DUP4 SLOAD DIV MUL DUP4 MSTORE SWAP2 PUSH1 0x20 ADD SWAP2 PUSH2 0x12F7 JUMP JUMPDEST DUP3 ADD SWAP2 SWAP1 PUSH1 0x0 MSTORE PUSH1 0x20 PUSH1 0x0 KECCAK256 SWAP1 JUMPDEST DUP2 SLOAD DUP2 MSTORE SWAP1 PUSH1 0x1 ADD SWAP1 PUSH1 0x20 ADD DUP1 DUP4 GT PUSH2 0x12DA JUMPI DUP3 SWAP1 SUB PUSH1 0x1F AND DUP3 ADD SWAP2 JUMPDEST POP POP POP POP POP DUP2 MSTORE PUSH1 0x20 ADD SWAP1 PUSH1 0x1 ADD SWAP1 PUSH2 0x1268 JUMP JUMPDEST POP POP POP POP DUP2 MSTORE PUSH1 0x20 ADD PUSH1 0x4 DUP3 ADD PUSH1 0x2 DUP1 PUSH1 0x20 MUL PUSH1 0x40 MLOAD SWAP1 DUP2 ADD PUSH1 0x40 MSTORE DUP1 SWAP3 SWAP2 SWAP1 DUP3 PUSH1 0x2 DUP1 ISZERO PUSH2 0x1375 JUMPI PUSH1 0x20 MUL DUP3 ADD SWAP2 PUSH1 0x0 SWAP1 JUMPDEST DUP3 DUP3 SWAP1 SLOAD SWAP1 PUSH2 0x100 EXP SWAP1 DIV PUSH1 0xFF AND PUSH1 0xFF AND DUP2 MSTORE PUSH1 0x20 ADD SWAP1 PUSH1 0x1 ADD SWAP1 PUSH1 0x20 DUP3 PUSH1 0x0 ADD DIV SWAP3 DUP4 ADD SWAP3 PUSH1 0x1 SUB DUP3 MUL SWAP2 POP DUP1 DUP5 GT PUSH2 0x133E JUMPI SWAP1 POP JUMPDEST POP POP POP POP POP DUP2 MSTORE PUSH1 0x20 ADD PUSH1 0x5 DUP3 ADD PUSH1 0x2 DUP1 PUSH1 0x20 MUL PUSH1 0x40 MLOAD SWAP1 DUP2 ADD PUSH1 0x40 MSTORE DUP1 SWAP3 SWAP2 SWAP1 DUP3 PUSH1 0x2 DUP1 ISZERO PUSH2 0x13E0 JUMPI PUSH1 0x20 MUL DUP3 ADD SWAP2 PUSH1 0x0 SWAP1 JUMPDEST DUP3 DUP3 SWAP1 SLOAD SWAP1 PUSH2 0x100 EXP SWAP1 DIV PUSH1 0xFF AND PUSH1 0xFF AND DUP2 MSTORE PUSH1 0x20 ADD SWAP1 PUSH1 0x1 ADD SWAP1 PUSH1 0x20 DUP3 PUSH1 0x0 ADD DIV SWAP3 DUP4 ADD SWAP3 PUSH1 0x1 SUB DUP3 MUL SWAP2 POP DUP1 DUP5 GT PUSH2 0x13A9 JUMPI SWAP1 POP JUMPDEST POP POP POP POP POP DUP2 MSTORE PUSH1 0x20 ADD PUSH1 0x6 DUP3 ADD PUSH1 0x0 SWAP1 SLOAD SWAP1 PUSH2 0x100 EXP SWAP1 DIV PUSH1 0xFF AND ISZERO ISZERO ISZERO ISZERO DUP2 MSTORE POP POP CALLER PUSH20 0xFFFFFFFFFFFFFFFFFFFFFFFFFFFFFFFFFFFFFFFF AND DUP2 PUSH1 0x20 ADD MLOAD PUSH20 0xFFFFFFFFFFFFFFFFFFFFFFFFFFFFFFFFFFFFFFFF AND EQ DUP1 PUSH2 0x148D JUMPI POP CALLER PUSH20 0xFFFFFFFFFFFFFFFFFFFFFFFFFFFFFFFFFFFFFFFF AND PUSH1 0x0 DUP1 SLOAD SWAP1 PUSH2 0x100 EXP SWAP1 DIV PUSH20 0xFFFFFFFFFFFFFFFFFFFFFFFFFFFFFFFFFFFFFFFF AND PUSH20 0xFFFFFFFFFFFFFFFFFFFFFFFFFFFFFFFFFFFFFFFF AND EQ JUMPDEST PUSH2 0x1496 JUMPI PUSH1 0x0 DUP1 REVERT JUMPDEST PUSH1 0x0 PUSH1 0x1 DUP4 DUP2 SLOAD DUP2 LT PUSH2 0x14AC JUMPI PUSH2 0x14AB PUSH2 0x312E JUMP JUMPDEST JUMPDEST SWAP1 PUSH1 0x0 MSTORE PUSH1 0x20 PUSH1 0x0 KECCAK256 SWAP1 PUSH1 0x7 MUL ADD SWAP1 POP PUSH1 0x1 DUP2 PUSH1 0x6 ADD PUSH1 0x0 PUSH2 0x100 EXP DUP2 SLOAD DUP2 PUSH1 0xFF MUL NOT AND SWAP1 DUP4 ISZERO ISZERO MUL OR SWAP1 SSTORE POP PUSH32 0x83828E89CD2D7BF8161B52806AFF7EB377E41D7FD8C1A5F9B960601207B85080 DUP2 PUSH1 0x40 MLOAD PUSH2 0x1508 SWAP2 SWAP1 PUSH2 0x2968 JUMP JUMPDEST PUSH1 0x40 MLOAD DUP1 SWAP2 SUB SWAP1 LOG1 POP POP POP JUMP JUMPDEST PUSH1 0x0 PUSH1 0x1 DUP4 DUP2 SLOAD DUP2 LT PUSH2 0x152B JUMPI PUSH2 0x152A PUSH2 0x312E JUMP JUMPDEST JUMPDEST SWAP1 PUSH1 0x0 MSTORE PUSH1 0x20 PUSH1 0x0 KECCAK256 SWAP1 PUSH1 0x7 MUL ADD SWAP1 POP DUP1 PUSH1 0x6 ADD PUSH1 0x0 SWAP1 SLOAD SWAP1 PUSH2 0x100 EXP SWAP1 DIV PUSH1 0xFF AND ISZERO PUSH2 0x1557 JUMPI PUSH1 0x0 DUP1 REVERT JUMPDEST PUSH1 0x0 PUSH1 0x1 DUP2 GT ISZERO PUSH2 0x156B JUMPI PUSH2 0x156A PUSH2 0x30D0 JUMP JUMPDEST JUMPDEST DUP3 PUSH1 0x1 DUP2 GT ISZERO PUSH2 0x157E JUMPI PUSH2 0x157D PUSH2 0x30D0 JUMP JUMPDEST JUMPDEST EQ ISZERO PUSH2 0x15DE JUMPI DUP1 PUSH1 0x4 ADD PUSH1 0x0 PUSH1 0x2 DUP2 LT PUSH2 0x159B JUMPI PUSH2 0x159A PUSH2 0x312E JUMP JUMPDEST JUMPDEST PUSH1 0x20 SWAP2 DUP3 DUP3 DIV ADD SWAP2 SWAP1 MOD DUP2 DUP2 SWAP1 SLOAD SWAP1 PUSH2 0x100 EXP SWAP1 DIV PUSH1 0xFF AND DUP1 SWAP3 SWAP2 SWAP1 PUSH2 0x15C0 SWAP1 PUSH2 0x3077 JUMP JUMPDEST SWAP2 SWAP1 PUSH2 0x100 EXP DUP2 SLOAD DUP2 PUSH1 0xFF MUL NOT AND SWAP1 DUP4 PUSH1 0xFF AND MUL OR SWAP1 SSTORE POP POP PUSH2 0x1661 JUMP JUMPDEST PUSH1 0x1 DUP1 DUP2 GT ISZERO PUSH2 0x15F1 JUMPI PUSH2 0x15F0 PUSH2 0x30D0 JUMP JUMPDEST JUMPDEST DUP3 PUSH1 0x1 DUP2 GT ISZERO PUSH2 0x1604 JUMPI PUSH2 0x1603 PUSH2 0x30D0 JUMP JUMPDEST JUMPDEST EQ ISZERO PUSH2 0x1660 JUMPI DUP1 PUSH1 0x5 ADD PUSH1 0x0 PUSH1 0x2 DUP2 LT PUSH2 0x1621 JUMPI PUSH2 0x1620 PUSH2 0x312E JUMP JUMPDEST JUMPDEST PUSH1 0x20 SWAP2 DUP3 DUP3 DIV ADD SWAP2 SWAP1 MOD DUP2 DUP2 SWAP1 SLOAD SWAP1 PUSH2 0x100 EXP SWAP1 DIV PUSH1 0xFF AND DUP1 SWAP3 SWAP2 SWAP1 PUSH2 0x1646 SWAP1 PUSH2 0x3077 JUMP JUMPDEST SWAP2 SWAP1 PUSH2 0x100 EXP DUP2 SLOAD DUP2 PUSH1 0xFF MUL NOT AND SWAP1 DUP4 PUSH1 0xFF AND MUL OR SWAP1 SSTORE POP POP JUMPDEST JUMPDEST PUSH1 0x3 PUSH1 0x0 CALLER PUSH20 0xFFFFFFFFFFFFFFFFFFFFFFFFFFFFFFFFFFFFFFFF AND PUSH20 0xFFFFFFFFFFFFFFFFFFFFFFFFFFFFFFFFFFFFFFFF AND DUP2 MSTORE PUSH1 0x20 ADD SWAP1 DUP2 MSTORE PUSH1 0x20 ADD PUSH1 0x0 KECCAK256 PUSH1 0x0 DUP2 SLOAD DUP1 SWAP3 SWAP2 SWAP1 PUSH2 0x16B1 SWAP1 PUSH2 0x302E JUMP JUMPDEST SWAP2 SWAP1 POP SSTORE POP PUSH32 0xA05181D857066C04504026D4BB187A8386F4E6D20B4437E50FABCDF106769E3 DUP2 PUSH1 0x40 MLOAD PUSH2 0x16E5 SWAP2 SWAP1 PUSH2 0x2968 JUMP JUMPDEST PUSH1 0x40 MLOAD DUP1 SWAP2 SUB SWAP1 LOG1 POP POP POP JUMP JUMPDEST PUSH1 0x40 MLOAD DUP1 PUSH1 0x40 ADD PUSH1 0x40 MSTORE DUP1 PUSH1 0x2 SWAP1 PUSH1 0x20 DUP3 MUL DUP1 CALLDATASIZE DUP4 CALLDATACOPY DUP1 DUP3 ADD SWAP2 POP POP SWAP1 POP POP SWAP1 JUMP JUMPDEST DUP3 PUSH1 0x2 PUSH1 0x1F ADD PUSH1 0x20 SWAP1 DIV DUP2 ADD SWAP3 DUP3 ISZERO PUSH2 0x179D JUMPI SWAP2 PUSH1 0x20 MUL DUP3 ADD PUSH1 0x0 JUMPDEST DUP4 DUP3 GT ISZERO PUSH2 0x176E JUMPI DUP4 MLOAD DUP4 DUP3 PUSH2 0x100 EXP DUP2 SLOAD DUP2 PUSH1 0xFF MUL NOT AND SWAP1 DUP4 PUSH1 0xFF AND MUL OR SWAP1 SSTORE POP SWAP3 PUSH1 0x20 ADD SWAP3 PUSH1 0x1 ADD PUSH1 0x20 DUP2 PUSH1 0x0 ADD DIV SWAP3 DUP4 ADD SWAP3 PUSH1 0x1 SUB MUL PUSH2 0x1730 JUMP JUMPDEST DUP1 ISZERO PUSH2 0x179B JUMPI DUP3 DUP2 PUSH2 0x100 EXP DUP2 SLOAD SWAP1 PUSH1 0xFF MUL NOT AND SWAP1 SSTORE PUSH1 0x1 ADD PUSH1 0x20 DUP2 PUSH1 0x0 ADD DIV SWAP3 DUP4 ADD SWAP3 PUSH1 0x1 SUB MUL PUSH2 0x176E JUMP JUMPDEST POP JUMPDEST POP SWAP1 POP PUSH2 0x17AA SWAP2 SWAP1 PUSH2 0x1861 JUMP JUMPDEST POP SWAP1 JUMP JUMPDEST PUSH1 0x40 MLOAD DUP1 PUSH1 0xC0 ADD PUSH1 0x40 MSTORE DUP1 PUSH1 0x0 DUP2 MSTORE PUSH1 0x20 ADD PUSH1 0x0 PUSH20 0xFFFFFFFFFFFFFFFFFFFFFFFFFFFFFFFFFFFFFFFF AND DUP2 MSTORE PUSH1 0x20 ADD PUSH2 0x17E5 PUSH2 0x187E JUMP JUMPDEST DUP2 MSTORE PUSH1 0x20 ADD PUSH2 0x17F2 PUSH2 0x18A5 JUMP JUMPDEST DUP2 MSTORE PUSH1 0x20 ADD PUSH2 0x17FF PUSH2 0x18A5 JUMP JUMPDEST DUP2 MSTORE PUSH1 0x20 ADD PUSH1 0x0 ISZERO ISZERO DUP2 MSTORE POP SWAP1 JUMP JUMPDEST DUP3 PUSH1 0x2 DUP2 ADD SWAP3 DUP3 ISZERO PUSH2 0x1850 JUMPI SWAP2 PUSH1 0x20 MUL DUP3 ADD JUMPDEST DUP3 DUP2 GT ISZERO PUSH2 0x184F JUMPI DUP3 MLOAD DUP3 SWAP1 DUP1 MLOAD SWAP1 PUSH1 0x20 ADD SWAP1 PUSH2 0x183F SWAP3 SWAP2 SWAP1 PUSH2 0x18C7 JUMP JUMPDEST POP SWAP2 PUSH1 0x20 ADD SWAP2 SWAP1 PUSH1 0x1 ADD SWAP1 PUSH2 0x1821 JUMP JUMPDEST JUMPDEST POP SWAP1 POP PUSH2 0x185D SWAP2 SWAP1 PUSH2 0x194D JUMP JUMPDEST POP SWAP1 JUMP JUMPDEST JUMPDEST DUP1 DUP3 GT ISZERO PUSH2 0x187A JUMPI PUSH1 0x0 DUP2 PUSH1 0x0 SWAP1 SSTORE POP PUSH1 0x1 ADD PUSH2 0x1862 JUMP JUMPDEST POP SWAP1 JUMP JUMPDEST PUSH1 0x40 MLOAD DUP1 PUSH1 0x40 ADD PUSH1 0x40 MSTORE DUP1 PUSH1 0x2 SWAP1 JUMPDEST PUSH1 0x60 DUP2 MSTORE PUSH1 0x20 ADD SWAP1 PUSH1 0x1 SWAP1 SUB SWAP1 DUP2 PUSH2 0x188D JUMPI SWAP1 POP POP SWAP1 JUMP JUMPDEST PUSH1 0x40 MLOAD DUP1 PUSH1 0x40 ADD PUSH1 0x40 MSTORE DUP1 PUSH1 0x2 SWAP1 PUSH1 0x20 DUP3 MUL DUP1 CALLDATASIZE DUP4 CALLDATACOPY DUP1 DUP3 ADD SWAP2 POP POP SWAP1 POP POP SWAP1 JUMP JUMPDEST DUP3 DUP1 SLOAD PUSH2 0x18D3 SWAP1 PUSH2 0x2C6E JUMP JUMPDEST SWAP1 PUSH1 0x0 MSTORE PUSH1 0x20 PUSH1 0x0 KECCAK256 SWAP1 PUSH1 0x1F ADD PUSH1 0x20 SWAP1 DIV DUP2 ADD SWAP3 DUP3 PUSH2 0x18F5 JUMPI PUSH1 0x0 DUP6 SSTORE PUSH2 0x193C JUMP JUMPDEST DUP3 PUSH1 0x1F LT PUSH2 0x190E JUMPI DUP1 MLOAD PUSH1 0xFF NOT AND DUP4 DUP1 ADD OR DUP6 SSTORE PUSH2 0x193C JUMP JUMPDEST DUP3 DUP1 ADD PUSH1 0x1 ADD DUP6 SSTORE DUP3 ISZERO PUSH2 0x193C JUMPI SWAP2 DUP3 ADD JUMPDEST DUP3 DUP2 GT ISZERO PUSH2 0x193B JUMPI DUP3 MLOAD DUP3 SSTORE SWAP2 PUSH1 0x20 ADD SWAP2 SWAP1 PUSH1 0x1 ADD SWAP1 PUSH2 0x1920 JUMP JUMPDEST JUMPDEST POP SWAP1 POP PUSH2 0x1949 SWAP2 SWAP1 PUSH2 0x1861 JUMP JUMPDEST POP SWAP1 JUMP JUMPDEST JUMPDEST DUP1 DUP3 GT ISZERO PUSH2 0x196D JUMPI PUSH1 0x0 DUP2 DUP2 PUSH2 0x1964 SWAP2 SWAP1 PUSH2 0x1971 JUMP JUMPDEST POP PUSH1 0x1 ADD PUSH2 0x194E JUMP JUMPDEST POP SWAP1 JUMP JUMPDEST POP DUP1 SLOAD PUSH2 0x197D SWAP1 PUSH2 0x2C6E JUMP JUMPDEST PUSH1 0x0 DUP3 SSTORE DUP1 PUSH1 0x1F LT PUSH2 0x198F JUMPI POP PUSH2 0x19AE JUMP JUMPDEST PUSH1 0x1F ADD PUSH1 0x20 SWAP1 DIV SWAP1 PUSH1 0x0 MSTORE PUSH1 0x20 PUSH1 0x0 KECCAK256 SWAP1 DUP2 ADD SWAP1 PUSH2 0x19AD SWAP2 SWAP1 PUSH2 0x1861 JUMP JUMPDEST JUMPDEST POP JUMP JUMPDEST PUSH1 0x0 DUP2 CALLDATALOAD SWAP1 POP PUSH2 0x19C0 DUP2 PUSH2 0x3327 JUMP JUMPDEST SWAP3 SWAP2 POP POP JUMP JUMPDEST PUSH1 0x0 DUP2 CALLDATALOAD SWAP1 POP PUSH2 0x19D5 DUP2 PUSH2 0x333E JUMP JUMPDEST SWAP3 SWAP2 POP POP JUMP JUMPDEST PUSH1 0x0 DUP1 DUP4 PUSH1 0x1F DUP5 ADD SLT PUSH2 0x19F1 JUMPI PUSH2 0x19F0 PUSH2 0x3162 JUMP JUMPDEST JUMPDEST DUP3 CALLDATALOAD SWAP1 POP PUSH8 0xFFFFFFFFFFFFFFFF DUP2 GT ISZERO PUSH2 0x1A0E JUMPI PUSH2 0x1A0D PUSH2 0x315D JUMP JUMPDEST JUMPDEST PUSH1 0x20 DUP4 ADD SWAP2 POP DUP4 PUSH1 0x1 DUP3 MUL DUP4 ADD GT ISZERO PUSH2 0x1A2A JUMPI PUSH2 0x1A29 PUSH2 0x3167 JUMP JUMPDEST JUMPDEST SWAP3 POP SWAP3 SWAP1 POP JUMP JUMPDEST PUSH1 0x0 DUP2 CALLDATALOAD SWAP1 POP PUSH2 0x1A40 DUP2 PUSH2 0x334E JUMP JUMPDEST SWAP3 SWAP2 POP POP JUMP JUMPDEST PUSH1 0x0 DUP2 CALLDATALOAD SWAP1 POP PUSH2 0x1A55 DUP2 PUSH2 0x3365 JUMP JUMPDEST SWAP3 SWAP2 POP POP JUMP JUMPDEST PUSH1 0x0 PUSH1 0x20 DUP3 DUP5 SUB SLT ISZERO PUSH2 0x1A71 JUMPI PUSH2 0x1A70 PUSH2 0x3171 JUMP JUMPDEST JUMPDEST PUSH1 0x0 PUSH2 0x1A7F DUP5 DUP3 DUP6 ADD PUSH2 0x19B1 JUMP JUMPDEST SWAP2 POP POP SWAP3 SWAP2 POP POP JUMP JUMPDEST PUSH1 0x0 DUP1 PUSH1 0x0 DUP1 PUSH1 0x40 DUP6 DUP8 SUB SLT ISZERO PUSH2 0x1AA2 JUMPI PUSH2 0x1AA1 PUSH2 0x3171 JUMP JUMPDEST JUMPDEST PUSH1 0x0 DUP6 ADD CALLDATALOAD PUSH8 0xFFFFFFFFFFFFFFFF DUP2 GT ISZERO PUSH2 0x1AC0 JUMPI PUSH2 0x1ABF PUSH2 0x316C JUMP JUMPDEST JUMPDEST PUSH2 0x1ACC DUP8 DUP3 DUP9 ADD PUSH2 0x19DB JUMP JUMPDEST SWAP5 POP SWAP5 POP POP PUSH1 0x20 DUP6 ADD CALLDATALOAD PUSH8 0xFFFFFFFFFFFFFFFF DUP2 GT ISZERO PUSH2 0x1AEF JUMPI PUSH2 0x1AEE PUSH2 0x316C JUMP JUMPDEST JUMPDEST PUSH2 0x1AFB DUP8 DUP3 DUP9 ADD PUSH2 0x19DB JUMP JUMPDEST SWAP3 POP SWAP3 POP POP SWAP3 SWAP6 SWAP2 SWAP5 POP SWAP3 POP JUMP JUMPDEST PUSH1 0x0 PUSH1 0x20 DUP3 DUP5 SUB SLT ISZERO PUSH2 0x1B1F JUMPI PUSH2 0x1B1E PUSH2 0x3171 JUMP JUMPDEST JUMPDEST PUSH1 0x0 PUSH2 0x1B2D DUP5 DUP3 DUP6 ADD PUSH2 0x1A31 JUMP JUMPDEST SWAP2 POP POP SWAP3 SWAP2 POP POP JUMP JUMPDEST PUSH1 0x0 DUP1 PUSH1 0x40 DUP4 DUP6 SUB SLT ISZERO PUSH2 0x1B4D JUMPI PUSH2 0x1B4C PUSH2 0x3171 JUMP JUMPDEST JUMPDEST PUSH1 0x0 PUSH2 0x1B5B DUP6 DUP3 DUP7 ADD PUSH2 0x1A31 JUMP JUMPDEST SWAP3 POP POP PUSH1 0x20 PUSH2 0x1B6C DUP6 DUP3 DUP7 ADD PUSH2 0x19C6 JUMP JUMPDEST SWAP2 POP POP SWAP3 POP SWAP3 SWAP1 POP JUMP JUMPDEST PUSH1 0x0 DUP1 PUSH1 0x0 DUP1 PUSH1 0x0 PUSH1 0xA0 DUP7 DUP9 SUB SLT ISZERO PUSH2 0x1B92 JUMPI PUSH2 0x1B91 PUSH2 0x3171 JUMP JUMPDEST JUMPDEST PUSH1 0x0 PUSH2 0x1BA0 DUP9 DUP3 DUP10 ADD PUSH2 0x1A31 JUMP JUMPDEST SWAP6 POP POP PUSH1 0x20 PUSH2 0x1BB1 DUP9 DUP3 DUP10 ADD PUSH2 0x1A46 JUMP JUMPDEST SWAP5 POP POP PUSH1 0x40 PUSH2 0x1BC2 DUP9 DUP3 DUP10 ADD PUSH2 0x1A46 JUMP JUMPDEST SWAP4 POP POP PUSH1 0x60 PUSH2 0x1BD3 DUP9 DUP3 DUP10 ADD PUSH2 0x1A46 JUMP JUMPDEST SWAP3 POP POP PUSH1 0x80 PUSH2 0x1BE4 DUP9 DUP3 DUP10 ADD PUSH2 0x1A46 JUMP JUMPDEST SWAP2 POP POP SWAP3 SWAP6 POP SWAP3 SWAP6 SWAP1 SWAP4 POP JUMP JUMPDEST PUSH1 0x0 PUSH2 0x1BFD DUP4 DUP4 PUSH2 0x266B JUMP JUMPDEST SWAP1 POP SWAP3 SWAP2 POP POP JUMP JUMPDEST PUSH1 0x0 PUSH2 0x1C11 DUP4 DUP4 PUSH2 0x26DD JUMP JUMPDEST SWAP1 POP SWAP3 SWAP2 POP POP JUMP JUMPDEST PUSH1 0x0 PUSH2 0x1C25 DUP4 DUP4 PUSH2 0x2891 JUMP JUMPDEST PUSH1 0x20 DUP4 ADD SWAP1 POP SWAP3 SWAP2 POP POP JUMP JUMPDEST PUSH1 0x0 PUSH2 0x1C3D DUP4 DUP4 PUSH2 0x28AF JUMP JUMPDEST PUSH1 0x20 DUP4 ADD SWAP1 POP SWAP3 SWAP2 POP POP JUMP JUMPDEST PUSH2 0x1C52 DUP2 PUSH2 0x2BE6 JUMP JUMPDEST DUP3 MSTORE POP POP JUMP JUMPDEST PUSH2 0x1C61 DUP2 PUSH2 0x2BE6 JUMP JUMPDEST DUP3 MSTORE POP POP JUMP JUMPDEST PUSH1 0x0 PUSH2 0x1C72 DUP3 PUSH2 0x2A23 JUMP JUMPDEST PUSH2 0x1C7C DUP2 DUP6 PUSH2 0x2AA4 JUMP JUMPDEST SWAP4 POP DUP4 PUSH1 0x20 DUP3 MUL DUP6 ADD PUSH2 0x1C8E DUP6 PUSH2 0x29DC JUMP JUMPDEST DUP1 PUSH1 0x0 JUMPDEST DUP6 DUP2 LT ISZERO PUSH2 0x1CCA JUMPI DUP5 DUP5 SUB DUP10 MSTORE DUP2 MLOAD PUSH2 0x1CAB DUP6 DUP3 PUSH2 0x1BF1 JUMP JUMPDEST SWAP5 POP PUSH2 0x1CB6 DUP4 PUSH2 0x2A70 JUMP JUMPDEST SWAP3 POP PUSH1 0x20 DUP11 ADD SWAP10 POP POP PUSH1 0x1 DUP2 ADD SWAP1 POP PUSH2 0x1C92 JUMP JUMPDEST POP DUP3 SWAP8 POP DUP8 SWAP6 POP POP POP POP POP POP SWAP3 SWAP2 POP POP JUMP JUMPDEST PUSH1 0x0 PUSH2 0x1CE7 DUP3 PUSH2 0x2A2E JUMP JUMPDEST PUSH2 0x1CF1 DUP2 DUP6 PUSH2 0x2AA4 JUMP JUMPDEST SWAP4 POP DUP4 PUSH1 0x20 DUP3 MUL DUP6 ADD PUSH2 0x1D03 DUP6 PUSH2 0x29E6 JUMP JUMPDEST DUP1 PUSH1 0x0 JUMPDEST DUP6 DUP2 LT ISZERO PUSH2 0x1D3E JUMPI DUP5 DUP5 SUB DUP10 MSTORE DUP2 PUSH2 0x1D1F DUP6 DUP3 PUSH2 0x1C05 JUMP JUMPDEST SWAP5 POP PUSH2 0x1D2A DUP4 PUSH2 0x2A7D JUMP JUMPDEST SWAP3 POP PUSH1 0x20 DUP11 ADD SWAP10 POP POP PUSH1 0x1 DUP2 ADD SWAP1 POP PUSH2 0x1D07 JUMP JUMPDEST POP DUP3 SWAP8 POP DUP8 SWAP6 POP POP POP POP POP POP SWAP3 SWAP2 POP POP JUMP JUMPDEST PUSH2 0x1D59 DUP2 PUSH2 0x2A39 JUMP JUMPDEST PUSH2 0x1D63 DUP2 DUP5 PUSH2 0x2AAF JUMP JUMPDEST SWAP3 POP PUSH2 0x1D6E DUP3 PUSH2 0x29F0 JUMP JUMPDEST DUP1 PUSH1 0x0 JUMPDEST DUP4 DUP2 LT ISZERO PUSH2 0x1D9F JUMPI DUP2 MLOAD PUSH2 0x1D86 DUP8 DUP3 PUSH2 0x1C19 JUMP JUMPDEST SWAP7 POP PUSH2 0x1D91 DUP4 PUSH2 0x2A8A JUMP JUMPDEST SWAP3 POP POP PUSH1 0x1 DUP2 ADD SWAP1 POP PUSH2 0x1D72 JUMP JUMPDEST POP POP POP POP POP POP JUMP JUMPDEST PUSH2 0x1DB0 DUP2 PUSH2 0x2A44 JUMP JUMPDEST PUSH2 0x1DBA DUP2 DUP5 PUSH2 0x2ABA JUMP JUMPDEST SWAP3 POP PUSH2 0x1DC5 DUP3 PUSH2 0x29FA JUMP JUMPDEST DUP1 PUSH1 0x0 JUMPDEST DUP4 DUP2 LT ISZERO PUSH2 0x1DF6 JUMPI DUP2 MLOAD PUSH2 0x1DDD DUP8 DUP3 PUSH2 0x1C31 JUMP JUMPDEST SWAP7 POP PUSH2 0x1DE8 DUP4 PUSH2 0x2A97 JUMP JUMPDEST SWAP3 POP POP PUSH1 0x1 DUP2 ADD SWAP1 POP PUSH2 0x1DC9 JUMP JUMPDEST POP POP POP POP POP POP JUMP JUMPDEST PUSH2 0x1E07 DUP2 PUSH2 0x2A4F JUMP JUMPDEST PUSH2 0x1E11 DUP2 DUP5 PUSH2 0x2ABA JUMP JUMPDEST SWAP3 POP DUP3 PUSH2 0x1E1D DUP4 PUSH2 0x2A04 JUMP JUMPDEST PUSH1 0x0 DUP1 ISZERO PUSH2 0x2149 JUMPI JUMPDEST DUP4 PUSH1 0x1 PUSH1 0x20 SUB DUP3 ADD LT ISZERO PUSH2 0x2148 JUMPI DUP2 SLOAD PUSH2 0x1E48 DUP8 PUSH2 0x1E43 DUP4 PUSH2 0x2CEE JUMP JUMPDEST PUSH2 0x28AF JUMP JUMPDEST PUSH1 0x20 DUP8 ADD SWAP7 POP PUSH2 0x1E60 DUP8 PUSH2 0x1E5B DUP4 PUSH2 0x2E0C JUMP JUMPDEST PUSH2 0x28AF JUMP JUMPDEST PUSH1 0x20 DUP8 ADD SWAP7 POP PUSH2 0x1E78 DUP8 PUSH2 0x1E73 DUP4 PUSH2 0x2F2A JUMP JUMPDEST PUSH2 0x28AF JUMP JUMPDEST PUSH1 0x20 DUP8 ADD SWAP7 POP PUSH2 0x1E90 DUP8 PUSH2 0x1E8B DUP4 PUSH2 0x2F78 JUMP JUMPDEST PUSH2 0x28AF JUMP JUMPDEST PUSH1 0x20 DUP8 ADD SWAP7 POP PUSH2 0x1EA8 DUP8 PUSH2 0x1EA3 DUP4 PUSH2 0x2F92 JUMP JUMPDEST PUSH2 0x28AF JUMP JUMPDEST PUSH1 0x20 DUP8 ADD SWAP7 POP PUSH2 0x1EC0 DUP8 PUSH2 0x1EBB DUP4 PUSH2 0x2FAC JUMP JUMPDEST PUSH2 0x28AF JUMP JUMPDEST PUSH1 0x20 DUP8 ADD SWAP7 POP PUSH2 0x1ED8 DUP8 PUSH2 0x1ED3 DUP4 PUSH2 0x2FC6 JUMP JUMPDEST PUSH2 0x28AF JUMP JUMPDEST PUSH1 0x20 DUP8 ADD SWAP7 POP PUSH2 0x1EF0 DUP8 PUSH2 0x1EEB DUP4 PUSH2 0x2FE0 JUMP JUMPDEST PUSH2 0x28AF JUMP JUMPDEST PUSH1 0x20 DUP8 ADD SWAP7 POP PUSH2 0x1F08 DUP8 PUSH2 0x1F03 DUP4 PUSH2 0x2FFA JUMP JUMPDEST PUSH2 0x28AF JUMP JUMPDEST PUSH1 0x20 DUP8 ADD SWAP7 POP PUSH2 0x1F20 DUP8 PUSH2 0x1F1B DUP4 PUSH2 0x3014 JUMP JUMPDEST PUSH2 0x28AF JUMP JUMPDEST PUSH1 0x20 DUP8 ADD SWAP7 POP PUSH2 0x1F38 DUP8 PUSH2 0x1F33 DUP4 PUSH2 0x2D08 JUMP JUMPDEST PUSH2 0x28AF JUMP JUMPDEST PUSH1 0x20 DUP8 ADD SWAP7 POP PUSH2 0x1F50 DUP8 PUSH2 0x1F4B DUP4 PUSH2 0x2D22 JUMP JUMPDEST PUSH2 0x28AF JUMP JUMPDEST PUSH1 0x20 DUP8 ADD SWAP7 POP PUSH2 0x1F68 DUP8 PUSH2 0x1F63 DUP4 PUSH2 0x2D3C JUMP JUMPDEST PUSH2 0x28AF JUMP JUMPDEST PUSH1 0x20 DUP8 ADD SWAP7 POP PUSH2 0x1F80 DUP8 PUSH2 0x1F7B DUP4 PUSH2 0x2D56 JUMP JUMPDEST PUSH2 0x28AF JUMP JUMPDEST PUSH1 0x20 DUP8 ADD SWAP7 POP PUSH2 0x1F98 DUP8 PUSH2 0x1F93 DUP4 PUSH2 0x2D70 JUMP JUMPDEST PUSH2 0x28AF JUMP JUMPDEST PUSH1 0x20 DUP8 ADD SWAP7 POP PUSH2 0x1FB0 DUP8 PUSH2 0x1FAB DUP4 PUSH2 0x2D8A JUMP JUMPDEST PUSH2 0x28AF JUMP JUMPDEST PUSH1 0x20 DUP8 ADD SWAP7 POP PUSH2 0x1FC8 DUP8 PUSH2 0x1FC3 DUP4 PUSH2 0x2DA4 JUMP JUMPDEST PUSH2 0x28AF JUMP JUMPDEST PUSH1 0x20 DUP8 ADD SWAP7 POP PUSH2 0x1FE0 DUP8 PUSH2 0x1FDB DUP4 PUSH2 0x2DBE JUMP JUMPDEST PUSH2 0x28AF JUMP JUMPDEST PUSH1 0x20 DUP8 ADD SWAP7 POP PUSH2 0x1FF8 DUP8 PUSH2 0x1FF3 DUP4 PUSH2 0x2DD8 JUMP JUMPDEST PUSH2 0x28AF JUMP JUMPDEST PUSH1 0x20 DUP8 ADD SWAP7 POP PUSH2 0x2010 DUP8 PUSH2 0x200B DUP4 PUSH2 0x2DF2 JUMP JUMPDEST PUSH2 0x28AF JUMP JUMPDEST PUSH1 0x20 DUP8 ADD SWAP7 POP PUSH2 0x2028 DUP8 PUSH2 0x2023 DUP4 PUSH2 0x2E26 JUMP JUMPDEST PUSH2 0x28AF JUMP JUMPDEST PUSH1 0x20 DUP8 ADD SWAP7 POP PUSH2 0x2040 DUP8 PUSH2 0x203B DUP4 PUSH2 0x2E40 JUMP JUMPDEST PUSH2 0x28AF JUMP JUMPDEST PUSH1 0x20 DUP8 ADD SWAP7 POP PUSH2 0x2058 DUP8 PUSH2 0x2053 DUP4 PUSH2 0x2E5A JUMP JUMPDEST PUSH2 0x28AF JUMP JUMPDEST PUSH1 0x20 DUP8 ADD SWAP7 POP PUSH2 0x2070 DUP8 PUSH2 0x206B DUP4 PUSH2 0x2E74 JUMP JUMPDEST PUSH2 0x28AF JUMP JUMPDEST PUSH1 0x20 DUP8 ADD SWAP7 POP PUSH2 0x2088 DUP8 PUSH2 0x2083 DUP4 PUSH2 0x2E8E JUMP JUMPDEST PUSH2 0x28AF JUMP JUMPDEST PUSH1 0x20 DUP8 ADD SWAP7 POP PUSH2 0x20A0 DUP8 PUSH2 0x209B DUP4 PUSH2 0x2EA8 JUMP JUMPDEST PUSH2 0x28AF JUMP JUMPDEST PUSH1 0x20 DUP8 ADD SWAP7 POP PUSH2 0x20B8 DUP8 PUSH2 0x20B3 DUP4 PUSH2 0x2EC2 JUMP JUMPDEST PUSH2 0x28AF JUMP JUMPDEST PUSH1 0x20 DUP8 ADD SWAP7 POP PUSH2 0x20D0 DUP8 PUSH2 0x20CB DUP4 PUSH2 0x2EDC JUMP JUMPDEST PUSH2 0x28AF JUMP JUMPDEST PUSH1 0x20 DUP8 ADD SWAP7 POP PUSH2 0x20E8 DUP8 PUSH2 0x20E3 DUP4 PUSH2 0x2EF6 JUMP JUMPDEST PUSH2 0x28AF JUMP JUMPDEST PUSH1 0x20 DUP8 ADD SWAP7 POP PUSH2 0x2100 DUP8 PUSH2 0x20FB DUP4 PUSH2 0x2F10 JUMP JUMPDEST PUSH2 0x28AF JUMP JUMPDEST PUSH1 0x20 DUP8 ADD SWAP7 POP PUSH2 0x2118 DUP8 PUSH2 0x2113 DUP4 PUSH2 0x2F44 JUMP JUMPDEST PUSH2 0x28AF JUMP JUMPDEST PUSH1 0x20 DUP8 ADD SWAP7 POP PUSH2 0x2130 DUP8 PUSH2 0x212B DUP4 PUSH2 0x2F5E JUMP JUMPDEST PUSH2 0x28AF JUMP JUMPDEST PUSH1 0x20 DUP8 ADD SWAP7 POP PUSH1 0x1 DUP4 ADD SWAP3 POP POP PUSH1 0x20 DUP2 ADD SWAP1 POP PUSH2 0x1E26 JUMP JUMPDEST JUMPDEST PUSH1 0x1 ISZERO PUSH2 0x2614 JUMPI DUP2 SLOAD PUSH1 0x1 ISZERO PUSH2 0x2178 JUMPI PUSH2 0x216B DUP8 PUSH2 0x2166 DUP4 PUSH2 0x2CEE JUMP JUMPDEST PUSH2 0x28AF JUMP JUMPDEST PUSH1 0x20 DUP8 ADD SWAP7 POP PUSH1 0x1 DUP3 ADD SWAP2 POP JUMPDEST PUSH1 0x1 ISZERO PUSH2 0x219E JUMPI PUSH2 0x2191 DUP8 PUSH2 0x218C DUP4 PUSH2 0x2E0C JUMP JUMPDEST PUSH2 0x28AF JUMP JUMPDEST PUSH1 0x20 DUP8 ADD SWAP7 POP PUSH1 0x1 DUP3 ADD SWAP2 POP JUMPDEST PUSH1 0x0 ISZERO PUSH2 0x21C4 JUMPI PUSH2 0x21B7 DUP8 PUSH2 0x21B2 DUP4 PUSH2 0x2F2A JUMP JUMPDEST PUSH2 0x28AF JUMP JUMPDEST PUSH1 0x20 DUP8 ADD SWAP7 POP PUSH1 0x1 DUP3 ADD SWAP2 POP JUMPDEST PUSH1 0x0 ISZERO PUSH2 0x21EA JUMPI PUSH2 0x21DD DUP8 PUSH2 0x21D8 DUP4 PUSH2 0x2F78 JUMP JUMPDEST PUSH2 0x28AF JUMP JUMPDEST PUSH1 0x20 DUP8 ADD SWAP7 POP PUSH1 0x1 DUP3 ADD SWAP2 POP JUMPDEST PUSH1 0x0 ISZERO PUSH2 0x2210 JUMPI PUSH2 0x2203 DUP8 PUSH2 0x21FE DUP4 PUSH2 0x2F92 JUMP JUMPDEST PUSH2 0x28AF JUMP JUMPDEST PUSH1 0x20 DUP8 ADD SWAP7 POP PUSH1 0x1 DUP3 ADD SWAP2 POP JUMPDEST PUSH1 0x0 ISZERO PUSH2 0x2236 JUMPI PUSH2 0x2229 DUP8 PUSH2 0x2224 DUP4 PUSH2 0x2FAC JUMP JUMPDEST PUSH2 0x28AF JUMP JUMPDEST PUSH1 0x20 DUP8 ADD SWAP7 POP PUSH1 0x1 DUP3 ADD SWAP2 POP JUMPDEST PUSH1 0x0 ISZERO PUSH2 0x225C JUMPI PUSH2 0x224F DUP8 PUSH2 0x224A DUP4 PUSH2 0x2FC6 JUMP JUMPDEST PUSH2 0x28AF JUMP JUMPDEST PUSH1 0x20 DUP8 ADD SWAP7 POP PUSH1 0x1 DUP3 ADD SWAP2 POP JUMPDEST PUSH1 0x0 ISZERO PUSH2 0x2282 JUMPI PUSH2 0x2275 DUP8 PUSH2 0x2270 DUP4 PUSH2 0x2FE0 JUMP JUMPDEST PUSH2 0x28AF JUMP JUMPDEST PUSH1 0x20 DUP8 ADD SWAP7 POP PUSH1 0x1 DUP3 ADD SWAP2 POP JUMPDEST PUSH1 0x0 ISZERO PUSH2 0x22A8 JUMPI PUSH2 0x229B DUP8 PUSH2 0x2296 DUP4 PUSH2 0x2FFA JUMP JUMPDEST PUSH2 0x28AF JUMP JUMPDEST PUSH1 0x20 DUP8 ADD SWAP7 POP PUSH1 0x1 DUP3 ADD SWAP2 POP JUMPDEST PUSH1 0x0 ISZERO PUSH2 0x22CE JUMPI PUSH2 0x22C1 DUP8 PUSH2 0x22BC DUP4 PUSH2 0x3014 JUMP JUMPDEST PUSH2 0x28AF JUMP JUMPDEST PUSH1 0x20 DUP8 ADD SWAP7 POP PUSH1 0x1 DUP3 ADD SWAP2 POP JUMPDEST PUSH1 0x0 ISZERO PUSH2 0x22F4 JUMPI PUSH2 0x22E7 DUP8 PUSH2 0x22E2 DUP4 PUSH2 0x2D08 JUMP JUMPDEST PUSH2 0x28AF JUMP JUMPDEST PUSH1 0x20 DUP8 ADD SWAP7 POP PUSH1 0x1 DUP3 ADD SWAP2 POP JUMPDEST PUSH1 0x0 ISZERO PUSH2 0x231A JUMPI PUSH2 0x230D DUP8 PUSH2 0x2308 DUP4 PUSH2 0x2D22 JUMP JUMPDEST PUSH2 0x28AF JUMP JUMPDEST PUSH1 0x20 DUP8 ADD SWAP7 POP PUSH1 0x1 DUP3 ADD SWAP2 POP JUMPDEST PUSH1 0x0 ISZERO PUSH2 0x2340 JUMPI PUSH2 0x2333 DUP8 PUSH2 0x232E DUP4 PUSH2 0x2D3C JUMP JUMPDEST PUSH2 0x28AF JUMP JUMPDEST PUSH1 0x20 DUP8 ADD SWAP7 POP PUSH1 0x1 DUP3 ADD SWAP2 POP JUMPDEST PUSH1 0x0 ISZERO PUSH2 0x2366 JUMPI PUSH2 0x2359 DUP8 PUSH2 0x2354 DUP4 PUSH2 0x2D56 JUMP JUMPDEST PUSH2 0x28AF JUMP JUMPDEST PUSH1 0x20 DUP8 ADD SWAP7 POP PUSH1 0x1 DUP3 ADD SWAP2 POP JUMPDEST PUSH1 0x0 ISZERO PUSH2 0x238C JUMPI PUSH2 0x237F DUP8 PUSH2 0x237A DUP4 PUSH2 0x2D70 JUMP JUMPDEST PUSH2 0x28AF JUMP JUMPDEST PUSH1 0x20 DUP8 ADD SWAP7 POP PUSH1 0x1 DUP3 ADD SWAP2 POP JUMPDEST PUSH1 0x0 ISZERO PUSH2 0x23B2 JUMPI PUSH2 0x23A5 DUP8 PUSH2 0x23A0 DUP4 PUSH2 0x2D8A JUMP JUMPDEST PUSH2 0x28AF JUMP JUMPDEST PUSH1 0x20 DUP8 ADD SWAP7 POP PUSH1 0x1 DUP3 ADD SWAP2 POP JUMPDEST PUSH1 0x0 ISZERO PUSH2 0x23D8 JUMPI PUSH2 0x23CB DUP8 PUSH2 0x23C6 DUP4 PUSH2 0x2DA4 JUMP JUMPDEST PUSH2 0x28AF JUMP JUMPDEST PUSH1 0x20 DUP8 ADD SWAP7 POP PUSH1 0x1 DUP3 ADD SWAP2 POP JUMPDEST PUSH1 0x0 ISZERO PUSH2 0x23FE JUMPI PUSH2 0x23F1 DUP8 PUSH2 0x23EC DUP4 PUSH2 0x2DBE JUMP JUMPDEST PUSH2 0x28AF JUMP JUMPDEST PUSH1 0x20 DUP8 ADD SWAP7 POP PUSH1 0x1 DUP3 ADD SWAP2 POP JUMPDEST PUSH1 0x0 ISZERO PUSH2 0x2424 JUMPI PUSH2 0x2417 DUP8 PUSH2 0x2412 DUP4 PUSH2 0x2DD8 JUMP JUMPDEST PUSH2 0x28AF JUMP JUMPDEST PUSH1 0x20 DUP8 ADD SWAP7 POP PUSH1 0x1 DUP3 ADD SWAP2 POP JUMPDEST PUSH1 0x0 ISZERO PUSH2 0x244A JUMPI PUSH2 0x243D DUP8 PUSH2 0x2438 DUP4 PUSH2 0x2DF2 JUMP JUMPDEST PUSH2 0x28AF JUMP JUMPDEST PUSH1 0x20 DUP8 ADD SWAP7 POP PUSH1 0x1 DUP3 ADD SWAP2 POP JUMPDEST PUSH1 0x0 ISZERO PUSH2 0x2470 JUMPI PUSH2 0x2463 DUP8 PUSH2 0x245E DUP4 PUSH2 0x2E26 JUMP JUMPDEST PUSH2 0x28AF JUMP JUMPDEST PUSH1 0x20 DUP8 ADD SWAP7 POP PUSH1 0x1 DUP3 ADD SWAP2 POP JUMPDEST PUSH1 0x0 ISZERO PUSH2 0x2496 JUMPI PUSH2 0x2489 DUP8 PUSH2 0x2484 DUP4 PUSH2 0x2E40 JUMP JUMPDEST PUSH2 0x28AF JUMP JUMPDEST PUSH1 0x20 DUP8 ADD SWAP7 POP PUSH1 0x1 DUP3 ADD SWAP2 POP JUMPDEST PUSH1 0x0 ISZERO PUSH2 0x24BC JUMPI PUSH2 0x24AF DUP8 PUSH2 0x24AA DUP4 PUSH2 0x2E5A JUMP JUMPDEST PUSH2 0x28AF JUMP JUMPDEST PUSH1 0x20 DUP8 ADD SWAP7 POP PUSH1 0x1 DUP3 ADD SWAP2 POP JUMPDEST PUSH1 0x0 ISZERO PUSH2 0x24E2 JUMPI PUSH2 0x24D5 DUP8 PUSH2 0x24D0 DUP4 PUSH2 0x2E74 JUMP JUMPDEST PUSH2 0x28AF JUMP JUMPDEST PUSH1 0x20 DUP8 ADD SWAP7 POP PUSH1 0x1 DUP3 ADD SWAP2 POP JUMPDEST PUSH1 0x0 ISZERO PUSH2 0x2508 JUMPI PUSH2 0x24FB DUP8 PUSH2 0x24F6 DUP4 PUSH2 0x2E8E JUMP JUMPDEST PUSH2 0x28AF JUMP JUMPDEST PUSH1 0x20 DUP8 ADD SWAP7 POP PUSH1 0x1 DUP3 ADD SWAP2 POP JUMPDEST PUSH1 0x0 ISZERO PUSH2 0x252E JUMPI PUSH2 0x2521 DUP8 PUSH2 0x251C DUP4 PUSH2 0x2EA8 JUMP JUMPDEST PUSH2 0x28AF JUMP JUMPDEST PUSH1 0x20 DUP8 ADD SWAP7 POP PUSH1 0x1 DUP3 ADD SWAP2 POP JUMPDEST PUSH1 0x0 ISZERO PUSH2 0x2554 JUMPI PUSH2 0x2547 DUP8 PUSH2 0x2542 DUP4 PUSH2 0x2EC2 JUMP JUMPDEST PUSH2 0x28AF JUMP JUMPDEST PUSH1 0x20 DUP8 ADD SWAP7 POP PUSH1 0x1 DUP3 ADD SWAP2 POP JUMPDEST PUSH1 0x0 ISZERO PUSH2 0x257A JUMPI PUSH2 0x256D DUP8 PUSH2 0x2568 DUP4 PUSH2 0x2EDC JUMP JUMPDEST PUSH2 0x28AF JUMP JUMPDEST PUSH1 0x20 DUP8 ADD SWAP7 POP PUSH1 0x1 DUP3 ADD SWAP2 POP JUMPDEST PUSH1 0x0 ISZERO PUSH2 0x25A0 JUMPI PUSH2 0x2593 DUP8 PUSH2 0x258E DUP4 PUSH2 0x2EF6 JUMP JUMPDEST PUSH2 0x28AF JUMP JUMPDEST PUSH1 0x20 DUP8 ADD SWAP7 POP PUSH1 0x1 DUP3 ADD SWAP2 POP JUMPDEST PUSH1 0x0 ISZERO PUSH2 0x25C6 JUMPI PUSH2 0x25B9 DUP8 PUSH2 0x25B4 DUP4 PUSH2 0x2F10 JUMP JUMPDEST PUSH2 0x28AF JUMP JUMPDEST PUSH1 0x20 DUP8 ADD SWAP7 POP PUSH1 0x1 DUP3 ADD SWAP2 POP JUMPDEST PUSH1 0x0 ISZERO PUSH2 0x25EC JUMPI PUSH2 0x25DF DUP8 PUSH2 0x25DA DUP4 PUSH2 0x2F44 JUMP JUMPDEST PUSH2 0x28AF JUMP JUMPDEST PUSH1 0x20 DUP8 ADD SWAP7 POP PUSH1 0x1 DUP3 ADD SWAP2 POP JUMPDEST PUSH1 0x0 ISZERO PUSH2 0x2612 JUMPI PUSH2 0x2605 DUP8 PUSH2 0x2600 DUP4 PUSH2 0x2F5E JUMP JUMPDEST PUSH2 0x28AF JUMP JUMPDEST PUSH1 0x20 DUP8 ADD SWAP7 POP PUSH1 0x1 DUP3 ADD SWAP2 POP JUMPDEST POP JUMPDEST POP POP POP POP POP POP JUMP JUMPDEST PUSH2 0x2625 DUP2 PUSH2 0x2BF8 JUMP JUMPDEST DUP3 MSTORE POP POP JUMP JUMPDEST PUSH2 0x2634 DUP2 PUSH2 0x2BF8 JUMP JUMPDEST DUP3 MSTORE POP POP JUMP JUMPDEST PUSH1 0x0 PUSH2 0x2645 DUP3 PUSH2 0x2A5A JUMP JUMPDEST PUSH2 0x264F DUP2 DUP6 PUSH2 0x2AC5 JUMP JUMPDEST SWAP4 POP PUSH2 0x265F DUP2 DUP6 PUSH1 0x20 DUP7 ADD PUSH2 0x2C3B JUMP JUMPDEST DUP1 DUP5 ADD SWAP2 POP POP SWAP3 SWAP2 POP POP JUMP JUMPDEST PUSH1 0x0 PUSH2 0x2676 DUP3 PUSH2 0x2A65 JUMP JUMPDEST PUSH2 0x2680 DUP2 DUP6 PUSH2 0x2AD0 JUMP JUMPDEST SWAP4 POP PUSH2 0x2690 DUP2 DUP6 PUSH1 0x20 DUP7 ADD PUSH2 0x2C3B JUMP JUMPDEST PUSH2 0x2699 DUP2 PUSH2 0x3176 JUMP JUMPDEST DUP5 ADD SWAP2 POP POP SWAP3 SWAP2 POP POP JUMP JUMPDEST PUSH1 0x0 PUSH2 0x26AF DUP3 PUSH2 0x2A65 JUMP JUMPDEST PUSH2 0x26B9 DUP2 DUP6 PUSH2 0x2AE1 JUMP JUMPDEST SWAP4 POP PUSH2 0x26C9 DUP2 DUP6 PUSH1 0x20 DUP7 ADD PUSH2 0x2C3B JUMP JUMPDEST PUSH2 0x26D2 DUP2 PUSH2 0x3176 JUMP JUMPDEST DUP5 ADD SWAP2 POP POP SWAP3 SWAP2 POP POP JUMP JUMPDEST PUSH1 0x0 DUP2 SLOAD PUSH2 0x26EA DUP2 PUSH2 0x2C6E JUMP JUMPDEST PUSH2 0x26F4 DUP2 DUP7 PUSH2 0x2AD0 JUMP JUMPDEST SWAP5 POP PUSH1 0x1 DUP3 AND PUSH1 0x0 DUP2 EQ PUSH2 0x270F JUMPI PUSH1 0x1 DUP2 EQ PUSH2 0x2721 JUMPI PUSH2 0x2754 JUMP JUMPDEST PUSH1 0xFF NOT DUP4 AND DUP7 MSTORE PUSH1 0x20 DUP7 ADD SWAP4 POP PUSH2 0x2754 JUMP JUMPDEST PUSH2 0x272A DUP6 PUSH2 0x2A0E JUMP JUMPDEST PUSH1 0x0 JUMPDEST DUP4 DUP2 LT ISZERO PUSH2 0x274C JUMPI DUP2 SLOAD DUP2 DUP10 ADD MSTORE PUSH1 0x1 DUP3 ADD SWAP2 POP PUSH1 0x20 DUP2 ADD SWAP1 POP PUSH2 0x272D JUMP JUMPDEST DUP1 DUP9 ADD SWAP6 POP POP POP JUMPDEST POP POP POP SWAP3 SWAP2 POP POP JUMP JUMPDEST PUSH1 0x0 PUSH2 0x100 DUP4 ADD PUSH1 0x0 DUP4 ADD MLOAD PUSH2 0x2776 PUSH1 0x0 DUP7 ADD DUP3 PUSH2 0x2891 JUMP JUMPDEST POP PUSH1 0x20 DUP4 ADD MLOAD PUSH2 0x2789 PUSH1 0x20 DUP7 ADD DUP3 PUSH2 0x1C49 JUMP JUMPDEST POP PUSH1 0x40 DUP4 ADD MLOAD DUP5 DUP3 SUB PUSH1 0x40 DUP7 ADD MSTORE PUSH2 0x27A1 DUP3 DUP3 PUSH2 0x1C67 JUMP JUMPDEST SWAP2 POP POP PUSH1 0x60 DUP4 ADD MLOAD PUSH2 0x27B6 PUSH1 0x60 DUP7 ADD DUP3 PUSH2 0x1DA7 JUMP JUMPDEST POP PUSH1 0x80 DUP4 ADD MLOAD PUSH2 0x27C9 PUSH1 0xA0 DUP7 ADD DUP3 PUSH2 0x1DA7 JUMP JUMPDEST POP PUSH1 0xA0 DUP4 ADD MLOAD PUSH2 0x27DC PUSH1 0xE0 DUP7 ADD DUP3 PUSH2 0x261C JUMP JUMPDEST POP DUP1 SWAP2 POP POP SWAP3 SWAP2 POP POP JUMP JUMPDEST PUSH1 0x0 PUSH2 0x100 DUP4 ADD PUSH1 0x0 DUP1 DUP5 ADD SLOAD SWAP1 POP PUSH2 0x27FF DUP2 PUSH2 0x2CD4 JUMP JUMPDEST PUSH2 0x280C PUSH1 0x0 DUP8 ADD DUP3 PUSH2 0x2891 JUMP JUMPDEST POP PUSH1 0x1 DUP5 ADD SLOAD SWAP1 POP PUSH2 0x281D DUP2 PUSH2 0x2CA0 JUMP JUMPDEST PUSH2 0x282A PUSH1 0x20 DUP8 ADD DUP3 PUSH2 0x1C49 JUMP JUMPDEST POP PUSH1 0x2 DUP5 ADD DUP6 DUP4 SUB PUSH1 0x40 DUP8 ADD MSTORE PUSH2 0x2841 DUP4 DUP3 PUSH2 0x1CDC JUMP JUMPDEST SWAP3 POP POP PUSH1 0x4 DUP5 ADD PUSH2 0x2855 PUSH1 0x60 DUP8 ADD DUP3 PUSH2 0x1DFE JUMP JUMPDEST POP PUSH1 0x5 DUP5 ADD PUSH2 0x2867 PUSH1 0xA0 DUP8 ADD DUP3 PUSH2 0x1DFE JUMP JUMPDEST POP PUSH1 0x6 DUP5 ADD SLOAD SWAP1 POP PUSH2 0x2878 DUP2 PUSH2 0x2CBA JUMP JUMPDEST PUSH2 0x2885 PUSH1 0xE0 DUP8 ADD DUP3 PUSH2 0x261C JUMP JUMPDEST POP DUP2 SWAP3 POP POP POP SWAP3 SWAP2 POP POP JUMP JUMPDEST PUSH2 0x289A DUP2 PUSH2 0x2C24 JUMP JUMPDEST DUP3 MSTORE POP POP JUMP JUMPDEST PUSH2 0x28A9 DUP2 PUSH2 0x2C24 JUMP JUMPDEST DUP3 MSTORE POP POP JUMP JUMPDEST PUSH2 0x28B8 DUP2 PUSH2 0x2C2E JUMP JUMPDEST DUP3 MSTORE POP POP JUMP JUMPDEST PUSH1 0x0 PUSH2 0x28CA DUP3 DUP9 PUSH2 0x263A JUMP JUMPDEST SWAP2 POP PUSH2 0x28D6 DUP3 DUP8 PUSH2 0x263A JUMP JUMPDEST SWAP2 POP PUSH2 0x28E2 DUP3 DUP7 PUSH2 0x263A JUMP JUMPDEST SWAP2 POP PUSH2 0x28EE DUP3 DUP6 PUSH2 0x263A JUMP JUMPDEST SWAP2 POP PUSH2 0x28FA DUP3 DUP5 PUSH2 0x263A JUMP JUMPDEST SWAP2 POP DUP2 SWAP1 POP SWAP7 SWAP6 POP POP POP POP POP POP JUMP JUMPDEST PUSH1 0x0 PUSH1 0x40 DUP3 ADD SWAP1 POP PUSH2 0x291E PUSH1 0x0 DUP4 ADD DUP5 PUSH2 0x1D50 JUMP JUMPDEST SWAP3 SWAP2 POP POP JUMP JUMPDEST PUSH1 0x0 PUSH1 0x20 DUP3 ADD SWAP1 POP DUP2 DUP2 SUB PUSH1 0x0 DUP4 ADD MSTORE PUSH2 0x293E DUP2 DUP5 PUSH2 0x26A4 JUMP JUMPDEST SWAP1 POP SWAP3 SWAP2 POP POP JUMP JUMPDEST PUSH1 0x0 PUSH1 0x20 DUP3 ADD SWAP1 POP DUP2 DUP2 SUB PUSH1 0x0 DUP4 ADD MSTORE PUSH2 0x2960 DUP2 DUP5 PUSH2 0x275D JUMP JUMPDEST SWAP1 POP SWAP3 SWAP2 POP POP JUMP JUMPDEST PUSH1 0x0 PUSH1 0x20 DUP3 ADD SWAP1 POP DUP2 DUP2 SUB PUSH1 0x0 DUP4 ADD MSTORE PUSH2 0x2982 DUP2 DUP5 PUSH2 0x27E7 JUMP JUMPDEST SWAP1 POP SWAP3 SWAP2 POP POP JUMP JUMPDEST PUSH1 0x0 PUSH1 0x20 DUP3 ADD SWAP1 POP PUSH2 0x299F PUSH1 0x0 DUP4 ADD DUP5 PUSH2 0x28A0 JUMP JUMPDEST SWAP3 SWAP2 POP POP JUMP JUMPDEST PUSH1 0x0 PUSH1 0x60 DUP3 ADD SWAP1 POP PUSH2 0x29BA PUSH1 0x0 DUP4 ADD DUP7 PUSH2 0x28A0 JUMP JUMPDEST PUSH2 0x29C7 PUSH1 0x20 DUP4 ADD DUP6 PUSH2 0x1C58 JUMP JUMPDEST PUSH2 0x29D4 PUSH1 0x40 DUP4 ADD DUP5 PUSH2 0x262B JUMP JUMPDEST SWAP5 SWAP4 POP POP POP POP JUMP JUMPDEST PUSH1 0x0 DUP2 SWAP1 POP SWAP2 SWAP1 POP JUMP JUMPDEST PUSH1 0x0 DUP2 SWAP1 POP SWAP2 SWAP1 POP JUMP JUMPDEST PUSH1 0x0 DUP2 SWAP1 POP SWAP2 SWAP1 POP JUMP JUMPDEST PUSH1 0x0 DUP2 SWAP1 POP SWAP2 SWAP1 POP JUMP JUMPDEST PUSH1 0x0 DUP2 SWAP1 POP SWAP2 SWAP1 POP JUMP JUMPDEST PUSH1 0x0 DUP2 SWAP1 POP DUP2 PUSH1 0x0 MSTORE PUSH1 0x20 PUSH1 0x0 KECCAK256 SWAP1 POP SWAP2 SWAP1 POP JUMP JUMPDEST PUSH1 0x0 PUSH1 0x2 SWAP1 POP SWAP2 SWAP1 POP JUMP JUMPDEST PUSH1 0x0 PUSH1 0x2 SWAP1 POP SWAP2 SWAP1 POP JUMP JUMPDEST PUSH1 0x0 PUSH1 0x2 SWAP1 POP SWAP2 SWAP1 POP JUMP JUMPDEST PUSH1 0x0 PUSH1 0x2 SWAP1 POP SWAP2 SWAP1 POP JUMP JUMPDEST PUSH1 0x0 PUSH1 0x2 SWAP1 POP SWAP2 SWAP1 POP JUMP JUMPDEST PUSH1 0x0 DUP2 MLOAD SWAP1 POP SWAP2 SWAP1 POP JUMP JUMPDEST PUSH1 0x0 DUP2 MLOAD SWAP1 POP SWAP2 SWAP1 POP JUMP JUMPDEST PUSH1 0x0 PUSH1 0x20 DUP3 ADD SWAP1 POP SWAP2 SWAP1 POP JUMP JUMPDEST PUSH1 0x0 PUSH1 0x1 DUP3 ADD SWAP1 POP SWAP2 SWAP1 POP JUMP JUMPDEST PUSH1 0x0 PUSH1 0x20 DUP3 ADD SWAP1 POP SWAP2 SWAP1 POP JUMP JUMPDEST PUSH1 0x0 PUSH1 0x20 DUP3 ADD SWAP1 POP SWAP2 SWAP1 POP JUMP JUMPDEST PUSH1 0x0 DUP2 SWAP1 POP SWAP3 SWAP2 POP POP JUMP JUMPDEST PUSH1 0x0 DUP2 SWAP1 POP SWAP3 SWAP2 POP POP JUMP JUMPDEST PUSH1 0x0 DUP2 SWAP1 POP SWAP3 SWAP2 POP POP JUMP JUMPDEST PUSH1 0x0 DUP2 SWAP1 POP SWAP3 SWAP2 POP POP JUMP JUMPDEST PUSH1 0x0 DUP3 DUP3 MSTORE PUSH1 0x20 DUP3 ADD SWAP1 POP SWAP3 SWAP2 POP POP JUMP JUMPDEST PUSH1 0x0 DUP3 DUP3 MSTORE PUSH1 0x20 DUP3 ADD SWAP1 POP SWAP3 SWAP2 POP POP JUMP JUMPDEST PUSH1 0x0 PUSH2 0x2AFD DUP3 PUSH2 0x2C24 JUMP JUMPDEST SWAP2 POP PUSH2 0x2B08 DUP4 PUSH2 0x2C24 JUMP JUMPDEST SWAP3 POP DUP3 PUSH32 0xFFFFFFFFFFFFFFFFFFFFFFFFFFFFFFFFFFFFFFFFFFFFFFFFFFFFFFFFFFFFFFFF SUB DUP3 GT ISZERO PUSH2 0x2B3D JUMPI PUSH2 0x2B3C PUSH2 0x30A1 JUMP JUMPDEST JUMPDEST DUP3 DUP3 ADD SWAP1 POP SWAP3 SWAP2 POP POP JUMP JUMPDEST PUSH1 0x0 PUSH2 0x2B53 DUP3 PUSH2 0x2C24 JUMP JUMPDEST SWAP2 POP PUSH2 0x2B5E DUP4 PUSH2 0x2C24 JUMP JUMPDEST SWAP3 POP DUP2 PUSH32 0xFFFFFFFFFFFFFFFFFFFFFFFFFFFFFFFFFFFFFFFFFFFFFFFFFFFFFFFFFFFFFFFF DIV DUP4 GT DUP3 ISZERO ISZERO AND ISZERO PUSH2 0x2B97 JUMPI PUSH2 0x2B96 PUSH2 0x30A1 JUMP JUMPDEST JUMPDEST DUP3 DUP3 MUL SWAP1 POP SWAP3 SWAP2 POP POP JUMP JUMPDEST PUSH1 0x0 PUSH20 0xFFFFFFFFFFFFFFFFFFFFFFFFFFFFFFFFFFFFFFFF DUP3 AND SWAP1 POP SWAP2 SWAP1 POP JUMP JUMPDEST PUSH1 0x0 PUSH1 0xFF DUP3 AND SWAP1 POP SWAP2 SWAP1 POP JUMP JUMPDEST PUSH1 0x0 DUP2 SWAP1 POP SWAP2 SWAP1 POP JUMP JUMPDEST PUSH1 0x0 PUSH1 0xFF DUP3 AND SWAP1 POP SWAP2 SWAP1 POP JUMP JUMPDEST PUSH1 0x0 PUSH2 0x2BF1 DUP3 PUSH2 0x2C04 JUMP JUMPDEST SWAP1 POP SWAP2 SWAP1 POP JUMP JUMPDEST PUSH1 0x0 DUP2 ISZERO ISZERO SWAP1 POP SWAP2 SWAP1 POP JUMP JUMPDEST PUSH1 0x0 PUSH20 0xFFFFFFFFFFFFFFFFFFFFFFFFFFFFFFFFFFFFFFFF DUP3 AND SWAP1 POP SWAP2 SWAP1 POP JUMP JUMPDEST PUSH1 0x0 DUP2 SWAP1 POP SWAP2 SWAP1 POP JUMP JUMPDEST PUSH1 0x0 PUSH1 0xFF DUP3 AND SWAP1 POP SWAP2 SWAP1 POP JUMP JUMPDEST PUSH1 0x0 JUMPDEST DUP4 DUP2 LT ISZERO PUSH2 0x2C59 JUMPI DUP1 DUP3 ADD MLOAD DUP2 DUP5 ADD MSTORE PUSH1 0x20 DUP2 ADD SWAP1 POP PUSH2 0x2C3E JUMP JUMPDEST DUP4 DUP2 GT ISZERO PUSH2 0x2C68 JUMPI PUSH1 0x0 DUP5 DUP5 ADD MSTORE JUMPDEST POP POP POP POP JUMP JUMPDEST PUSH1 0x0 PUSH1 0x2 DUP3 DIV SWAP1 POP PUSH1 0x1 DUP3 AND DUP1 PUSH2 0x2C86 JUMPI PUSH1 0x7F DUP3 AND SWAP2 POP JUMPDEST PUSH1 0x20 DUP3 LT DUP2 EQ ISZERO PUSH2 0x2C9A JUMPI PUSH2 0x2C99 PUSH2 0x30FF JUMP JUMPDEST JUMPDEST POP SWAP2 SWAP1 POP JUMP JUMPDEST PUSH1 0x0 PUSH2 0x2CB3 PUSH2 0x2CAE DUP4 PUSH2 0x3187 JUMP JUMPDEST PUSH2 0x2BA2 JUMP JUMPDEST SWAP1 POP SWAP2 SWAP1 POP JUMP JUMPDEST PUSH1 0x0 PUSH2 0x2CCD PUSH2 0x2CC8 DUP4 PUSH2 0x3187 JUMP JUMPDEST PUSH2 0x2BC2 JUMP JUMPDEST SWAP1 POP SWAP2 SWAP1 POP JUMP JUMPDEST PUSH1 0x0 PUSH2 0x2CE7 PUSH2 0x2CE2 DUP4 PUSH2 0x3187 JUMP JUMPDEST PUSH2 0x2BCF JUMP JUMPDEST SWAP1 POP SWAP2 SWAP1 POP JUMP JUMPDEST PUSH1 0x0 PUSH2 0x2D01 PUSH2 0x2CFC DUP4 PUSH2 0x3187 JUMP JUMPDEST PUSH2 0x2BD9 JUMP JUMPDEST SWAP1 POP SWAP2 SWAP1 POP JUMP JUMPDEST PUSH1 0x0 PUSH2 0x2D1B PUSH2 0x2D16 DUP4 PUSH2 0x32F3 JUMP JUMPDEST PUSH2 0x2BD9 JUMP JUMPDEST SWAP1 POP SWAP2 SWAP1 POP JUMP JUMPDEST PUSH1 0x0 PUSH2 0x2D35 PUSH2 0x2D30 DUP4 PUSH2 0x3300 JUMP JUMPDEST PUSH2 0x2BD9 JUMP JUMPDEST SWAP1 POP SWAP2 SWAP1 POP JUMP JUMPDEST PUSH1 0x0 PUSH2 0x2D4F PUSH2 0x2D4A DUP4 PUSH2 0x331A JUMP JUMPDEST PUSH2 0x2BD9 JUMP JUMPDEST SWAP1 POP SWAP2 SWAP1 POP JUMP JUMPDEST PUSH1 0x0 PUSH2 0x2D69 PUSH2 0x2D64 DUP4 PUSH2 0x3194 JUMP JUMPDEST PUSH2 0x2BD9 JUMP JUMPDEST SWAP1 POP SWAP2 SWAP1 POP JUMP JUMPDEST PUSH1 0x0 PUSH2 0x2D83 PUSH2 0x2D7E DUP4 PUSH2 0x31A1 JUMP JUMPDEST PUSH2 0x2BD9 JUMP JUMPDEST SWAP1 POP SWAP2 SWAP1 POP JUMP JUMPDEST PUSH1 0x0 PUSH2 0x2D9D PUSH2 0x2D98 DUP4 PUSH2 0x31AE JUMP JUMPDEST PUSH2 0x2BD9 JUMP JUMPDEST SWAP1 POP SWAP2 SWAP1 POP JUMP JUMPDEST PUSH1 0x0 PUSH2 0x2DB7 PUSH2 0x2DB2 DUP4 PUSH2 0x31BB JUMP JUMPDEST PUSH2 0x2BD9 JUMP JUMPDEST SWAP1 POP SWAP2 SWAP1 POP JUMP JUMPDEST PUSH1 0x0 PUSH2 0x2DD1 PUSH2 0x2DCC DUP4 PUSH2 0x31C8 JUMP JUMPDEST PUSH2 0x2BD9 JUMP JUMPDEST SWAP1 POP SWAP2 SWAP1 POP JUMP JUMPDEST PUSH1 0x0 PUSH2 0x2DEB PUSH2 0x2DE6 DUP4 PUSH2 0x31D5 JUMP JUMPDEST PUSH2 0x2BD9 JUMP JUMPDEST SWAP1 POP SWAP2 SWAP1 POP JUMP JUMPDEST PUSH1 0x0 PUSH2 0x2E05 PUSH2 0x2E00 DUP4 PUSH2 0x31E2 JUMP JUMPDEST PUSH2 0x2BD9 JUMP JUMPDEST SWAP1 POP SWAP2 SWAP1 POP JUMP JUMPDEST PUSH1 0x0 PUSH2 0x2E1F PUSH2 0x2E1A DUP4 PUSH2 0x330D JUMP JUMPDEST PUSH2 0x2BD9 JUMP JUMPDEST SWAP1 POP SWAP2 SWAP1 POP JUMP JUMPDEST PUSH1 0x0 PUSH2 0x2E39 PUSH2 0x2E34 DUP4 PUSH2 0x31EF JUMP JUMPDEST PUSH2 0x2BD9 JUMP JUMPDEST SWAP1 POP SWAP2 SWAP1 POP JUMP JUMPDEST PUSH1 0x0 PUSH2 0x2E53 PUSH2 0x2E4E DUP4 PUSH2 0x31FC JUMP JUMPDEST PUSH2 0x2BD9 JUMP JUMPDEST SWAP1 POP SWAP2 SWAP1 POP JUMP JUMPDEST PUSH1 0x0 PUSH2 0x2E6D PUSH2 0x2E68 DUP4 PUSH2 0x3216 JUMP JUMPDEST PUSH2 0x2BD9 JUMP JUMPDEST SWAP1 POP SWAP2 SWAP1 POP JUMP JUMPDEST PUSH1 0x0 PUSH2 0x2E87 PUSH2 0x2E82 DUP4 PUSH2 0x3223 JUMP JUMPDEST PUSH2 0x2BD9 JUMP JUMPDEST SWAP1 POP SWAP2 SWAP1 POP JUMP JUMPDEST PUSH1 0x0 PUSH2 0x2EA1 PUSH2 0x2E9C DUP4 PUSH2 0x3230 JUMP JUMPDEST PUSH2 0x2BD9 JUMP JUMPDEST SWAP1 POP SWAP2 SWAP1 POP JUMP JUMPDEST PUSH1 0x0 PUSH2 0x2EBB PUSH2 0x2EB6 DUP4 PUSH2 0x323D JUMP JUMPDEST PUSH2 0x2BD9 JUMP JUMPDEST SWAP1 POP SWAP2 SWAP1 POP JUMP JUMPDEST PUSH1 0x0 PUSH2 0x2ED5 PUSH2 0x2ED0 DUP4 PUSH2 0x324A JUMP JUMPDEST PUSH2 0x2BD9 JUMP JUMPDEST SWAP1 POP SWAP2 SWAP1 POP JUMP JUMPDEST PUSH1 0x0 PUSH2 0x2EEF PUSH2 0x2EEA DUP4 PUSH2 0x3257 JUMP JUMPDEST PUSH2 0x2BD9 JUMP JUMPDEST SWAP1 POP SWAP2 SWAP1 POP JUMP JUMPDEST PUSH1 0x0 PUSH2 0x2F09 PUSH2 0x2F04 DUP4 PUSH2 0x3264 JUMP JUMPDEST PUSH2 0x2BD9 JUMP JUMPDEST SWAP1 POP SWAP2 SWAP1 POP JUMP JUMPDEST PUSH1 0x0 PUSH2 0x2F23 PUSH2 0x2F1E DUP4 PUSH2 0x3271 JUMP JUMPDEST PUSH2 0x2BD9 JUMP JUMPDEST SWAP1 POP SWAP2 SWAP1 POP JUMP JUMPDEST PUSH1 0x0 PUSH2 0x2F3D PUSH2 0x2F38 DUP4 PUSH2 0x3209 JUMP JUMPDEST PUSH2 0x2BD9 JUMP JUMPDEST SWAP1 POP SWAP2 SWAP1 POP JUMP JUMPDEST PUSH1 0x0 PUSH2 0x2F57 PUSH2 0x2F52 DUP4 PUSH2 0x327E JUMP JUMPDEST PUSH2 0x2BD9 JUMP JUMPDEST SWAP1 POP SWAP2 SWAP1 POP JUMP JUMPDEST PUSH1 0x0 PUSH2 0x2F71 PUSH2 0x2F6C DUP4 PUSH2 0x328B JUMP JUMPDEST PUSH2 0x2BD9 JUMP JUMPDEST SWAP1 POP SWAP2 SWAP1 POP JUMP JUMPDEST PUSH1 0x0 PUSH2 0x2F8B PUSH2 0x2F86 DUP4 PUSH2 0x3298 JUMP JUMPDEST PUSH2 0x2BD9 JUMP JUMPDEST SWAP1 POP SWAP2 SWAP1 POP JUMP JUMPDEST PUSH1 0x0 PUSH2 0x2FA5 PUSH2 0x2FA0 DUP4 PUSH2 0x32A5 JUMP JUMPDEST PUSH2 0x2BD9 JUMP JUMPDEST SWAP1 POP SWAP2 SWAP1 POP JUMP JUMPDEST PUSH1 0x0 PUSH2 0x2FBF PUSH2 0x2FBA DUP4 PUSH2 0x32B2 JUMP JUMPDEST PUSH2 0x2BD9 JUMP JUMPDEST SWAP1 POP SWAP2 SWAP1 POP JUMP JUMPDEST PUSH1 0x0 PUSH2 0x2FD9 PUSH2 0x2FD4 DUP4 PUSH2 0x32BF JUMP JUMPDEST PUSH2 0x2BD9 JUMP JUMPDEST SWAP1 POP SWAP2 SWAP1 POP JUMP JUMPDEST PUSH1 0x0 PUSH2 0x2FF3 PUSH2 0x2FEE DUP4 PUSH2 0x32CC JUMP JUMPDEST PUSH2 0x2BD9 JUMP JUMPDEST SWAP1 POP SWAP2 SWAP1 POP JUMP JUMPDEST PUSH1 0x0 PUSH2 0x300D PUSH2 0x3008 DUP4 PUSH2 0x32D9 JUMP JUMPDEST PUSH2 0x2BD9 JUMP JUMPDEST SWAP1 POP SWAP2 SWAP1 POP JUMP JUMPDEST PUSH1 0x0 PUSH2 0x3027 PUSH2 0x3022 DUP4 PUSH2 0x32E6 JUMP JUMPDEST PUSH2 0x2BD9 JUMP JUMPDEST SWAP1 POP SWAP2 SWAP1 POP JUMP JUMPDEST PUSH1 0x0 PUSH2 0x3039 DUP3 PUSH2 0x2C24 JUMP JUMPDEST SWAP2 POP PUSH32 0xFFFFFFFFFFFFFFFFFFFFFFFFFFFFFFFFFFFFFFFFFFFFFFFFFFFFFFFFFFFFFFFF DUP3 EQ ISZERO PUSH2 0x306C JUMPI PUSH2 0x306B PUSH2 0x30A1 JUMP JUMPDEST JUMPDEST PUSH1 0x1 DUP3 ADD SWAP1 POP SWAP2 SWAP1 POP JUMP JUMPDEST PUSH1 0x0 PUSH2 0x3082 DUP3 PUSH2 0x2C2E JUMP JUMPDEST SWAP2 POP PUSH1 0xFF DUP3 EQ ISZERO PUSH2 0x3096 JUMPI PUSH2 0x3095 PUSH2 0x30A1 JUMP JUMPDEST JUMPDEST PUSH1 0x1 DUP3 ADD SWAP1 POP SWAP2 SWAP1 POP JUMP JUMPDEST PUSH32 0x4E487B7100000000000000000000000000000000000000000000000000000000 PUSH1 0x0 MSTORE PUSH1 0x11 PUSH1 0x4 MSTORE PUSH1 0x24 PUSH1 0x0 REVERT JUMPDEST PUSH32 0x4E487B7100000000000000000000000000000000000000000000000000000000 PUSH1 0x0 MSTORE PUSH1 0x21 PUSH1 0x4 MSTORE PUSH1 0x24 PUSH1 0x0 REVERT JUMPDEST PUSH32 0x4E487B7100000000000000000000000000000000000000000000000000000000 PUSH1 0x0 MSTORE PUSH1 0x22 PUSH1 0x4 MSTORE PUSH1 0x24 PUSH1 0x0 REVERT JUMPDEST PUSH32 0x4E487B7100000000000000000000000000000000000000000000000000000000 PUSH1 0x0 MSTORE PUSH1 0x32 PUSH1 0x4 MSTORE PUSH1 0x24 PUSH1 0x0 REVERT JUMPDEST PUSH1 0x0 DUP1 REVERT JUMPDEST PUSH1 0x0 DUP1 REVERT JUMPDEST PUSH1 0x0 DUP1 REVERT JUMPDEST PUSH1 0x0 DUP1 REVERT JUMPDEST PUSH1 0x0 DUP1 REVERT JUMPDEST PUSH1 0x0 PUSH1 0x1F NOT PUSH1 0x1F DUP4 ADD AND SWAP1 POP SWAP2 SWAP1 POP JUMP JUMPDEST PUSH1 0x0 DUP2 PUSH1 0x0 SHR SWAP1 POP SWAP2 SWAP1 POP JUMP JUMPDEST PUSH1 0x0 DUP2 PUSH1 0x68 SHR SWAP1 POP SWAP2 SWAP1 POP JUMP JUMPDEST PUSH1 0x0 DUP2 PUSH1 0x70 SHR SWAP1 POP SWAP2 SWAP1 POP JUMP JUMPDEST PUSH1 0x0 DUP2 PUSH1 0x78 SHR SWAP1 POP SWAP2 SWAP1 POP JUMP JUMPDEST PUSH1 0x0 DUP2 PUSH1 0x80 SHR SWAP1 POP SWAP2 SWAP1 POP JUMP JUMPDEST PUSH1 0x0 DUP2 PUSH1 0x88 SHR SWAP1 POP SWAP2 SWAP1 POP JUMP JUMPDEST PUSH1 0x0 DUP2 PUSH1 0x90 SHR SWAP1 POP SWAP2 SWAP1 POP JUMP JUMPDEST PUSH1 0x0 DUP2 PUSH1 0x98 SHR SWAP1 POP SWAP2 SWAP1 POP JUMP JUMPDEST PUSH1 0x0 DUP2 PUSH1 0xA0 SHR SWAP1 POP SWAP2 SWAP1 POP JUMP JUMPDEST PUSH1 0x0 DUP2 PUSH1 0xA8 SHR SWAP1 POP SWAP2 SWAP1 POP JUMP JUMPDEST PUSH1 0x0 DUP2 PUSH1 0x10 SHR SWAP1 POP SWAP2 SWAP1 POP JUMP JUMPDEST PUSH1 0x0 DUP2 PUSH1 0xB0 SHR SWAP1 POP SWAP2 SWAP1 POP JUMP JUMPDEST PUSH1 0x0 DUP2 PUSH1 0xB8 SHR SWAP1 POP SWAP2 SWAP1 POP JUMP JUMPDEST PUSH1 0x0 DUP2 PUSH1 0xC0 SHR SWAP1 POP SWAP2 SWAP1 POP JUMP JUMPDEST PUSH1 0x0 DUP2 PUSH1 0xC8 SHR SWAP1 POP SWAP2 SWAP1 POP JUMP JUMPDEST PUSH1 0x0 DUP2 PUSH1 0xD0 SHR SWAP1 POP SWAP2 SWAP1 POP JUMP JUMPDEST PUSH1 0x0 DUP2 PUSH1 0xD8 SHR SWAP1 POP SWAP2 SWAP1 POP JUMP JUMPDEST PUSH1 0x0 DUP2 PUSH1 0xE0 SHR SWAP1 POP SWAP2 SWAP1 POP JUMP JUMPDEST PUSH1 0x0 DUP2 PUSH1 0xE8 SHR SWAP1 POP SWAP2 SWAP1 POP JUMP JUMPDEST PUSH1 0x0 DUP2 PUSH1 0xF0 SHR SWAP1 POP SWAP2 SWAP1 POP JUMP JUMPDEST PUSH1 0x0 DUP2 PUSH1 0xF8 SHR SWAP1 POP SWAP2 SWAP1 POP JUMP JUMPDEST PUSH1 0x0 DUP2 PUSH1 0x18 SHR SWAP1 POP SWAP2 SWAP1 POP JUMP JUMPDEST PUSH1 0x0 DUP2 PUSH1 0x20 SHR SWAP1 POP SWAP2 SWAP1 POP JUMP JUMPDEST PUSH1 0x0 DUP2 PUSH1 0x28 SHR SWAP1 POP SWAP2 SWAP1 POP JUMP JUMPDEST PUSH1 0x0 DUP2 PUSH1 0x30 SHR SWAP1 POP SWAP2 SWAP1 POP JUMP JUMPDEST PUSH1 0x0 DUP2 PUSH1 0x38 SHR SWAP1 POP SWAP2 SWAP1 POP JUMP JUMPDEST PUSH1 0x0 DUP2 PUSH1 0x40 SHR SWAP1 POP SWAP2 SWAP1 POP JUMP JUMPDEST PUSH1 0x0 DUP2 PUSH1 0x48 SHR SWAP1 POP SWAP2 SWAP1 POP JUMP JUMPDEST PUSH1 0x0 DUP2 PUSH1 0x50 SHR SWAP1 POP SWAP2 SWAP1 POP JUMP JUMPDEST PUSH1 0x0 DUP2 PUSH1 0x58 SHR SWAP1 POP SWAP2 SWAP1 POP JUMP JUMPDEST PUSH1 0x0 DUP2 PUSH1 0x8 SHR SWAP1 POP SWAP2 SWAP1 POP JUMP JUMPDEST PUSH1 0x0 DUP2 PUSH1 0x60 SHR SWAP1 POP SWAP2 SWAP1 POP JUMP JUMPDEST PUSH2 0x3330 DUP2 PUSH2 0x2BE6 JUMP JUMPDEST DUP2 EQ PUSH2 0x333B JUMPI PUSH1 0x0 DUP1 REVERT JUMPDEST POP JUMP JUMPDEST PUSH1 0x2 DUP2 LT PUSH2 0x334B JUMPI PUSH1 0x0 DUP1 REVERT JUMPDEST POP JUMP JUMPDEST PUSH2 0x3357 DUP2 PUSH2 0x2C24 JUMP JUMPDEST DUP2 EQ PUSH2 0x3362 JUMPI PUSH1 0x0 DUP1 REVERT JUMPDEST POP JUMP JUMPDEST PUSH2 0x336E DUP2 PUSH2 0x2C2E JUMP JUMPDEST DUP2 EQ PUSH2 0x3379 JUMPI PUSH1 0x0 DUP1 REVERT JUMPDEST POP JUMP INVALID LOG2 PUSH5 0x6970667358 0x22 SLT KECCAK256 0xC5 STATICCALL 0xAD DUP4 SELFBALANCE PUSH21 0xD37F30B16072F8214439A5D4B15F55D764D78E92B4 JUMPI SWAP9 0xCB MULMOD RETURNDATASIZE PUSH5 0x736F6C6343 STOP ADDMOD SMOD STOP CALLER "
		},
		"gasEstimates": {
			"creation": {
				"codeDepositCost": "2646800",
				"executionCost": "27135",
				"totalCost": "2673935"
			},
			"external": {
				"createGame(string,string)": "infinite",
				"finaliseScore(uint256)": "infinite",
				"games(uint256)": "infinite",
				"getContributions(address)": "2886",
				"getGameContext(uint256)": "infinite",
				"getGameScore(uint256)": "infinite",
				"getGamesDeployed(address)": "2841",
				"incrementBehind(uint256,uint8)": "infinite",
				"incrementGoal(uint256,uint8)": "infinite",
				"setScore(uint256,uint8,uint8,uint8,uint8)": "infinite"
			}
		},
		"methodIdentifiers": {
			"createGame(string,string)": "df472d67",
			"finaliseScore(uint256)": "e258c02c",
			"games(uint256)": "117a5b90",
			"getContributions(address)": "3f19d043",
			"getGameContext(uint256)": "6f75c3c6",
			"getGameScore(uint256)": "4f72d12a",
			"getGamesDeployed(address)": "aeea9eb1",
			"incrementBehind(uint256,uint8)": "1552922c",
			"incrementGoal(uint256,uint8)": "fe0b7ede",
			"setScore(uint256,uint8,uint8,uint8,uint8)": "da424d8a"
		}
	},
	"abi": [
		{
			"anonymous": false,
			"inputs": [
				{
					"components": [
						{
							"internalType": "uint256",
							"name": "gameID",
							"type": "uint256"
						},
						{
							"internalType": "address",
							"name": "gameOwner",
							"type": "address"
						},
						{
							"internalType": "string[2]",
							"name": "teams",
							"type": "string[2]"
						},
						{
							"internalType": "uint8[2]",
							"name": "team1Score",
							"type": "uint8[2]"
						},
						{
							"internalType": "uint8[2]",
							"name": "team2Score",
							"type": "uint8[2]"
						},
						{
							"internalType": "bool",
							"name": "scoreFinalised",
							"type": "bool"
						}
					],
					"indexed": false,
					"internalType": "struct AflScoreTracker.Game",
					"name": "",
					"type": "tuple"
				}
			],
			"name": "gameCreated",
			"type": "event"
		},
		{
			"anonymous": false,
			"inputs": [
				{
					"components": [
						{
							"internalType": "uint256",
							"name": "gameID",
							"type": "uint256"
						},
						{
							"internalType": "address",
							"name": "gameOwner",
							"type": "address"
						},
						{
							"internalType": "string[2]",
							"name": "teams",
							"type": "string[2]"
						},
						{
							"internalType": "uint8[2]",
							"name": "team1Score",
							"type": "uint8[2]"
						},
						{
							"internalType": "uint8[2]",
							"name": "team2Score",
							"type": "uint8[2]"
						},
						{
							"internalType": "bool",
							"name": "scoreFinalised",
							"type": "bool"
						}
					],
					"indexed": false,
					"internalType": "struct AflScoreTracker.Game",
					"name": "",
					"type": "tuple"
				}
			],
			"name": "gameScoreFinalised",
			"type": "event"
		},
		{
			"anonymous": false,
			"inputs": [
				{
					"components": [
						{
							"internalType": "uint256",
							"name": "gameID",
							"type": "uint256"
						},
						{
							"internalType": "address",
							"name": "gameOwner",
							"type": "address"
						},
						{
							"internalType": "string[2]",
							"name": "teams",
							"type": "string[2]"
						},
						{
							"internalType": "uint8[2]",
							"name": "team1Score",
							"type": "uint8[2]"
						},
						{
							"internalType": "uint8[2]",
							"name": "team2Score",
							"type": "uint8[2]"
						},
						{
							"internalType": "bool",
							"name": "scoreFinalised",
							"type": "bool"
						}
					],
					"indexed": false,
					"internalType": "struct AflScoreTracker.Game",
					"name": "",
					"type": "tuple"
				}
			],
			"name": "gameScoreUpdated",
			"type": "event"
		},
		{
			"inputs": [
				{
					"internalType": "string",
					"name": "_teamA",
					"type": "string"
				},
				{
					"internalType": "string",
					"name": "_teamB",
					"type": "string"
				}
			],
			"name": "createGame",
			"outputs": [
				{
					"components": [
						{
							"internalType": "uint256",
							"name": "gameID",
							"type": "uint256"
						},
						{
							"internalType": "address",
							"name": "gameOwner",
							"type": "address"
						},
						{
							"internalType": "string[2]",
							"name": "teams",
							"type": "string[2]"
						},
						{
							"internalType": "uint8[2]",
							"name": "team1Score",
							"type": "uint8[2]"
						},
						{
							"internalType": "uint8[2]",
							"name": "team2Score",
							"type": "uint8[2]"
						},
						{
							"internalType": "bool",
							"name": "scoreFinalised",
							"type": "bool"
						}
					],
					"internalType": "struct AflScoreTracker.Game",
					"name": "",
					"type": "tuple"
				}
			],
			"stateMutability": "nonpayable",
			"type": "function"
		},
		{
			"inputs": [
				{
					"internalType": "uint256",
					"name": "_gameID",
					"type": "uint256"
				}
			],
			"name": "finaliseScore",
			"outputs": [],
			"stateMutability": "nonpayable",
			"type": "function"
		},
		{
			"inputs": [
				{
					"internalType": "uint256",
					"name": "",
					"type": "uint256"
				}
			],
			"name": "games",
			"outputs": [
				{
					"internalType": "uint256",
					"name": "gameID",
					"type": "uint256"
				},
				{
					"internalType": "address",
					"name": "gameOwner",
					"type": "address"
				},
				{
					"internalType": "bool",
					"name": "scoreFinalised",
					"type": "bool"
				}
			],
			"stateMutability": "view",
			"type": "function"
		},
		{
			"inputs": [
				{
					"internalType": "address",
					"name": "_contributer",
					"type": "address"
				}
			],
			"name": "getContributions",
			"outputs": [
				{
					"internalType": "uint256",
					"name": "",
					"type": "uint256"
				}
			],
			"stateMutability": "view",
			"type": "function"
		},
		{
			"inputs": [
				{
					"internalType": "uint256",
					"name": "_gameID",
					"type": "uint256"
				}
			],
			"name": "getGameContext",
			"outputs": [
				{
					"internalType": "string",
					"name": "",
					"type": "string"
				}
			],
			"stateMutability": "view",
			"type": "function"
		},
		{
			"inputs": [
				{
					"internalType": "uint256",
					"name": "_gameID",
					"type": "uint256"
				}
			],
			"name": "getGameScore",
			"outputs": [
				{
					"internalType": "uint256[2]",
					"name": "",
					"type": "uint256[2]"
				}
			],
			"stateMutability": "view",
			"type": "function"
		},
		{
			"inputs": [
				{
					"internalType": "address",
					"name": "_gameDeployer",
					"type": "address"
				}
			],
			"name": "getGamesDeployed",
			"outputs": [
				{
					"internalType": "uint256",
					"name": "",
					"type": "uint256"
				}
			],
			"stateMutability": "view",
			"type": "function"
		},
		{
			"inputs": [
				{
					"internalType": "uint256",
					"name": "_gameID",
					"type": "uint256"
				},
				{
					"internalType": "enum AflScoreTracker.teamChoices",
					"name": "_team",
					"type": "uint8"
				}
			],
			"name": "incrementBehind",
			"outputs": [],
			"stateMutability": "nonpayable",
			"type": "function"
		},
		{
			"inputs": [
				{
					"internalType": "uint256",
					"name": "_gameID",
					"type": "uint256"
				},
				{
					"internalType": "enum AflScoreTracker.teamChoices",
					"name": "_team",
					"type": "uint8"
				}
			],
			"name": "incrementGoal",
			"outputs": [],
			"stateMutability": "nonpayable",
			"type": "function"
		},
		{
			"inputs": [
				{
					"internalType": "uint256",
					"name": "_gameID",
					"type": "uint256"
				},
				{
					"internalType": "uint8",
					"name": "_team1Goals",
					"type": "uint8"
				},
				{
					"internalType": "uint8",
					"name": "_team1Behinds",
					"type": "uint8"
				},
				{
					"internalType": "uint8",
					"name": "_team2Goals",
					"type": "uint8"
				},
				{
					"internalType": "uint8",
					"name": "_team2Behings",
					"type": "uint8"
				}
			],
			"name": "setScore",
			"outputs": [],
			"stateMutability": "nonpayable",
			"type": "function"
		}
	]
}